{
  "contractName": "DSValue",
  "abi": [
    {
      "constant": false,
      "inputs": [
        {
          "name": "owner_",
          "type": "address"
        }
      ],
      "name": "setOwner",
      "outputs": [],
      "payable": false,
      "stateMutability": "nonpayable",
      "type": "function"
    },
    {
      "constant": false,
      "inputs": [
        {
          "name": "authority_",
          "type": "address"
        }
      ],
      "name": "setAuthority",
      "outputs": [],
      "payable": false,
      "stateMutability": "nonpayable",
      "type": "function"
    },
    {
      "constant": true,
      "inputs": [],
      "name": "owner",
      "outputs": [
        {
          "name": "",
          "type": "address"
        }
      ],
      "payable": false,
      "stateMutability": "view",
      "type": "function"
    },
    {
      "constant": true,
      "inputs": [],
      "name": "authority",
      "outputs": [
        {
          "name": "",
          "type": "address"
        }
      ],
      "payable": false,
      "stateMutability": "view",
      "type": "function"
    },
    {
      "anonymous": true,
      "inputs": [
        {
          "indexed": true,
          "name": "sig",
          "type": "bytes4"
        },
        {
          "indexed": true,
          "name": "guy",
          "type": "address"
        },
        {
          "indexed": true,
          "name": "foo",
          "type": "bytes32"
        },
        {
          "indexed": true,
          "name": "bar",
          "type": "bytes32"
        },
        {
          "indexed": false,
          "name": "wad",
          "type": "uint256"
        },
        {
          "indexed": false,
          "name": "fax",
          "type": "bytes"
        }
      ],
      "name": "LogNote",
      "type": "event"
    },
    {
      "anonymous": false,
      "inputs": [
        {
          "indexed": true,
          "name": "authority",
          "type": "address"
        }
      ],
      "name": "LogSetAuthority",
      "type": "event"
    },
    {
      "anonymous": false,
      "inputs": [
        {
          "indexed": true,
          "name": "owner",
          "type": "address"
        }
      ],
      "name": "LogSetOwner",
      "type": "event"
    },
    {
      "constant": true,
      "inputs": [],
      "name": "peek",
      "outputs": [
        {
          "name": "",
          "type": "bytes32"
        },
        {
          "name": "",
          "type": "bool"
        }
      ],
      "payable": false,
      "stateMutability": "view",
      "type": "function"
    },
    {
      "constant": true,
      "inputs": [],
      "name": "read",
      "outputs": [
        {
          "name": "",
          "type": "bytes32"
        }
      ],
      "payable": false,
      "stateMutability": "view",
      "type": "function"
    },
    {
      "constant": false,
      "inputs": [
        {
          "name": "wut",
          "type": "bytes32"
        }
      ],
      "name": "poke",
      "outputs": [],
      "payable": false,
      "stateMutability": "nonpayable",
      "type": "function"
    },
    {
      "constant": false,
      "inputs": [],
      "name": "void",
      "outputs": [],
      "payable": false,
      "stateMutability": "nonpayable",
      "type": "function"
    }
  ],
  "bytecode": "0x6060604090815260018054600160a060020a03191633600160a060020a0316908117909155907fce241d7ca1f669fee44b6fc00b8eba2df3bb514eed0f6f668f8f89096e81ed94905160405180910390a261057a8061005f6000396000f30060606040526004361061008d5763ffffffff7c010000000000000000000000000000000000000000000000000000000060003504166313af403581146100925780631504460f146100b357806357de26a4146100c957806359e02dd7146100ee5780637a9e5e4b1461011b5780638da5cb5b1461013a578063ac4c25b214610169578063bf7e214f1461017c575b600080fd5b341561009d57600080fd5b6100b1600160a060020a036004351661018f565b005b34156100be57600080fd5b6100b160043561020e565b34156100d457600080fd5b6100dc6102c1565b60405190815260200160405180910390f35b34156100f957600080fd5b6101016102e1565b604051918252151560208201526040908101905180910390f35b341561012657600080fd5b6100b1600160a060020a0360043516610307565b341561014557600080fd5b61014d610386565b604051600160a060020a03909116815260200160405180910390f35b341561017457600080fd5b6100b1610395565b341561018757600080fd5b61014d61042e565b6101a533600035600160e060020a03191661043d565b15156101b057600080fd5b6001805473ffffffffffffffffffffffffffffffffffffffff1916600160a060020a038381169190911791829055167fce241d7ca1f669fee44b6fc00b8eba2df3bb514eed0f6f668f8f89096e81ed9460405160405180910390a250565b600435602435808233600160a060020a031660008035600160e060020a0319169034903660405183815260406020820181815290820183905260608201848480828437820191505094505050505060405180910390a461027a33600035600160e060020a03191661043d565b151561028557600080fd5b50506002556001805474ff0000000000000000000000000000000000000000191674010000000000000000000000000000000000000000179055565b60008060006102ce6102e1565b915091508015156102db57fe5b50919050565b60025460015460ff74010000000000000000000000000000000000000000909104169091565b61031d33600035600160e060020a03191661043d565b151561032857600080fd5b6000805473ffffffffffffffffffffffffffffffffffffffff1916600160a060020a038381169190911791829055167f1abebea81bfa2637f28358c371278fb15ede7ea8dd28d2e03b112ff6d936ada460405160405180910390a250565b600154600160a060020a031681565b600435602435808233600160a060020a031660008035600160e060020a0319169034903660405183815260406020820181815290820183905260608201848480828437820191505094505050505060405180910390a461040133600035600160e060020a03191661043d565b151561040c57600080fd5b50506001805474ff000000000000000000000000000000000000000019169055565b600054600160a060020a031681565b600030600160a060020a031683600160a060020a0316141561046157506001610548565b600154600160a060020a038481169116141561047f57506001610548565b600054600160a060020a0316151561049957506000610548565b60008054600160a060020a03169063b700961390859030908690604051602001526040517c010000000000000000000000000000000000000000000000000000000063ffffffff8616028152600160a060020a039384166004820152919092166024820152600160e060020a03199091166044820152606401602060405180830381600087803b151561052b57600080fd5b6102c65a03f1151561053c57600080fd5b50505060405180519150505b929150505600a165627a7a72305820fa71fb18dd578cdb9852253036aacfd1ffa40f57d881a3913d4970ec794714090029",
  "source": "pragma solidity ^0.4.19;\n\nimport \"../Oracle/DSThing.sol\";\n\ncontract DSValue is DSThing {\n    bool    has;\n    bytes32 val;\n    function peek() constant returns (bytes32, bool) {\n        return (val,has);\n    }\n    function read() constant returns (bytes32) {\n        var (wut, has) = peek();\n        assert(has);\n        return wut;\n    }\n    function poke(bytes32 wut) note auth {\n        val = wut;\n        has = true;\n    }\n    function void() note auth { // unset the value\n        has = false;\n    }\n}",
  "sourcePath": "/home/josojo/gnosis/dutch-exchange/contracts/Oracle/DSValue.sol",
  "compiler": {
    "name": "solc",
    "version": "0.4.19+commit.c4cbbb05.Emscripten.clang"
  },
  "schemaVersion": "1.0.1",
  "updatedAt": "2018-02-08T10:41:43.480Z"
}