{
  "contractName": "DutchExchange",
  "abi": [
    {
      "constant": true,
      "inputs": [],
      "name": "TUL",
      "outputs": [
        {
          "name": "",
          "type": "address"
        }
      ],
      "payable": false,
      "stateMutability": "view",
      "type": "function"
    },
    {
      "constant": true,
      "inputs": [
        {
          "name": "",
          "type": "address"
        },
        {
          "name": "",
          "type": "address"
        }
      ],
      "name": "auctionStarts",
      "outputs": [
        {
          "name": "",
          "type": "uint256"
        }
      ],
      "payable": false,
      "stateMutability": "view",
      "type": "function"
    },
    {
      "constant": true,
      "inputs": [
        {
          "name": "",
          "type": "address"
        },
        {
          "name": "",
          "type": "address"
        },
        {
          "name": "",
          "type": "uint256"
        },
        {
          "name": "",
          "type": "address"
        }
      ],
      "name": "buyerBalances",
      "outputs": [
        {
          "name": "",
          "type": "uint256"
        }
      ],
      "payable": false,
      "stateMutability": "view",
      "type": "function"
    },
    {
      "constant": true,
      "inputs": [],
      "name": "auctioneer",
      "outputs": [
        {
          "name": "",
          "type": "address"
        }
      ],
      "payable": false,
      "stateMutability": "view",
      "type": "function"
    },
    {
      "constant": true,
      "inputs": [
        {
          "name": "",
          "type": "address"
        }
      ],
      "name": "approvedTokens",
      "outputs": [
        {
          "name": "",
          "type": "bool"
        }
      ],
      "payable": false,
      "stateMutability": "view",
      "type": "function"
    },
    {
      "constant": true,
      "inputs": [],
      "name": "thresholdNewTokenPair",
      "outputs": [
        {
          "name": "",
          "type": "uint256"
        }
      ],
      "payable": false,
      "stateMutability": "view",
      "type": "function"
    },
    {
      "constant": true,
      "inputs": [],
      "name": "ETH",
      "outputs": [
        {
          "name": "",
          "type": "address"
        }
      ],
      "payable": false,
      "stateMutability": "view",
      "type": "function"
    },
    {
      "constant": true,
      "inputs": [],
      "name": "ETHUSDOracle",
      "outputs": [
        {
          "name": "",
          "type": "address"
        }
      ],
      "payable": false,
      "stateMutability": "view",
      "type": "function"
    },
    {
      "constant": true,
      "inputs": [],
      "name": "isInitialised",
      "outputs": [
        {
          "name": "",
          "type": "bool"
        }
      ],
      "payable": false,
      "stateMutability": "view",
      "type": "function"
    },
    {
      "constant": true,
      "inputs": [
        {
          "name": "",
          "type": "address"
        },
        {
          "name": "",
          "type": "address"
        },
        {
          "name": "",
          "type": "uint256"
        },
        {
          "name": "",
          "type": "address"
        }
      ],
      "name": "claimedAmounts",
      "outputs": [
        {
          "name": "",
          "type": "uint256"
        }
      ],
      "payable": false,
      "stateMutability": "view",
      "type": "function"
    },
    {
      "constant": true,
      "inputs": [
        {
          "name": "",
          "type": "address"
        },
        {
          "name": "",
          "type": "address"
        }
      ],
      "name": "sellVolumesNext",
      "outputs": [
        {
          "name": "",
          "type": "uint256"
        }
      ],
      "payable": false,
      "stateMutability": "view",
      "type": "function"
    },
    {
      "constant": true,
      "inputs": [
        {
          "name": "",
          "type": "address"
        },
        {
          "name": "",
          "type": "address"
        }
      ],
      "name": "sellVolumesCurrent",
      "outputs": [
        {
          "name": "",
          "type": "uint256"
        }
      ],
      "payable": false,
      "stateMutability": "view",
      "type": "function"
    },
    {
      "constant": true,
      "inputs": [
        {
          "name": "",
          "type": "address"
        },
        {
          "name": "",
          "type": "address"
        }
      ],
      "name": "buyVolumes",
      "outputs": [
        {
          "name": "",
          "type": "uint256"
        }
      ],
      "payable": false,
      "stateMutability": "view",
      "type": "function"
    },
    {
      "constant": true,
      "inputs": [],
      "name": "OWL",
      "outputs": [
        {
          "name": "",
          "type": "address"
        }
      ],
      "payable": false,
      "stateMutability": "view",
      "type": "function"
    },
    {
      "constant": true,
      "inputs": [
        {
          "name": "",
          "type": "address"
        },
        {
          "name": "",
          "type": "address"
        },
        {
          "name": "",
          "type": "uint256"
        },
        {
          "name": "",
          "type": "address"
        }
      ],
      "name": "sellerBalances",
      "outputs": [
        {
          "name": "",
          "type": "uint256"
        }
      ],
      "payable": false,
      "stateMutability": "view",
      "type": "function"
    },
    {
      "constant": true,
      "inputs": [
        {
          "name": "",
          "type": "address"
        },
        {
          "name": "",
          "type": "address"
        }
      ],
      "name": "balances",
      "outputs": [
        {
          "name": "",
          "type": "uint256"
        }
      ],
      "payable": false,
      "stateMutability": "view",
      "type": "function"
    },
    {
      "constant": true,
      "inputs": [
        {
          "name": "",
          "type": "address"
        },
        {
          "name": "",
          "type": "address"
        },
        {
          "name": "",
          "type": "uint256"
        }
      ],
      "name": "closingPrices",
      "outputs": [
        {
          "name": "num",
          "type": "uint256"
        },
        {
          "name": "den",
          "type": "uint256"
        }
      ],
      "payable": false,
      "stateMutability": "view",
      "type": "function"
    },
    {
      "constant": true,
      "inputs": [],
      "name": "thresholdNewAuction",
      "outputs": [
        {
          "name": "",
          "type": "uint256"
        }
      ],
      "payable": false,
      "stateMutability": "view",
      "type": "function"
    },
    {
      "constant": true,
      "inputs": [
        {
          "name": "",
          "type": "address"
        },
        {
          "name": "",
          "type": "address"
        },
        {
          "name": "",
          "type": "uint256"
        }
      ],
      "name": "extraTokens",
      "outputs": [
        {
          "name": "",
          "type": "uint256"
        }
      ],
      "payable": false,
      "stateMutability": "view",
      "type": "function"
    },
    {
      "constant": true,
      "inputs": [
        {
          "name": "",
          "type": "address"
        },
        {
          "name": "",
          "type": "address"
        }
      ],
      "name": "latestAuctionIndices",
      "outputs": [
        {
          "name": "",
          "type": "uint256"
        }
      ],
      "payable": false,
      "stateMutability": "view",
      "type": "function"
    },
    {
      "anonymous": false,
      "inputs": [
        {
          "indexed": false,
          "name": "token",
          "type": "address"
        },
        {
          "indexed": false,
          "name": "amount",
          "type": "uint256"
        }
      ],
      "name": "NewDeposit",
      "type": "event"
    },
    {
      "anonymous": false,
      "inputs": [
        {
          "indexed": false,
          "name": "token",
          "type": "address"
        },
        {
          "indexed": false,
          "name": "amount",
          "type": "uint256"
        }
      ],
      "name": "NewWithdrawal",
      "type": "event"
    },
    {
      "anonymous": false,
      "inputs": [
        {
          "indexed": false,
          "name": "sellToken",
          "type": "address"
        },
        {
          "indexed": false,
          "name": "buyToken",
          "type": "address"
        },
        {
          "indexed": false,
          "name": "user",
          "type": "address"
        },
        {
          "indexed": false,
          "name": "auctionIndex",
          "type": "uint256"
        },
        {
          "indexed": false,
          "name": "amount",
          "type": "uint256"
        }
      ],
      "name": "NewSellOrder",
      "type": "event"
    },
    {
      "anonymous": false,
      "inputs": [
        {
          "indexed": false,
          "name": "sellToken",
          "type": "address"
        },
        {
          "indexed": false,
          "name": "buyToken",
          "type": "address"
        },
        {
          "indexed": false,
          "name": "user",
          "type": "address"
        },
        {
          "indexed": false,
          "name": "auctionIndex",
          "type": "uint256"
        },
        {
          "indexed": false,
          "name": "amount",
          "type": "uint256"
        }
      ],
      "name": "NewBuyOrder",
      "type": "event"
    },
    {
      "anonymous": false,
      "inputs": [
        {
          "indexed": false,
          "name": "sellToken",
          "type": "address"
        },
        {
          "indexed": false,
          "name": "buyToken",
          "type": "address"
        },
        {
          "indexed": false,
          "name": "user",
          "type": "address"
        },
        {
          "indexed": false,
          "name": "auctionIndex",
          "type": "uint256"
        },
        {
          "indexed": false,
          "name": "amount",
          "type": "uint256"
        },
        {
          "indexed": false,
          "name": "tulipsIssued",
          "type": "uint256"
        }
      ],
      "name": "NewSellerFundsClaim",
      "type": "event"
    },
    {
      "anonymous": false,
      "inputs": [
        {
          "indexed": false,
          "name": "sellToken",
          "type": "address"
        },
        {
          "indexed": false,
          "name": "buyToken",
          "type": "address"
        },
        {
          "indexed": false,
          "name": "user",
          "type": "address"
        },
        {
          "indexed": false,
          "name": "auctionIndex",
          "type": "uint256"
        },
        {
          "indexed": false,
          "name": "amount",
          "type": "uint256"
        },
        {
          "indexed": false,
          "name": "tulipsIssued",
          "type": "uint256"
        }
      ],
      "name": "NewBuyerFundsClaim",
      "type": "event"
    },
    {
      "anonymous": false,
      "inputs": [
        {
          "indexed": false,
          "name": "sellToken",
          "type": "address"
        },
        {
          "indexed": false,
          "name": "buyToken",
          "type": "address"
        }
      ],
      "name": "NewTokenPair",
      "type": "event"
    },
    {
      "anonymous": false,
      "inputs": [
        {
          "indexed": false,
          "name": "sellToken",
          "type": "address"
        },
        {
          "indexed": false,
          "name": "buyToken",
          "type": "address"
        },
        {
          "indexed": false,
          "name": "sellVolume",
          "type": "uint256"
        },
        {
          "indexed": false,
          "name": "buyVolume",
          "type": "uint256"
        },
        {
          "indexed": false,
          "name": "auctionIndex",
          "type": "uint256"
        }
      ],
      "name": "AuctionCleared",
      "type": "event"
    },
    {
      "anonymous": false,
      "inputs": [
        {
          "indexed": false,
          "name": "l",
          "type": "string"
        }
      ],
      "name": "Log",
      "type": "event"
    },
    {
      "anonymous": false,
      "inputs": [
        {
          "indexed": false,
          "name": "l",
          "type": "string"
        },
        {
          "indexed": false,
          "name": "n",
          "type": "uint256"
        }
      ],
      "name": "LogNumber",
      "type": "event"
    },
    {
      "constant": false,
      "inputs": [
        {
          "name": "_TUL",
          "type": "address"
        },
        {
          "name": "_OWL",
          "type": "address"
        },
        {
          "name": "_auctioneer",
          "type": "address"
        },
        {
          "name": "_ETH",
          "type": "address"
        },
        {
          "name": "_ETHUSDOracle",
          "type": "address"
        },
        {
          "name": "_thresholdNewTokenPair",
          "type": "uint256"
        },
        {
          "name": "_thresholdNewAuction",
          "type": "uint256"
        }
      ],
      "name": "setupDutchExchange",
      "outputs": [],
      "payable": false,
      "stateMutability": "nonpayable",
      "type": "function"
    },
    {
      "constant": false,
      "inputs": [
        {
          "name": "_auctioneer",
          "type": "address"
        },
        {
          "name": "_ETHUSDOracle",
          "type": "address"
        },
        {
          "name": "_thresholdNewTokenPair",
          "type": "uint256"
        },
        {
          "name": "_thresholdNewAuction",
          "type": "uint256"
        }
      ],
      "name": "updateExchangeParams",
      "outputs": [],
      "payable": false,
      "stateMutability": "nonpayable",
      "type": "function"
    },
    {
      "constant": false,
      "inputs": [
        {
          "name": "token",
          "type": "address"
        },
        {
          "name": "approved",
          "type": "bool"
        }
      ],
      "name": "updateApprovalOfToken",
      "outputs": [],
      "payable": false,
      "stateMutability": "nonpayable",
      "type": "function"
    },
    {
      "constant": false,
      "inputs": [
        {
          "name": "_masterCopy",
          "type": "address"
        }
      ],
      "name": "startMasterCopyCountdown",
      "outputs": [],
      "payable": false,
      "stateMutability": "nonpayable",
      "type": "function"
    },
    {
      "constant": false,
      "inputs": [],
      "name": "updateMasterCopy",
      "outputs": [],
      "payable": false,
      "stateMutability": "nonpayable",
      "type": "function"
    },
    {
      "constant": false,
      "inputs": [
        {
          "name": "token1",
          "type": "address"
        },
        {
          "name": "token2",
          "type": "address"
        },
        {
          "name": "token1Funding",
          "type": "uint256"
        },
        {
          "name": "token2Funding",
          "type": "uint256"
        },
        {
          "name": "initialClosingPriceNum",
          "type": "uint256"
        },
        {
          "name": "initialClosingPriceDen",
          "type": "uint256"
        }
      ],
      "name": "addTokenPair",
      "outputs": [],
      "payable": false,
      "stateMutability": "nonpayable",
      "type": "function"
    },
    {
      "constant": false,
      "inputs": [
        {
          "name": "tokenAddress",
          "type": "address"
        },
        {
          "name": "amount",
          "type": "uint256"
        }
      ],
      "name": "deposit",
      "outputs": [],
      "payable": false,
      "stateMutability": "nonpayable",
      "type": "function"
    },
    {
      "constant": false,
      "inputs": [
        {
          "name": "tokenAddress",
          "type": "address"
        },
        {
          "name": "amount",
          "type": "uint256"
        }
      ],
      "name": "withdraw",
      "outputs": [],
      "payable": false,
      "stateMutability": "nonpayable",
      "type": "function"
    },
    {
      "constant": false,
      "inputs": [
        {
          "name": "sellToken",
          "type": "address"
        },
        {
          "name": "buyToken",
          "type": "address"
        },
        {
          "name": "auctionIndex",
          "type": "uint256"
        },
        {
          "name": "amount",
          "type": "uint256"
        }
      ],
      "name": "postSellOrder",
      "outputs": [],
      "payable": false,
      "stateMutability": "nonpayable",
      "type": "function"
    },
    {
      "constant": false,
      "inputs": [
        {
          "name": "sellToken",
          "type": "address"
        },
        {
          "name": "buyToken",
          "type": "address"
        },
        {
          "name": "auctionIndex",
          "type": "uint256"
        },
        {
          "name": "amount",
          "type": "uint256"
        }
      ],
      "name": "postBuyOrder",
      "outputs": [],
      "payable": false,
      "stateMutability": "nonpayable",
      "type": "function"
    },
    {
      "constant": false,
      "inputs": [
        {
          "name": "sellToken",
          "type": "address"
        },
        {
          "name": "buyToken",
          "type": "address"
        },
        {
          "name": "user",
          "type": "address"
        },
        {
          "name": "auctionIndex",
          "type": "uint256"
        }
      ],
      "name": "claimSellerFunds",
      "outputs": [
        {
          "name": "returned",
          "type": "uint256"
        },
        {
          "name": "tulipsIssued",
          "type": "uint256"
        }
      ],
      "payable": false,
      "stateMutability": "nonpayable",
      "type": "function"
    },
    {
      "constant": false,
      "inputs": [
        {
          "name": "sellToken",
          "type": "address"
        },
        {
          "name": "buyToken",
          "type": "address"
        },
        {
          "name": "user",
          "type": "address"
        },
        {
          "name": "auctionIndex",
          "type": "uint256"
        }
      ],
      "name": "claimBuyerFunds",
      "outputs": [
        {
          "name": "returned",
          "type": "uint256"
        },
        {
          "name": "tulipsIssued",
          "type": "uint256"
        }
      ],
      "payable": false,
      "stateMutability": "nonpayable",
      "type": "function"
    },
    {
      "constant": true,
      "inputs": [
        {
          "name": "sellToken",
          "type": "address"
        },
        {
          "name": "buyToken",
          "type": "address"
        },
        {
          "name": "user",
          "type": "address"
        },
        {
          "name": "auctionIndex",
          "type": "uint256"
        }
      ],
      "name": "getUnclaimedBuyerFunds",
      "outputs": [
        {
          "name": "unclaimedBuyerFunds",
          "type": "uint256"
        },
        {
          "components": [
            {
              "name": "num",
              "type": "uint256"
            },
            {
              "name": "den",
              "type": "uint256"
            }
          ],
          "name": "price",
          "type": "tuple"
        }
      ],
      "payable": false,
      "stateMutability": "view",
      "type": "function"
    },
    {
      "constant": true,
      "inputs": [
        {
          "name": "user",
          "type": "address"
        }
      ],
      "name": "calculateFeeRatio",
      "outputs": [
        {
          "components": [
            {
              "name": "num",
              "type": "uint256"
            },
            {
              "name": "den",
              "type": "uint256"
            }
          ],
          "name": "feeRatio",
          "type": "tuple"
        }
      ],
      "payable": false,
      "stateMutability": "view",
      "type": "function"
    },
    {
      "constant": true,
      "inputs": [
        {
          "name": "sellToken",
          "type": "address"
        },
        {
          "name": "buyToken",
          "type": "address"
        },
        {
          "name": "auctionIndex",
          "type": "uint256"
        }
      ],
      "name": "computeRatioOfHistoricalPriceOracles",
      "outputs": [
        {
          "components": [
            {
              "name": "num",
              "type": "uint256"
            },
            {
              "name": "den",
              "type": "uint256"
            }
          ],
          "name": "price",
          "type": "tuple"
        }
      ],
      "payable": false,
      "stateMutability": "view",
      "type": "function"
    },
    {
      "constant": true,
      "inputs": [
        {
          "name": "token",
          "type": "address"
        },
        {
          "name": "auctionIndex",
          "type": "uint256"
        }
      ],
      "name": "historicalPriceOracle",
      "outputs": [
        {
          "components": [
            {
              "name": "num",
              "type": "uint256"
            },
            {
              "name": "den",
              "type": "uint256"
            }
          ],
          "name": "price",
          "type": "tuple"
        }
      ],
      "payable": false,
      "stateMutability": "view",
      "type": "function"
    },
    {
      "constant": true,
      "inputs": [
        {
          "name": "token",
          "type": "address"
        }
      ],
      "name": "priceOracle",
      "outputs": [
        {
          "components": [
            {
              "name": "num",
              "type": "uint256"
            },
            {
              "name": "den",
              "type": "uint256"
            }
          ],
          "name": "price",
          "type": "tuple"
        }
      ],
      "payable": false,
      "stateMutability": "view",
      "type": "function"
    },
    {
      "constant": true,
      "inputs": [
        {
          "name": "sellToken",
          "type": "address"
        },
        {
          "name": "buyToken",
          "type": "address"
        },
        {
          "name": "auctionIndex",
          "type": "uint256"
        }
      ],
      "name": "getPrice",
      "outputs": [
        {
          "components": [
            {
              "name": "num",
              "type": "uint256"
            },
            {
              "name": "den",
              "type": "uint256"
            }
          ],
          "name": "price",
          "type": "tuple"
        }
      ],
      "payable": false,
      "stateMutability": "view",
      "type": "function"
    },
    {
      "constant": false,
      "inputs": [
        {
          "name": "sellToken",
          "type": "address"
        },
        {
          "name": "buyToken",
          "type": "address"
        },
        {
          "name": "amount",
          "type": "uint256"
        }
      ],
      "name": "depositAndSell",
      "outputs": [],
      "payable": false,
      "stateMutability": "nonpayable",
      "type": "function"
    },
    {
      "constant": false,
      "inputs": [
        {
          "name": "sellToken",
          "type": "address"
        },
        {
          "name": "buyToken",
          "type": "address"
        },
        {
          "name": "user",
          "type": "address"
        },
        {
          "name": "auctionIndex",
          "type": "uint256"
        },
        {
          "name": "amount",
          "type": "uint256"
        }
      ],
      "name": "claimAndWithdraw",
      "outputs": [],
      "payable": false,
      "stateMutability": "nonpayable",
      "type": "function"
    },
    {
      "constant": true,
      "inputs": [
        {
          "name": "token",
          "type": "address"
        }
      ],
      "name": "getPriceOracleForJS",
      "outputs": [
        {
          "name": "",
          "type": "uint256"
        },
        {
          "name": "",
          "type": "uint256"
        }
      ],
      "payable": false,
      "stateMutability": "view",
      "type": "function"
    },
    {
      "constant": true,
      "inputs": [
        {
          "name": "token",
          "type": "address"
        },
        {
          "name": "auctionIndex",
          "type": "uint256"
        }
      ],
      "name": "historicalPriceOracleForJS",
      "outputs": [
        {
          "name": "",
          "type": "uint256"
        },
        {
          "name": "",
          "type": "uint256"
        }
      ],
      "payable": false,
      "stateMutability": "view",
      "type": "function"
    },
    {
      "constant": true,
      "inputs": [
        {
          "name": "tokenA",
          "type": "address"
        },
        {
          "name": "tokenB",
          "type": "address"
        },
        {
          "name": "auctionIndex",
          "type": "uint256"
        }
      ],
      "name": "computeRatioOfHistoricalPriceOraclesForJS",
      "outputs": [
        {
          "name": "",
          "type": "uint256"
        },
        {
          "name": "",
          "type": "uint256"
        }
      ],
      "payable": false,
      "stateMutability": "view",
      "type": "function"
    },
    {
      "constant": true,
      "inputs": [
        {
          "name": "sellToken",
          "type": "address"
        },
        {
          "name": "buyToken",
          "type": "address"
        },
        {
          "name": "auctionIndex",
          "type": "uint256"
        }
      ],
      "name": "getPriceForJS",
      "outputs": [
        {
          "name": "",
          "type": "uint256"
        },
        {
          "name": "",
          "type": "uint256"
        }
      ],
      "payable": false,
      "stateMutability": "view",
      "type": "function"
    },
    {
      "constant": true,
      "inputs": [
        {
          "name": "token1",
          "type": "address"
        },
        {
          "name": "token2",
          "type": "address"
        }
      ],
      "name": "getTokenOrder",
      "outputs": [
        {
          "name": "",
          "type": "address"
        },
        {
          "name": "",
          "type": "address"
        }
      ],
      "payable": false,
      "stateMutability": "pure",
      "type": "function"
    },
    {
      "constant": true,
      "inputs": [
        {
          "name": "token1",
          "type": "address"
        },
        {
          "name": "token2",
          "type": "address"
        }
      ],
      "name": "getAuctionStart",
      "outputs": [
        {
          "name": "auctionStart",
          "type": "uint256"
        }
      ],
      "payable": false,
      "stateMutability": "view",
      "type": "function"
    },
    {
      "constant": true,
      "inputs": [
        {
          "name": "token1",
          "type": "address"
        },
        {
          "name": "token2",
          "type": "address"
        }
      ],
      "name": "getAuctionIndex",
      "outputs": [
        {
          "name": "auctionIndex",
          "type": "uint256"
        }
      ],
      "payable": false,
      "stateMutability": "view",
      "type": "function"
    },
    {
      "constant": true,
      "inputs": [
        {
          "name": "a",
          "type": "uint256"
        },
        {
          "name": "b",
          "type": "uint256"
        }
      ],
      "name": "min",
      "outputs": [
        {
          "name": "",
          "type": "uint256"
        }
      ],
      "payable": false,
      "stateMutability": "pure",
      "type": "function"
    },
    {
      "constant": true,
      "inputs": [
        {
          "name": "a",
          "type": "int256"
        }
      ],
      "name": "atleastZero",
      "outputs": [
        {
          "name": "",
          "type": "uint256"
        }
      ],
      "payable": false,
      "stateMutability": "pure",
      "type": "function"
    }
  ],
  "bytecode": "0x6060604052341561000f57600080fd5b61327f8061001e6000396000f3006060604052600436106102365763ffffffff60e060020a600035041662599e65811461023b57806306d58f2a146102845780630dcc6e58146102b75780630e5b6adf146102f75780631006a41f1461032657806314584a9d1461035d5780632951f1b2146103825780632cef4dac146103a157806330690468146103b457806337775807146103ca5780633819920f146103f957806344b453531461041d57806347e7ef241461043f57806359f96ae5146104615780635e7f22c21461048c5780635ead1527146104b75780635ec2c7bf146104d657806365054e55146104e9578063657a37ad146105175780636d1ea3fa1461053f5780636e6260fa14610572578063708dbed5146105855780637ae2b5c7146105a75780638322fff2146105c0578063883fb15d146105d35780639ed3c90c146105e65780639fec8e96146105f9578063a9dd14d614610628578063acb1035114610650578063ae1ba50d1461068d578063b0293850146106ac578063b3c2083f146106da578063b64c4905146106ff578063b707f6d314610724578063b8beafd61461074c578063ba43fe2814610771578063c1a21bf314610784578063c23f001f146107b3578063d0a89f71146107d8578063dae595e514610800578063df6af7d114610825578063e9f8cd7014610853578063ebcc0de114610884578063ee93114c146108ac578063f3fef3a3146108bf578063f625ee28146108e1578063f79710fd14610900578063f818041914610928578063fac7abe314610953575b600080fd5b341561024657600080fd5b610260600160a060020a0360043581169060243516610978565b604051600160a060020a039283168152911660208201526040908101905180910390f35b341561028f57600080fd5b6102b5600160a060020a03600435811690602435811690604435166064356084356109a1565b005b34156102c257600080fd5b6102df600160a060020a03600435811690602435166044356109c0565b60405191825260208201526040908101905180910390f35b341561030257600080fd5b61030a6109ec565b604051600160a060020a03909116815260200160405180910390f35b341561033157600080fd5b61034b600160a060020a03600435811690602435166109fb565b60405190815260200160405180910390f35b341561036857600080fd5b61034b600160a060020a0360043581169060243516610a18565b341561038d57600080fd5b61034b600160a060020a0360043516610a53565b34156103ac57600080fd5b6102b5610a88565b34156103bf57600080fd5b61034b600435610afa565b34156103d557600080fd5b61034b600160a060020a036004358116906024358116906044359060643516610b14565b341561040457600080fd5b6102b5600160a060020a03600435166024351515610b40565b341561042857600080fd5b6102df600160a060020a0360043516602435610b86565b341561044a57600080fd5b6102b5600160a060020a0360043516602435610bb0565b341561046c57600080fd5b6102b5600160a060020a0360043581169060243516604435606435610c72565b341561049757600080fd5b6102b5600160a060020a0360043581169060243516604435606435610f0a565b34156104c257600080fd5b6102df600160a060020a0360043516611273565b34156104e157600080fd5b61030a61129a565b34156104f457600080fd5b6102df600160a060020a03600435811690602435811690604435166064356112a9565b341561052257600080fd5b6102b5600160a060020a036004358116906024351660443561158e565b341561054a57600080fd5b61055e600160a060020a03600435166115aa565b604051901515815260200160405180910390f35b341561057d57600080fd5b61034b6115bf565b341561059057600080fd5b61034b600160a060020a03600435166024356115c5565b34156105b257600080fd5b61034b60043560243561177c565b34156105cb57600080fd5b61030a611796565b34156105de57600080fd5b61030a6117a5565b34156105f157600080fd5b61055e6117b4565b341561060457600080fd5b61034b600160a060020a0360043581169060243581169060443590606435166117d5565b341561063357600080fd5b61034b600160a060020a0360043581169060243516604435611801565b341561065b57600080fd5b6102b5600160a060020a036004358116906024358116906044358116906064358116906084351660a43560c43561198d565b341561069857600080fd5b61034b600160a060020a0360043516611a5b565b34156106b757600080fd5b6102df600160a060020a0360043581169060243581169060443516606435611b81565b34156106e557600080fd5b61034b600160a060020a03600435811690602435166120e3565b341561070a57600080fd5b61034b600160a060020a0360043581169060243516612100565b341561072f57600080fd5b6102df600160a060020a036004358116906024351660443561211d565b341561075757600080fd5b61034b600160a060020a0360043581169060243516612133565b341561077c57600080fd5b61030a612150565b341561078f57600080fd5b61034b600160a060020a03600435811690602435811690604435906064351661215f565b34156107be57600080fd5b61034b600160a060020a036004358116906024351661218b565b34156107e357600080fd5b61034b600160a060020a03600435811690602435166044356121a8565b341561080b57600080fd5b61034b600160a060020a0360043581169060243516612287565b341561083057600080fd5b6102df600160a060020a03600435811690602435811690604435166064356122c2565b341561085e57600080fd5b6102b5600160a060020a036004358116906024351660443560643560843560a435612388565b341561088f57600080fd5b6102df600160a060020a03600435811690602435166044356126c3565b34156108b757600080fd5b61034b6126ed565b34156108ca57600080fd5b6102b5600160a060020a03600435166024356126f3565b34156108ec57600080fd5b6102b5600160a060020a0360043516612825565b341561090b57600080fd5b61034b600160a060020a036004358116906024351660443561288d565b341561093357600080fd5b6102b5600160a060020a03600435811690602435166044356064356128b0565b341561095e57600080fd5b61034b600160a060020a0360043581169060243516612913565b60008083600160a060020a031683600160a060020a03161015610999579192915b509192909150565b6109ad858585856112a9565b50506109b984826126f3565b5050505050565b6000806109cb61323c565b6109d68686866121a8565b9050805181602001519250925050935093915050565b600854600160a060020a031681565b600c60209081526000928352604080842090915290825290205481565b6000610a248383610978565b600160a060020a039182166000908152600b602090815260408083209390941682529190915220549392505050565b610a5b61323c565b600454600090610a75908490600160a060020a0316610a18565b9050610a8183826115c5565b9392505050565b60035433600160a060020a03908116911614610aa357600080fd5b600154600160a060020a03161515610aba57600080fd5b600254421015610ac957600080fd5b6001546000805473ffffffffffffffffffffffffffffffffffffffff1916600160a060020a03909216919091179055565b600080821215610b0c57506000610b0f565b50805b919050565b601460209081526000948552604080862082529385528385208152918452828420909152825290205481565b60035433600160a060020a03908116911614610b5b57600080fd5b600160a060020a03919091166000908152600a60205260409020805460ff1916911515919091179055565b600080610b9161323c565b610b9b85856115c5565b90508051816020015192509250509250929050565b81600160a060020a03166323b872dd33308460006040516020015260405160e060020a63ffffffff8616028152600160a060020a0393841660048201529190921660248201526044810191909152606401602060405180830381600087803b1515610c1a57600080fd5b6102c65a03f11515610c2b57600080fd5b505050604051805190501515610c4057600080fd5b600160a060020a0391821660009081526011602090815260408083203390951683529390529190912080549091019055565b600160a060020a0380851660009081526011602090815260408083203390941683529290529081205481908190610caa90859061177c565b935060008411610cb957600080fd5b610cc38787610a18565b925060008311610cd257600080fd5b610cdc8787612287565b91508160011480610cec57504282115b15610d5257841515610d0057829450610d0c565b848314610d0c57600080fd5b600160a060020a038088166000908152600e60209081526040808320938a16835292905220546c0c9f2c9cd04674edea4000000090850110610d4d57600080fd5b610db4565b841515610d6457826001019450610d73565b600183018514610d7357600080fd5b600160a060020a038088166000908152600f60209081526040808320938a16835292905220546c0c9f2c9cd04674edea4000000090850110610db457600080fd5b610dc18787873388612930565b600160a060020a03808916600081815260116020908152604080832033861680855290835281842080548c9003905593835260138252808320948c1683529381528382208a83528152838220928252919091522080548201905590506001821480610e2b57504282115b15610e6057600160a060020a038088166000908152600e60209081526040808320938a16835292905220805482019055610e8c565b600160a060020a038088166000908152600f60209081526040808320938a168352929052208054820190555b8160011415610e9f57610e9f8787612b59565b7f3681d6f6ad159bac260c32828859f6df545bbf841c6e70787bcf0acbc390512a8787338885604051600160a060020a0395861681529385166020850152919093166040808401919091526060830193909352608082015260a001905180910390a150505050505050565b6000806000610f1761323c565b600080610f248a8a612287565b600160a060020a03808c166000908152600d60209081526040808320938e1683529281528282208c83529052206001015490965015610f6257600080fd5b42610f6d8b8b612287565b1115610f7857600080fd5b610f828a8a610a18565b8814610f8d57600080fd5b60018611610f9a57600080fd5b600160a060020a03808b166000908152600e60209081526040808320938d1683529290529081205411610fcc57600080fd5b600160a060020a03808b1660009081526010602090815260408083208d85168452825280832054601183528184203390951684529390915290205490955061101590889061177c565b96506c0c9f2c9cd04674edea400000008588011061103257600080fd5b600160a060020a03808b166000908152600e60209081526040808320938d168352929052205493506110658a8a8a611801565b92506110848584602001518551870281151561107d57fe5b0403610afa565b9150818710156110ac5760008711156110a7576110a4898b8a338b612930565b90505b6110b2565b50945084805b60008711156112545786601160008b600160a060020a0316600160a060020a03168152602001908152602001600020600033600160a060020a0316600160a060020a031681526020019081526020016000206000828254039250508190555080601460008c600160a060020a0316600160a060020a0316815260200190815260200160002060008b600160a060020a0316600160a060020a0316815260200190815260200160002060008a8152602001908152602001600020600033600160a060020a0316600160a060020a031681526020019081526020016000206000828254019250508190555080601060008c600160a060020a0316600160a060020a0316815260200190815260200160002060008b600160a060020a0316600160a060020a03168152602001908152602001600020600082825401925050819055507ff1751a362067564d5feb9ed26f1898bb14c17e1254e3724d454bc2ae80195c258a8a338b85604051600160a060020a0395861681529385166020850152919093166040808401919091526060830193909352608082015260a001905180910390a15b818710611267576112678a8a8a87612c9f565b50505050505050505050565b60008061127e61323c565b61128784610a53565b9050805181602001519250925050915091565b600354600160a060020a031681565b60008060006112b661323c565b60008060006112c361323c565b600160a060020a03808d1660009081526013602090815260408083208f8516845282528083208d84528252808320938e168352929052908120549650861161130a57600080fd5b600160a060020a03808d166000908152600d60209081526040808320938f1683529281528282208c83529052819020908051908101604052815481526001909101546020820152945084519350846020015192506000831161136b57600080fd5b8284870281151561137857fe5b600160a060020a038e166000908152600a6020526040902054919004985060ff16151560011480156113c75750600160a060020a038b166000908152600a602052604090205460ff1615156001145b156114a557600454600160a060020a0390811692508c168214156113ed57859650611431565b81600160a060020a03168b600160a060020a0316141561140f57879650611431565b6114198c8a6115c5565b905080602001518151870281151561142d57fe5b0496505b60008711156114a557600854600160a060020a031663f0dda65c8b8960405160e060020a63ffffffff8516028152600160a060020a0390921660048301526024820152604401600060405180830381600087803b151561149057600080fd5b6102c65a03f115156114a157600080fd5b5050505b600160a060020a03808d1660009081526013602090815260408083208f8516845282528083208d84528252808320938e16835292905290812081905588111561151457600160a060020a03808c166000908152601160209081526040808320938e168352929052208054890190555b7fa3ac9b53d029621ef95693b5f9b1d0b0da75029fe8530389271be02715e24c138c8c8c8c8c8c604051600160a060020a0396871681529486166020860152929094166040808501919091526060840191909152608083019390935260a082015260c001905180910390a150505050505094509492505050565b6115988382610bb0565b6115a58383600084610c72565b505050565b600a6020526000908152604090205460ff1681565b60065481565b6115cd61323c565b60008060006115da61323c565b6115e261323c565b600454600160a060020a039081169550881685141561160a5760018087526020870152611771565b6000871161161757600080fd5b60009350600092505b82151561170957600160a060020a038086166000908152600d60209081526040808320938c168352928152828220600019888c030183529052819020600190950194908051908101604090815282548252600190920154602080830191909152600160a060020a03808c166000908152600d8352848120918a168152908252838120888c0382529091528290209093509080519081016040528154815260019091015460208201529050600082511180156116df575060008260200151115b806116fa5750600081511180156116fa575060008160200151115b1561170457600192505b611620565b8151158061171957508160200151155b15611731578051865260208101516020870152611771565b8051158061174157508060200151155b15611759578160200151865281516020870152611771565b80518260200151018652602081015182510160208701525b505050505092915050565b60008183101561178d575081611790565b50805b92915050565b600454600160a060020a031681565b600554600160a060020a031681565b60095474010000000000000000000000000000000000000000900460ff1681565b601560209081526000948552604080862082529385528385208152918452828420909152825290205481565b61180961323c565b61181161323c565b61181961323c565b600160a060020a038087166000908152600d6020908152604080832093891683529281528282208783529052818120909180519081016040528154815260019091015460208201908152909350511561187f578251836020015160208601528452611983565b6118898787610a18565b8511156118a0576000602085018190528452611983565b6118ab8787876121a8565b91506118c16118ba8888612287565b4203610afa565b90506118d4825182620151800302610afa565b8452602082015161a8c08201026020808601918252600160a060020a03808a166000908152601083526040808220928b168252919092529020549051600160a060020a03808a166000908152600e60209081526040808320938c16835292905220549102908551021161198357600160a060020a038088166000818152601060209081526040808320948b16808452948252808320548952928252600e81528282209382529283522054908501525b5050509392505050565b60095474010000000000000000000000000000000000000000900460ff16156119b557600080fd5b6008805473ffffffffffffffffffffffffffffffffffffffff19908116600160a060020a03998a161790915560098054600380548416988b1698909817909755600480548316968a169690961790955560058054821694891694909417909355600691909155600755740100000000000000000000000000000000000000009216929093169190911774ff00000000000000000000000000000000000000001916179055565b611a6361323c565b6008546000908190600160a060020a03166318160ddd82604051602001526040518163ffffffff1660e060020a028152600401602060405180830381600087803b1515611aaf57600080fd5b6102c65a03f11515611ac057600080fd5b50505060405180519250506000821115611b6e57600854600160a060020a03166381a1ac098560006040516020015260405160e060020a63ffffffff8416028152600160a060020a039091166004820152602401602060405180830381600087803b1515611b2d57600080fd5b6102c65a03f11515611b3e57600080fd5b505050604051805190509050611b5881600a028303610afa565b8352613e80810260c88302016020840152611b7a565b6001835260c860208401525b5050919050565b600080611b8c61323c565b6000806000806000611b9c61323c565b611ba88d8d8d8d6122c2565b809850819a505050600d60008e600160a060020a0316600160a060020a0316815260200190815260200160002060008d600160a060020a0316600160a060020a0316815260200190815260200160002060008b81526020019081526020016000206001015495508560001415611ca75788601560008f600160a060020a0316600160a060020a0316815260200190815260200160002060008e600160a060020a0316600160a060020a0316815260200190815260200160002060008c815260200190815260200160002060008d600160a060020a0316600160a060020a0316815260200190815260200160002060008282540192505081905550612033565b601260008e600160a060020a0316600160a060020a0316815260200190815260200160002060008d600160a060020a0316600160a060020a0316815260200190815260200160002060008b8152602001908152602001600020549450601460008e600160a060020a0316600160a060020a0316815260200190815260200160002060008d600160a060020a0316600160a060020a0316815260200190815260200160002060008b815260200190815260200160002060008c600160a060020a0316600160a060020a03168152602001908152602001600020549350600d60008e600160a060020a0316600160a060020a0316815260200190815260200160002060008d600160a060020a0316600160a060020a0316815260200190815260200160002060008b815260200190815260200160002060000154858502811515611deb57fe5b600160a060020a038e166000908152600a6020526040902054919004998a0199935060ff1615156001148015611e3e5750600160a060020a038d166000908152600a602052604090205460ff1615156001145b15611f2e57600454600160a060020a0390811692508c16821415611e6457839750611eba565b81600160a060020a03168d600160a060020a03161415611e9857865187602001518502811515611e9057fe5b049750611eba565b611ea28c8b6115c5565b9050806020015181518502811515611eb657fe5b0497505b6000881115611f2e57600854600160a060020a031663f0dda65c8c8a60405160e060020a63ffffffff8516028152600160a060020a0390921660048301526024820152604401600060405180830381600087803b1515611f1957600080fd5b6102c65a03f11515611f2a57600080fd5b5050505b6000601460008f600160a060020a0316600160a060020a0316815260200190815260200160002060008e600160a060020a0316600160a060020a0316815260200190815260200160002060008c815260200190815260200160002060008d600160a060020a0316600160a060020a03168152602001908152602001600020819055506000601560008f600160a060020a0316600160a060020a0316815260200190815260200160002060008e600160a060020a0316600160a060020a0316815260200190815260200160002060008c815260200190815260200160002060008d600160a060020a0316600160a060020a03168152602001908152602001600020819055505b600089111561206857600160a060020a03808e166000908152601160209081526040808320938f1683529290522080548a0190555b7f4d1c39fd1a9c74f88b9f90c7b439b7e5dc6f26b6ff280fd497fdec5c538aaf528d8d8d8d8d8d604051600160a060020a0396871681529486166020860152929094166040808501919091526060840191909152608083019390935260a082015260c001905180910390a15050505050505094509492505050565b600f60209081526000928352604080842090915290825290205481565b600e60209081526000928352604080842090915290825290205481565b60008061212861323c565b6109d6868686611801565b601060209081526000928352604080842090915290825290205481565b600954600160a060020a031681565b601360209081526000948552604080862082529385528385208152918452828420909152825290205481565b601160209081526000928352604080842090915290825290205481565b6121b061323c565b6121b861323c565b6121c061323c565b6121ca86856115c5565b91506121d685856115c5565b905080602001518251028352805182602001510260208401525b64e8d4a51000835111801561220d575064e8d4a510008360200151115b1561224157620f4240835181151561222157fe5b048352620f4240602084015181151561223657fe5b0460208401526121f0565b6e13426172c74d822b878fe800000000835111158061227357506e13426172c74d822b878fe800000000836020015111155b151561227e57600080fd5b50509392505050565b60006122938383610978565b600160a060020a039182166000908152600c602090815260408083209390941682529190915220549392505050565b60006122cc61323c565b60006122d88787610a18565b8411156122e457600080fd5b6122ef878786611801565b915081511515612302576000925061237e565b50600160a060020a0380871660008181526014602090815260408083208a86168085529083528184208985528352818420958a16808552958352818420549484526015835281842090845282528083208884528252808320948352939052919091205461237b9083518460200151840281151561107d57fe5b92505b5094509492505050565b600080600061239561323c565b61239d61323c565b600160a060020a038b8116908b1614156123b657600080fd5b8615156123c257600080fd5b8515156123ce57600080fd5b6123d88b8b610a18565b156123e257600080fd5b670de0b6b3a764000087106123f657600080fd5b670de0b6b3a7640000861061240a57600080fd5b6124148b8b613002565b600160a060020a03808c1660009081526011602090815260408083203390941683529290522054612446908a9061177c565b600160a060020a03808c166000908152601160209081526040808320339094168352929052205490995061247b90899061177c565b97506c0c9f2c9cd04674edea40000000891061249657600080fd5b6c0c9f2c9cd04674edea4000000088106124af57600080fd5b600554600160a060020a031663a3ca17b26000604051602001526040518163ffffffff1660e060020a028152600401602060405180830381600087803b15156124f757600080fd5b6102c65a03f1151561250857600080fd5b5050506040518051600454909550600160a060020a0390811694508c1684141590506125385783890294506125ca565b82600160a060020a03168a600160a060020a0316141561255c5783880294506125ca565b60006125688c85610a18565b1161257257600080fd5b600061257e8b85610a18565b1161258857600080fd5b6125918b610a53565b915061259c8a610a53565b905083816020015182518a028115156125b157fe5b04836020015184518c028115156125c457fe5b04010294505b6006548510156125d957600080fd5b6040805190810160409081528882526020808301899052600160a060020a03808f166000908152600d8352838120918f1681529082528281208180529091522081518155602082015160019091015550604080519081016040528087815260200188815250600d60008c600160a060020a0316600160a060020a0316815260200190815260200160002060008d600160a060020a0316600160a060020a031681526020019081526020016000206000808152602001908152602001600020600082015181556020820151600190910155506126b68b8b8b8b61303e565b5050505050505050505050565b600d6020908152600093845260408085208252928452828420905282529020805460019091015482565b60075481565b600160a060020a038083166000908152601160209081526040808320339094168352929052205461272590829061177c565b90506000811161273457600080fd5b600160a060020a03808316600081815260116020908152604080832033958616845290915280822080548690039055919263a9059cbb9290918591516020015260405160e060020a63ffffffff8516028152600160a060020a0390921660048301526024820152604401602060405180830381600087803b15156127b757600080fd5b6102c65a03f115156127c857600080fd5b5050506040518051905015156127dd57600080fd5b7f6e2e05fb6a732995d6952d9158ca6b75f11cc6bf5a4af943aa1eb475a249440b8282604051600160a060020a03909216825260208201526040908101905180910390a15050565b60035433600160a060020a0390811691161461284057600080fd5b600160a060020a038116151561285557600080fd5b6001805473ffffffffffffffffffffffffffffffffffffffff1916600160a060020a03929092169190911790554262278d0001600255565b601260209081526000938452604080852082529284528284209052825290205481565b60035433600160a060020a039081169116146128cb57600080fd5b60038054600160a060020a0395861673ffffffffffffffffffffffffffffffffffffffff19918216179091556005805494909516931692909217909255600691909155600755565b600b60209081526000928352604080842090915290825290205481565b600061293a61323c565b60008061294561323c565b60008060006129538a611a5b565b9650866020015187518a0281151561296757fe5b0495506000861115612b4657600554600160a060020a031663a3ca17b26000604051602001526040518163ffffffff1660e060020a028152600401602060405180830381600087803b15156129bb57600080fd5b6102c65a03f115156129cc57600080fd5b5050506040518051905094506129e18d610a53565b93508360200151845187028115156129f557fe5b600954600160a060020a039081166000908152601160209081526040808320339094168352929052205491900493508584029250612a36906002840461177c565b90506000811115612adb5760098054600160a060020a0390811660009081526011602090815260408083203385168452909152908190208054859003905591541690634346c5ac9083905160e060020a63ffffffff84160281526004810191909152602401600060405180830381600087803b1515612ab457600080fd5b6102c65a03f11515612ac557600080fd5b50505081868202811515612ad557fe5b04860395505b85601260008f600160a060020a0316600160a060020a0316815260200190815260200160002060008e600160a060020a0316600160a060020a0316815260200190815260200160002060008d6001018152602001908152602001600020600082825401925050819055505b5050509190940398975050505050505050565b6000612b6361323c565b612b6b61323c565b6005546000908190600160a060020a031663a3ca17b282604051602001526040518163ffffffff1660e060020a028152600401602060405180830381600087803b1515612bb757600080fd5b6102c65a03f11515612bc857600080fd5b505050604051805190509450612bdd87610a53565b9350612be886610a53565b92508360200151858551600160a060020a03808b166000908152600e60209081526040808320938d16835292905220540202811515612c2357fe5b0491508260200151858451600160a060020a03808a166000908152600e60209081526040808320938e16835292905220540202811515612c5f57fe5b04905060075482101580612c7557506007548110155b15612c8c57612c878787610258613196565b612c96565b612c9687876131d2565b50505050505050565b600160a060020a03808516600081815260106020908152604080832094881680845294825280832054600e8352818420858552835281842054958452600d835281842094845293825280832087845290915281206001015491929190808080612d088b8b612287565b93506000881115612d645760408051908101604090815288825260208083018b9052600160a060020a03808f166000908152600d8352838120918f1681529082528281208d825290915220815181556020820151600190910155505b851580612d7657508362015180014210155b80612d815750600085115b15612f9657600160a060020a03808b166000908152601060209081526040808320938f1683529290522054925084158015612dbc5750600086115b15612e4357604080519081016040528084815260200187815250600d60008c600160a060020a0316600160a060020a0316815260200190815260200160002060008d600160a060020a0316600160a060020a0316815260200190815260200160002060008b8152602001908152602001600020600082015181556020820151600190910155505b5050600160a060020a03808a166000818152600f60208181526040808420958e168085529582528084205492825280842094845293815283832054600e8252848420958452949052918120829055909190821115612ec457600160a060020a03808c166000908152600f60209081526040808320938e168352929052908120555b6000871115612ef657600160a060020a03808c166000908152601060209081526040808320938e168352929052908120555b600160a060020a03808b166000908152600e60209081526040808320938f168352929052908120829055811115612f5057600160a060020a03808b166000908152600f60209081526040808320938f168352929052908120555b6000831115612f8257600160a060020a03808b166000908152601060209081526040808320938f168352929052908120555b612f8c8b8b613002565b612f968b8b612b59565b7fb5806f8610464e96807c2b147620cc721c65309647f16cfccdf9fb7bd95152ac8b8b8a8a8d604051600160a060020a0395861681529390941660208401526040808401929092526060830152608082019290925260a001905180910390a15050505050505050505050565b61300c8282610978565b600160a060020a039182166000908152600b602090815260408083209390941682529190915220805460010190555050565b600160a060020a0380851660009081526011602081815260408084203380871680875291845282862080548a90039055958916855292825280842092845291905281208054849003905590819061309c908790879060019088612930565b91506130ac858760013387612930565b600160a060020a038088166000818152600e602081815260408084208c87168086529083528185208a90559282528084208585528252808420879055601380835281852084865283528185206001808752908452828620339098168087529784528286208b9055938552825280842094845293815283832091835290815282822093825292909252902081905590506131488686615460613196565b7f6f4b2adffa0c3e90e47fdcd9d2c36f48b57eb3271dce519997271073dac17be98686604051600160a060020a039283168152911660208201526040908101905180910390a1505050505050565b6131a08383610978565b600160a060020a039182166000908152600c602090815260408083209490931682529290925290204290910190555050565b6131dc8282610978565b600160a060020a038083166000908152600c6020908152604080832093851683529290522054919350915060011461323857600160a060020a038083166000908152600c60209081526040808320938516835292905220600190555b5050565b6040805190810160405260008082526020820152905600a165627a7a72305820f7b16077311bad8532fd8ab28092a5fd6eaeec01feac14b958e6dfcd6d948d050029",
  "source": "pragma solidity ^0.4.19;\n\nimport \"./Tokens/TokenTUL.sol\";\nimport \"@gnosis.pm/owl-token/contracts/TokenOWL.sol\";\nimport \"./Oracle/PriceOracleInterface.sol\";  \n\n/// @title Dutch Exchange - exchange token pairs with the clever mechanism of the dutch auction\n/// @author Alex Herrmann - <alex@gnosis.pm>\n/// @author Dominik Teiml - <dominik@gnosis.pm>\n\ncontract DutchExchange {\n   \n    // The price is a rational number, so we need a concept of a fraction\n    struct fraction {\n        uint num;\n        uint den;\n    }\n\n    struct masterCopyCountdownType {\n        address masterCopy;\n        uint timeWhenAvailable;\n    }\n\n    address masterCopy;\n    masterCopyCountdownType masterCopyCountdown;\n\n    // > Storage\n    address public auctioneer;\n    // Ether ERC-20 token\n    address public ETH;\n    address public ETHUSDOracle;\n    // Minimum required sell funding for adding a new token pair, in USD\n    uint public thresholdNewTokenPair;\n    // Minimum required sell funding for starting antoher auction, in USD\n    uint public thresholdNewAuction;\n    address public TUL;\n    address public OWL;\n    bool public isInitialised;\n\n    // Token => approved\n    // Only tokens approved by auctioneer generate TUL tokens\n    mapping (address => bool) public approvedTokens;\n\n    // For the following two mappings, there is one mapping for each token pair\n    // The order which the tokens should be called is smaller, larger\n    // These variables should never be called directly! They have getters below\n    // Token => Token => index\n    mapping (address => mapping (address => uint)) public latestAuctionIndices;\n    // Token => Token => time\n    mapping (address => mapping (address => uint)) public auctionStarts;\n\n    // Token => Token => auctionIndex => price\n    mapping (address => mapping (address => mapping (uint => fraction))) public closingPrices;\n\n    // Token => Token => amount\n    mapping (address => mapping (address => uint)) public sellVolumesCurrent;\n    // Token => Token => amount\n    mapping (address => mapping (address => uint)) public sellVolumesNext;\n    // Token => Token => amount\n    mapping (address => mapping (address => uint)) public buyVolumes;\n\n    // Token => user => amount\n    // balances stores a user's balance in the DutchX\n    mapping (address => mapping (address => uint)) public balances;\n\n    // Token => Token => auctionIndex => amount\n    mapping (address => mapping (address => mapping (uint => uint))) public extraTokens;\n\n    // Token => Token =>  auctionIndex => user => amount\n    mapping (address => mapping (address => mapping (uint => mapping (address => uint)))) public sellerBalances;\n    mapping (address => mapping (address => mapping (uint => mapping (address => uint)))) public buyerBalances;\n    mapping (address => mapping (address => mapping (uint => mapping (address => uint)))) public claimedAmounts;\n\n    // > Modifiers\n    modifier onlyAuctioneer() {\n        // R1\n        require(msg.sender == auctioneer);\n        _;\n    }\n\n    /// @dev Constructor-Function creates exchange\n    /// @param _TUL - address of TUL ERC-20 token\n    /// @param _OWL - address of OWL ERC-20 token\n    /// @param _auctioneer - auctioneer for managing interfaces\n    /// @param _ETH - address of ETH ERC-20 token\n    /// @param _ETHUSDOracle - address of the oracle contract for fetching feeds\n    /// @param _thresholdNewTokenPair - Minimum required sell funding for adding a new token pair, in USD\n    function setupDutchExchange(\n        address _TUL,\n        address _OWL,\n        address _auctioneer, \n        address _ETH,\n        address _ETHUSDOracle,\n        uint _thresholdNewTokenPair,\n        uint _thresholdNewAuction\n    )\n        public\n    {\n        require(!isInitialised);\n\n        TUL = _TUL;\n        OWL = _OWL;\n        auctioneer = _auctioneer;\n        ETH = _ETH;\n        ETHUSDOracle = _ETHUSDOracle;\n        thresholdNewTokenPair = _thresholdNewTokenPair;\n        thresholdNewAuction = _thresholdNewAuction;\n\n        isInitialised = true;\n    }\n\n    function updateExchangeParams(\n        address _auctioneer,\n        address _ETHUSDOracle,\n        uint _thresholdNewTokenPair,\n        uint _thresholdNewAuction\n    )\n        public\n        onlyAuctioneer()\n    {\n        auctioneer = _auctioneer;\n        ETHUSDOracle = _ETHUSDOracle;\n        thresholdNewTokenPair = _thresholdNewTokenPair;\n        thresholdNewAuction = _thresholdNewAuction;\n    }\n\n    function updateApprovalOfToken(\n        address token,\n        bool approved\n    )\n        public\n        onlyAuctioneer()\n     {   \n        approvedTokens[token] = approved;\n     }\n\n     function startMasterCopyCountdown (\n        address _masterCopy\n     )\n        public\n        onlyAuctioneer()\n    {\n        require(_masterCopy != 0);\n\n        // Update masterCopyCountdown\n        masterCopyCountdown.masterCopy = _masterCopy;\n        masterCopyCountdown.timeWhenAvailable = now + 30 days;\n    }\n\n    function updateMasterCopy()\n        public\n        onlyAuctioneer()\n    {\n        require(address(masterCopyCountdown.masterCopy) != 0);\n        require(now >= masterCopyCountdown.timeWhenAvailable);\n\n        // Update masterCopy\n        masterCopy = masterCopyCountdown.masterCopy;\n    }\n\n    // > addTokenPair()\n    /// @param initialClosingPriceNum initial price will be 2 * initialClosingPrice. This is its numerator\n    /// @param initialClosingPriceDen initial price will be 2 * initialClosingPrice. This is its denominator\n    function addTokenPair(\n        address token1,\n        address token2,\n        uint token1Funding,\n        uint token2Funding,\n        uint initialClosingPriceNum,\n        uint initialClosingPriceDen \n    )\n        public\n    {\n        // R1\n        require(token1 != token2);\n\n        // R2\n        require(initialClosingPriceNum != 0);\n\n        // R3\n        require(initialClosingPriceDen != 0);\n\n        // R4\n        require(getAuctionIndex(token1, token2) == 0);\n\n        // R5: to prevent overflow\n        require(initialClosingPriceNum < 10 ** 18);\n\n        // R6\n        require(initialClosingPriceDen < 10 ** 18);\n\n        setAuctionIndex(token1, token2);\n\n        token1Funding = min(token1Funding, balances[token1][msg.sender]);\n        token2Funding = min(token2Funding, balances[token2][msg.sender]);\n\n        // R7\n        require(token1Funding < 10 ** 30);\n\n        // R8\n        require(token2Funding < 10 ** 30);\n\n        uint fundedValueUSD;\n        uint ETHUSDPrice = PriceOracleInterface(ETHUSDOracle).getUSDETHPrice();\n\n        // Compute fundedValueUSD\n        address ETHmem = ETH;\n        if (token1 == ETHmem) {\n            // C1\n            // MUL: 10^30 * 10^4 = 10^34\n            fundedValueUSD = token1Funding * ETHUSDPrice;\n        } else if (token2 == ETHmem) {\n            // C2\n            // MUL: 10^30 * 10^4 = 10^34\n            fundedValueUSD = token2Funding * ETHUSDPrice;\n        } else {\n            // C3: Neither token is ETH\n            // We require there to exist ETH-Token auctions\n            // R3.1\n            require(getAuctionIndex(token1, ETHmem) > 0);\n\n            // R3.2\n            require(getAuctionIndex(token2, ETHmem) > 0);\n\n            // Price of Token 1\n            fraction memory priceToken1 = priceOracle(token1);\n\n            // Price of Token 2\n            fraction memory priceToken2 = priceOracle(token2);\n\n            // Compute funded value in ETH and USD\n            // 10^30 * 10^30 = 10^60\n            fundedValueUSD = (token1Funding * priceToken1.num / priceToken1.den + \n                token2Funding * priceToken2.num / priceToken2.den) * ETHUSDPrice;\n        }\n\n        // R5\n        require(fundedValueUSD >= thresholdNewTokenPair);\n\n        // Save prices of opposite auctions\n        closingPrices[token1][token2][0] = fraction(initialClosingPriceNum, initialClosingPriceDen);\n        closingPrices[token2][token1][0] = fraction(initialClosingPriceDen, initialClosingPriceNum);\n\n        // Split into two fns because of 16 local-var cap\n        addTokenPair2(token1, token2, token1Funding, token2Funding);\n    }\n\n    // > addTokenPair2()\n    function addTokenPair2 (\n        address token1,\n        address token2,\n        uint token1Funding,\n        uint token2Funding\n    )\n        internal\n    {\n        balances[token1][msg.sender] -= token1Funding;\n        balances[token2][msg.sender] -= token2Funding;\n\n        // Fee mechanism, fees are added to extraTokens\n        uint token1FundingAfterFee = settleFee(token1, token2, 1, msg.sender, token1Funding);\n        uint token2FundingAfterFee = settleFee(token2, token1, 1, msg.sender, token2Funding);\n\n        // Update other variables\n        sellVolumesCurrent[token1][token2] = token1FundingAfterFee;\n        sellVolumesCurrent[token2][token1] = token2FundingAfterFee;\n        sellerBalances[token1][token2][1][msg.sender] = token1FundingAfterFee;\n        sellerBalances[token2][token1][1][msg.sender] = token2FundingAfterFee;\n        \n        setAuctionStart(token1, token2, 6 hours);\n        NewTokenPair(token1, token2);\n    }\n\n    // > deposit()\n    function deposit(\n        address tokenAddress,\n        uint amount\n    )\n        public\n    {\n        // R1\n        require(Token(tokenAddress).transferFrom(msg.sender, this, amount));\n\n        balances[tokenAddress][msg.sender] += amount;\n        // NewDeposit(tokenAddress, amount);\n    }\n\n    // > withdraw()\n    function withdraw(\n        address tokenAddress,\n        uint amount\n    )\n        public\n    {\n        // R1\n        amount = min(amount, balances[tokenAddress][msg.sender]);\n        require(amount > 0);\n\n        balances[tokenAddress][msg.sender] -= amount;\n\n        // R2\n        require(Token(tokenAddress).transfer(msg.sender, amount));\n\n        NewWithdrawal(tokenAddress, amount);\n    }\n\n     // > postSellOrder()\n    function postSellOrder(\n        address sellToken,\n        address buyToken,\n        uint auctionIndex,\n        uint amount\n    )\n        public\n    {\n        // Note: if a user specifies auctionIndex of 0, it\n        // means he is agnostic which auction his sell order goes into\n\n        amount = min(amount, balances[sellToken][msg.sender]);\n\n        // R1\n        require(amount > 0);\n        \n        // R2\n        uint latestAuctionIndex = getAuctionIndex(sellToken, buyToken);\n        require(latestAuctionIndex > 0);\n      \n        // R3\n        uint auctionStart = getAuctionStart(sellToken, buyToken);\n        if (auctionStart == 1 || auctionStart > now) {\n            // C1: We are in the 10 minute buffer period\n            // OR waiting for an auction to receive sufficient sellVolume\n            // Auction has already cleared, and index has been incremented\n            // sell order must use that auction index\n            // R1.1\n            if (auctionIndex == 0) {\n                auctionIndex = latestAuctionIndex;\n            } else {\n                require(auctionIndex == latestAuctionIndex);\n            }\n\n            // R1.2\n            require(sellVolumesCurrent[sellToken][buyToken] + amount < 10 ** 30);\n        } else {\n            // C2\n            // R2.1: Sell orders must go to next auction\n            if (auctionIndex == 0) {\n                auctionIndex = latestAuctionIndex + 1;\n            } else {\n                require(auctionIndex == latestAuctionIndex + 1);\n            }\n\n            // R2.2\n            require(sellVolumesNext[sellToken][buyToken] + amount < 10 ** 30);\n        }\n\n        // Fee mechanism, fees are added to extraTokens\n        uint amountAfterFee = settleFee(sellToken, buyToken, auctionIndex, msg.sender, amount);\n\n        // Update variables\n        balances[sellToken][msg.sender] -= amount;\n        sellerBalances[sellToken][buyToken][auctionIndex][msg.sender] += amountAfterFee;\n        if (auctionStart == 1 || auctionStart > now) {\n            // C1\n            sellVolumesCurrent[sellToken][buyToken] += amountAfterFee;\n        } else {\n            // C2\n            sellVolumesNext[sellToken][buyToken] += amountAfterFee;\n        }\n\n        if (auctionStart == 1) {\n            scheduleNextAuction(sellToken, buyToken);\n        }\n\n        NewSellOrder(sellToken, buyToken, msg.sender, auctionIndex, amountAfterFee);\n    }\n\n    // > postBuyOrder()\n    function postBuyOrder(\n        address sellToken,\n        address buyToken,\n        uint auctionIndex,\n        uint amount\n    )\n        public\n    {\n        uint auctionStart = getAuctionStart(sellToken, buyToken);\n\n        // R1: auction must not have cleared\n        require(closingPrices[sellToken][buyToken][auctionIndex].den == 0);\n\n        // R2\n        require(getAuctionStart(sellToken, buyToken) <= now);\n\n        // R4\n        require(auctionIndex == getAuctionIndex(sellToken, buyToken));\n        \n        // R5: auction must not be in waiting period\n        require(auctionStart > 1);\n        \n        // R6: auction must be funded\n        require(sellVolumesCurrent[sellToken][buyToken] > 0);\n        \n        uint buyVolume = buyVolumes[sellToken][buyToken];\n        amount = min(amount, balances[buyToken][msg.sender]);\n\n        // R7\n        require(buyVolume + amount < 10 ** 30);\n        \n        // Overbuy is when a part of a buy order clears an auction\n        // In that case we only process the part before the overbuy\n        // To calculate overbuy, we first get current price\n        uint sellVolume = sellVolumesCurrent[sellToken][buyToken];\n        fraction memory price = getPrice(sellToken, buyToken, auctionIndex);\n        // 10^30 * 10^39 = 10^69\n        uint outstandingVolume = atleastZero(int(sellVolume * price.num / price.den - buyVolume));\n\n        uint amountAfterFee;\n        if (amount < outstandingVolume) {\n            if (amount > 0) {\n                amountAfterFee = settleFee(buyToken, sellToken, auctionIndex, msg.sender, amount);\n            }\n        } else {\n            amount = outstandingVolume;\n            amountAfterFee = outstandingVolume;\n        }\n\n        // Here we could also use outstandingVolume or amountAfterFee, it doesn't matter\n        if (amount > 0) {\n            // Update variables\n            balances[buyToken][msg.sender] -= amount;\n            buyerBalances[sellToken][buyToken][auctionIndex][msg.sender] += amountAfterFee;\n            buyVolumes[sellToken][buyToken] += amountAfterFee;\n            NewBuyOrder(sellToken, buyToken, msg.sender, auctionIndex, amountAfterFee);\n        }\n\n        // Checking for equality would suffice here. nevertheless:\n        if (amount >= outstandingVolume) {\n            // Clear auction\n            clearAuction(sellToken, buyToken, auctionIndex, sellVolume);\n        }\n    }\n\n    // > claimSellerFunds()\n    function claimSellerFunds(\n        address sellToken,\n        address buyToken,\n        address user,\n        uint auctionIndex\n    )\n        public\n        returns (uint returned, uint tulipsIssued)\n    {\n        uint sellerBalance = sellerBalances[sellToken][buyToken][auctionIndex][user];\n\n        // R1\n        require(sellerBalance > 0);\n\n        // Get closing price for said auction\n        fraction memory closingPrice = closingPrices[sellToken][buyToken][auctionIndex];\n        uint num = closingPrice.num;\n        uint den = closingPrice.den;\n\n        // R2: require auction to have cleared\n        require(den > 0);\n\n        // Calculate return\n        // 10^30 * 10^30 = 10^60\n        returned = sellerBalance * num / den;\n\n        // Get tulips issued based on ETH price of returned tokens\n        if (approvedTokens[sellToken] == true && approvedTokens[buyToken] == true) {\n            address ETHmem = ETH;\n            if (sellToken == ETHmem) {\n                tulipsIssued = sellerBalance;\n            } else if (buyToken == ETHmem) {\n                tulipsIssued = returned;\n            } else {\n                // Neither token is ETH, so we use priceOracle()\n                // priceOracle() depends on latestAuctionIndex\n                // i.e. if a user claims tokens later in the future,\n                // he/she is likely to get slightly different number\n                fraction memory price = historicalPriceOracle(sellToken, auctionIndex);\n                // 10^30 * 10^30 = 10^60\n                tulipsIssued = sellerBalance * price.num / price.den;\n            }\n\n            // Issue TUL\n            if (tulipsIssued > 0) {\n                TokenTUL(TUL).mintTokens(user, tulipsIssued);\n            }\n        }\n\n        // Claim tokens\n        sellerBalances[sellToken][buyToken][auctionIndex][user] = 0;\n        if (returned > 0) {\n            balances[buyToken][user] += returned;\n        }\n        NewSellerFundsClaim(sellToken, buyToken, user, auctionIndex, returned, tulipsIssued);\n    }\n\n    // > claimBuyerFunds()\n    function claimBuyerFunds(\n        address sellToken,\n        address buyToken,\n        address user,\n        uint auctionIndex\n    )\n        public\n        returns (uint returned, uint tulipsIssued)\n    {\n        fraction memory price;\n        (returned, price) = getUnclaimedBuyerFunds(sellToken, buyToken, user, auctionIndex);\n\n        uint den = closingPrices[sellToken][buyToken][auctionIndex].den;\n\n        if (den == 0) {\n            // Auction is running\n            claimedAmounts[sellToken][buyToken][auctionIndex][user] += returned;\n        } else {\n            // Auction has closed\n            // We DON'T want to check for returned > 0, because that would fail if a user claims\n            // intermediate funds & auction clears in same block (he/she would not be able to claim extraTokens)\n\n            // Assign extra sell tokens (this is possible only after auction has cleared,\n            // because buyVolume could still increase before that)\n            uint extraTokensTotal = extraTokens[sellToken][buyToken][auctionIndex];\n            uint buyerBalance = buyerBalances[sellToken][buyToken][auctionIndex][user];\n\n            // closingPrices.num represents buyVolume\n            // 10^30 * 10^30 = 10^60\n            uint tokensExtra = buyerBalance * extraTokensTotal / closingPrices[sellToken][buyToken][auctionIndex].num;\n            returned += tokensExtra;\n \n            if (approvedTokens[buyToken] == true && approvedTokens[sellToken] == true) {\n                address ETHmem = ETH;\n                // Get tulips issued based on ETH price of returned tokens\n                if (buyToken == ETHmem) {\n                    tulipsIssued = buyerBalance;\n                } else if (sellToken == ETHmem) {\n                    // 10^30 * 10^39 = 10^66\n                    tulipsIssued = buyerBalance * price.den / price.num;\n                } else {\n                    // Neither token is ETH, so we use historicalPriceOracle()\n                    fraction memory priceETH = historicalPriceOracle(buyToken, auctionIndex);\n                    // 10^30 * 10^28 = 10^58\n                    tulipsIssued = buyerBalance * priceETH.num / priceETH.den;\n                }\n\n                if (tulipsIssued > 0) {\n                    // Issue TUL\n                    TokenTUL(TUL).mintTokens(user, tulipsIssued);\n                }\n            }\n\n            // Auction has closed\n            // Reset buyerBalances and claimedAmounts\n            buyerBalances[sellToken][buyToken][auctionIndex][user] = 0;\n            claimedAmounts[sellToken][buyToken][auctionIndex][user] = 0; \n        }\n\n        // Claim tokens\n        if (returned > 0) {\n            balances[sellToken][user] += returned;\n        }\n        \n        NewBuyerFundsClaim(sellToken, buyToken, user, auctionIndex, returned, tulipsIssued);\n    }\n\n    // > getUnclaimedBuyerFunds()\n    /// @dev Claim buyer funds for one auction\n    function getUnclaimedBuyerFunds(\n        address sellToken,\n        address buyToken,\n        address user,\n        uint auctionIndex\n    )\n        public\n        view\n        returns (uint unclaimedBuyerFunds, fraction memory price)\n    {\n        // R1: checks if particular auction has ever run\n        require(auctionIndex <= getAuctionIndex(sellToken, buyToken));\n\n        price = getPrice(sellToken, buyToken, auctionIndex);\n\n        if (price.num == 0) {\n            // This should rarely happen - as long as there is >= 1 buy order,\n            // auction will clear before price = 0. So this is just fail-safe\n            unclaimedBuyerFunds = 0;\n        } else {\n            uint buyerBalance = buyerBalances[sellToken][buyToken][auctionIndex][user];\n            // 10^30 * 10^39 = 10^69\n            unclaimedBuyerFunds = atleastZero(int(\n                buyerBalance * price.den / price.num - \n                claimedAmounts[sellToken][buyToken][auctionIndex][user]\n            ));\n        }\n    }\n\n    // > settleFee()\n    function settleFee(\n        address primaryToken,\n        address secondaryToken,\n        uint auctionIndex,\n        address user,\n        uint amount\n    )\n        internal\n        returns (uint amountAfterFee)\n    {\n        fraction memory feeRatio = calculateFeeRatio(user);\n        // 10^30 * 10^40 = 10^70\n        // 10^70 / 10^41 = 10^29\n        uint fee = amount * feeRatio.num / feeRatio.den;\n\n        if (fee > 0) {\n            // Allow user to reduce up to half of the fee with OWL\n            uint ETHUSDPrice = PriceOracleInterface(ETHUSDOracle).getUSDETHPrice();\n            fraction memory price = priceOracle(primaryToken);\n\n            // Convert fee to ETH, then USD\n            // 10^29 * 10^30 / 10^30 = 10^29\n            uint feeInETH = fee * price.num / price.den;\n\n            // 10^29 * 10^4 = 10^33\n            // Uses 18 decimal places <> exactly as OWL tokens: 10**18 OWL == 1 USD \n            uint feeInUSD = feeInETH * ETHUSDPrice;\n            uint amountOfOWLBurned = min(balances[OWL][msg.sender], feeInUSD / 2);\n\n            if (amountOfOWLBurned > 0) {\n                balances[OWL][msg.sender] -= amountOfOWLBurned;\n                TokenOWL(OWL).burnOWL(amountOfOWLBurned);\n\n                // Adjust fee\n                // 10^33 * 10^29 = 10^62\n                fee -= amountOfOWLBurned * fee / feeInUSD;\n            }\n\n            extraTokens[primaryToken][secondaryToken][auctionIndex + 1] += fee;\n        }\n        amountAfterFee = amount - fee;\n    }\n    \n    // > calculateFeeRatio()\n    function calculateFeeRatio(\n        address user\n    )\n        public\n        view\n        // feeRatio < 10^40\n        returns (fraction memory feeRatio)\n    {\n        uint totalTUL = TokenTUL(TUL).totalSupply();\n\n        // The fee function is chosen such that\n        // F(0) = 0.5%, F(1%) = 0.25%, F(>=10%) = 0\n        // (Takes in a amount of user's TUL tokens as ration of all TUL tokens, outputs fee ratio)\n        // We premultiply by amount to get fee:\n        if (totalTUL > 0) {\n            uint balanceOfTUL = TokenTUL(TUL).lockedTULBalances(user);\n            feeRatio.num = atleastZero(int(totalTUL - 10 * balanceOfTUL));\n            feeRatio.den = 16000 * balanceOfTUL + 200 * totalTUL;\n        } else {\n            feeRatio.num = 1;\n            feeRatio.den = 200;\n        }\n    }\n\n    // > clearAuction()\n    /// @dev clears an Auction\n    /// @param sellToken sellToken of the auction\n    /// @param buyToken  buyToken of the auction\n    /// @param auctionIndex of the auction to be cleared.\n    function clearAuction(\n        address sellToken,\n        address buyToken,\n        uint auctionIndex,\n        uint sellVolume\n    )\n        internal\n    {\n        // Get variables\n        uint buyVolume = buyVolumes[sellToken][buyToken];\n        uint sellVolumeOpp = sellVolumesCurrent[buyToken][sellToken];\n        uint closingPriceOppDen = closingPrices[buyToken][sellToken][auctionIndex].den;\n        uint auctionStart = getAuctionStart(sellToken, buyToken);\n\n        // Update closing price\n        if (sellVolume > 0) {\n            closingPrices[sellToken][buyToken][auctionIndex] = fraction(buyVolume, sellVolume);\n        }\n\n        // if (opposite is 0 auction OR price = 0 OR opposite auction cleared)\n        // price = 0 happens if auction pair has been running for >= 24 hrs = 86400\n        if (sellVolumeOpp == 0 || now >= auctionStart + 86400 || closingPriceOppDen > 0) {\n            // Close auction pair\n            uint buyVolumeOpp = buyVolumes[buyToken][sellToken];\n            if (closingPriceOppDen == 0 && sellVolumeOpp > 0) {\n                // Save opposite price\n                closingPrices[buyToken][sellToken][auctionIndex] = fraction(buyVolumeOpp, sellVolumeOpp);\n            }\n\n            uint sellVolumeNext = sellVolumesNext[sellToken][buyToken];\n            uint sellVolumeNextOpp = sellVolumesNext[buyToken][sellToken];\n\n            // Update state variables for both auctions\n            sellVolumesCurrent[sellToken][buyToken] = sellVolumeNext;\n            if (sellVolumeNext > 0) {\n                sellVolumesNext[sellToken][buyToken] = 0;\n            }\n            if (buyVolume > 0) {\n                buyVolumes[sellToken][buyToken] = 0;\n            }\n\n            sellVolumesCurrent[buyToken][sellToken] = sellVolumeNextOpp;\n            if (sellVolumeNextOpp > 0) {\n                sellVolumesNext[buyToken][sellToken] = 0;\n            }\n            if (buyVolumeOpp > 0) {\n                buyVolumes[buyToken][sellToken] = 0;\n            }\n\n            // Increment auction index\n            setAuctionIndex(sellToken, buyToken);\n            // Check if next auction can be scheduled\n            scheduleNextAuction(sellToken, buyToken);\n        }\n\n        AuctionCleared(sellToken, buyToken, sellVolume, buyVolume, auctionIndex);\n    }\n\n    // > scheduleNextAuction()\n    function scheduleNextAuction(\n        address sellToken,\n        address buyToken\n    )\n        internal\n    {\n        // Check if auctions received enough sell orders\n        uint ETHUSDPrice = PriceOracleInterface(ETHUSDOracle).getUSDETHPrice();\n        fraction memory priceTs = priceOracle(sellToken);\n        fraction memory priceTb = priceOracle(buyToken);\n\n        // We use current sell volume, because in clearAuction() we set\n        // sellVolumesCurrent = sellVolumesNext before calling this function\n        // (this is so that we don't need case work,\n        // since it might also be called from postSellOrder())\n\n        // 10^30 * 10^30 * 10^4 = 10^64\n        uint sellVolume = sellVolumesCurrent[sellToken][buyToken] * priceTs.num * ETHUSDPrice / priceTs.den;\n        uint sellVolumeOpp = sellVolumesCurrent[buyToken][sellToken] * priceTb.num * ETHUSDPrice / priceTb.den;\n        if (sellVolume >= thresholdNewAuction || sellVolumeOpp >= thresholdNewAuction) {\n            // Schedule next auction\n            setAuctionStart(sellToken, buyToken, 10 minutes);\n        } else {\n            resetAuctionStart(sellToken, buyToken);\n        }\n    }\n\n    // > computeRatioOfHistoricalPriceOracles()\n    function computeRatioOfHistoricalPriceOracles(\n        address sellToken,\n        address buyToken,\n        uint auctionIndex\n    )\n        public\n        view\n        // price < 10^35\n        returns (fraction memory price)\n    {\n        fraction memory sellTokenPrice = historicalPriceOracle(sellToken, auctionIndex);\n        fraction memory buyTokenPrice = historicalPriceOracle(buyToken, auctionIndex);\n\n        // 10^30 * 10^30 = 10^60\n        price.num = sellTokenPrice.num * buyTokenPrice.den;\n        price.den = sellTokenPrice.den * buyTokenPrice.num;\n\n        while (price.num > 10 ** 12 && price.den > 10 ** 12) {\n            price.num = price.num / 10 ** 6;\n            price.den = price.den / 10 ** 6;\n        }\n\n        // R1\n        require(price.num <= 10 ** 35 || price.den <= 10 ** 35);\n    }\n\n    // > historicalPriceOracle()\n    function historicalPriceOracle(\n        address token,\n        uint auctionIndex\n    )\n        public\n        view\n        // price < 10^30\n        returns (fraction memory price)\n    {\n        address ETHmem = ETH;\n        if (token == ETHmem) {\n            // C1\n            price.num = 1;\n            price.den = 1;\n        } else {\n            // C2\n            // R2.1\n            require(auctionIndex > 0);\n\n            uint i = 0;\n            bool correctPair = false;\n            fraction memory closingPriceETH;\n            fraction memory closingPriceToken;\n\n            while (!correctPair) {\n                i++;\n                closingPriceETH = closingPrices[ETHmem][token][auctionIndex - i];\n                closingPriceToken = closingPrices[token][ETHmem][auctionIndex - i];\n                \n                if (closingPriceETH.num > 0 && closingPriceETH.den > 0 || \n                    closingPriceToken.num > 0 && closingPriceToken.den > 0)\n                {\n                    correctPair = true;\n                }\n            }\n\n            // At this point at least one closing price is strictly positive\n            // If only one is positive, we want to output that\n            if (closingPriceETH.num == 0 || closingPriceETH.den == 0) {\n                price.num = closingPriceToken.num;\n                price.den = closingPriceToken.den;\n            } else if (closingPriceToken.num == 0 || closingPriceToken.den == 0) {\n                price.num = closingPriceETH.den;\n                price.den = closingPriceETH.num;\n            } else {\n                // If both prices are positive, output weighted average\n                price.num = closingPriceETH.den + closingPriceToken.num;\n                price.den = closingPriceETH.num + closingPriceToken.den;\n            }\n        } \n    }\n\n    // > priceOracle()\n    /// @dev Gives best estimate for market price of a token in ETH of any price oracle on the Ethereum network\n    /// @param token address of ERC-20 token\n    /// @return Weighted average of closing prices of opposite Token-ETH auctions, based on their sellVolume  \n    function priceOracle(\n        address token\n    )\n        public\n        view\n        // price < 10^30\n        returns (fraction memory price)\n    {\n        uint latestAuctionIndex = getAuctionIndex(token, ETH);\n        // historicalPriceOracle < 10^30\n        price = historicalPriceOracle(token, latestAuctionIndex);\n    }\n\n    // > getPrice()\n    function getPrice(\n        address sellToken,\n        address buyToken,\n        uint auctionIndex\n    )\n        public\n        view\n        // price < 10^39\n        returns (fraction memory price)\n    {\n        fraction memory closingPrice = closingPrices[sellToken][buyToken][auctionIndex];\n\n        if (closingPrice.den != 0) {\n            // Auction has closed\n            (price.num, price.den) = (closingPrice.num, closingPrice.den);\n        } else if (auctionIndex > getAuctionIndex(sellToken, buyToken)) {\n            (price.num, price.den) = (0, 0);\n        } else {\n            // Auction is running\n            fraction memory ratioOfPriceOracles = computeRatioOfHistoricalPriceOracles(sellToken, buyToken, auctionIndex);\n\n            // If we're calling the function into an unstarted auction,\n            // it will return the starting price of that auction\n            uint timeElapsed = atleastZero(int(now - getAuctionStart(sellToken, buyToken)));\n\n            // The numbers below are chosen such that\n            // P(0 hrs) = 2 * lastClosingPrice, P(6 hrs) = lastClosingPrice, P(>=24 hrs) = 0\n\n            // 10^4 * 10^35 = 10^39\n            price.num = atleastZero(int((86400 - timeElapsed) * ratioOfPriceOracles.num));\n            // 10^4 * 10^35 = 10^39\n            price.den = (timeElapsed + 43200) * ratioOfPriceOracles.den;\n\n            if (price.num * sellVolumesCurrent[sellToken][buyToken] <= price.den * buyVolumes[sellToken][buyToken]) {\n                price.num = buyVolumes[sellToken][buyToken];\n                price.den = sellVolumesCurrent[sellToken][buyToken];\n            }\n        }\n    }\n\n    // > depositAndSell()\n    function depositAndSell(\n        address sellToken,\n        address buyToken,\n        uint amount\n    )\n        public\n    {\n        deposit(sellToken, amount);\n        postSellOrder(sellToken, buyToken, 0, amount);\n    }\n\n    // > claimAndWithdraw()\n    function claimAndWithdraw(\n        address sellToken,\n        address buyToken,\n        address user,\n        uint auctionIndex,\n        uint amount\n    )\n        public\n    {\n        claimSellerFunds(sellToken, buyToken, user, auctionIndex);\n        withdraw(buyToken, amount);\n    }\n\n    // > testing fns\n\n    // > getPriceOracleForJs()\n    function getPriceOracleForJS(\n        address token\n    )\n    public\n    view\n    returns (uint, uint) \n    {\n        fraction memory price = priceOracle(token);\n        return (price.num, price.den);\n    }\n\n    // > historicalPriceOracleForJs()\n    function historicalPriceOracleForJS(\n        address token,\n        uint auctionIndex\n    )\n    public\n    constant\n    returns (uint, uint) \n    {\n        fraction memory price = historicalPriceOracle(token, auctionIndex);\n        return (price.num, price.den);\n    }\n\n     // > getPriceOracleForJs()\n    function computeRatioOfHistoricalPriceOraclesForJS(\n        address tokenA,\n        address tokenB,\n        uint auctionIndex\n    )\n    public\n    constant\n    returns (uint, uint) \n    {\n        fraction memory price = computeRatioOfHistoricalPriceOracles(tokenA, tokenB, auctionIndex);\n        return (price.num, price.den);\n    }\n\n    // > getPriceForJs()\n    function getPriceForJS(\n        address sellToken,\n        address buyToken,\n        uint auctionIndex\n    )\n    public\n    view\n    returns (uint, uint) \n    {\n        fraction memory price = getPrice(sellToken, buyToken, auctionIndex);\n        return (price.num, price.den);\n    }\n\n    // > helper fns\n    function getTokenOrder(\n        address token1,\n        address token2\n    )\n        public\n        pure\n        returns (address, address)\n    {\n        if (token2 < token1) {\n            (token1, token2) = (token2, token1);\n        }\n\n        return (token1, token2);\n    }\n\n    function setAuctionStart(\n        address token1,\n        address token2,\n        uint value\n    )\n        internal\n    {\n        (token1, token2) = getTokenOrder(token1, token2);\n        auctionStarts[token1][token2] = now + value;\n    }\n\n    function resetAuctionStart(\n        address token1,\n        address token2\n    )\n        internal\n    {\n        (token1, token2) = getTokenOrder(token1, token2);\n        if (auctionStarts[token1][token2] != 1) {\n            auctionStarts[token1][token2] = 1;\n        }\n    }\n\n    function getAuctionStart(\n        address token1,\n        address token2\n    )\n        public\n        view\n        returns (uint auctionStart)\n    {\n        (token1, token2) = getTokenOrder(token1, token2);\n        auctionStart = auctionStarts[token1][token2];\n    }\n\n    function setAuctionIndex(\n        address token1,\n        address token2\n    )\n        internal\n    {\n        (token1, token2) = getTokenOrder(token1, token2);\n        latestAuctionIndices[token1][token2] += 1;\n    }\n\n\n    function getAuctionIndex(\n        address token1,\n        address token2\n    )\n        public\n        view\n        returns (uint auctionIndex) \n    {\n        (token1, token2) = getTokenOrder(token1, token2);\n        auctionIndex = latestAuctionIndices[token1][token2];\n    }\n\n    // > Math fns\n    function min(uint a, uint b) \n        public\n        pure\n        returns (uint)\n    {\n        if (a < b) {\n            return a;\n        } else {\n            return b;\n        }\n    }\n\n    function atleastZero(int a)\n        public\n        pure\n        returns (uint)\n    {\n        if (a < 0) {\n            return 0;\n        } else {\n            return uint(a);\n        }\n    }\n\n    // > Events\n    event NewDeposit(\n         address token,\n         uint amount\n    );\n\n    event NewWithdrawal(\n        address token,\n        uint amount\n    );\n    \n    event NewSellOrder(\n        address sellToken,\n        address buyToken,\n        address user,\n        uint auctionIndex,\n        uint amount\n    );\n\n    event NewBuyOrder(\n        address sellToken,\n        address buyToken,\n        address user,\n        uint auctionIndex,\n        uint amount\n    );\n\n    event NewSellerFundsClaim(\n        address sellToken,\n        address buyToken,\n        address user,\n        uint auctionIndex,\n        uint amount,\n        uint tulipsIssued\n    );\n\n    event NewBuyerFundsClaim(\n        address sellToken,\n        address buyToken,\n        address user,\n        uint auctionIndex,\n        uint amount,\n        uint tulipsIssued\n    );\n\n    event NewTokenPair(\n        address sellToken,\n        address buyToken\n    );\n\n    event AuctionCleared(\n        address sellToken,\n        address buyToken,\n        uint sellVolume,\n        uint buyVolume,\n        uint auctionIndex\n    );\n\n    event Log(\n        string l\n    );\n\n    event LogNumber(\n        string l,\n        uint n\n    );\n}",
  "sourcePath": "/home/josojo/gnosis/dutch-exchange/contracts/DutchExchange.sol",
  "compiler": {
    "name": "solc",
    "version": "0.4.19+commit.c4cbbb05.Emscripten.clang"
  },
  "schemaVersion": "1.0.1",
  "updatedAt": "2018-02-08T13:12:48.192Z"
}