{
  "contractName": "InternalTests",
  "abi": [
    {
      "constant": true,
      "inputs": [
        {
          "name": "token1",
          "type": "address"
        },
        {
          "name": "token2",
          "type": "address"
        }
      ],
      "name": "getTokenOrder",
      "outputs": [
        {
          "name": "",
          "type": "address"
        },
        {
          "name": "",
          "type": "address"
        }
      ],
      "payable": false,
      "stateMutability": "pure",
      "type": "function"
    },
    {
      "constant": false,
      "inputs": [
        {
          "name": "sellToken",
          "type": "address"
        },
        {
          "name": "buyToken",
          "type": "address"
        },
        {
          "name": "user",
          "type": "address"
        },
        {
          "name": "auctionIndex",
          "type": "uint256"
        },
        {
          "name": "amount",
          "type": "uint256"
        }
      ],
      "name": "claimAndWithdraw",
      "outputs": [],
      "payable": false,
      "stateMutability": "nonpayable",
      "type": "function"
    },
    {
      "constant": true,
      "inputs": [
        {
          "name": "tokenA",
          "type": "address"
        },
        {
          "name": "tokenB",
          "type": "address"
        },
        {
          "name": "auctionIndex",
          "type": "uint256"
        }
      ],
      "name": "computeRatioOfHistoricalPriceOraclesForJS",
      "outputs": [
        {
          "name": "",
          "type": "uint256"
        },
        {
          "name": "",
          "type": "uint256"
        }
      ],
      "payable": false,
      "stateMutability": "view",
      "type": "function"
    },
    {
      "constant": true,
      "inputs": [],
      "name": "TUL",
      "outputs": [
        {
          "name": "",
          "type": "address"
        }
      ],
      "payable": false,
      "stateMutability": "view",
      "type": "function"
    },
    {
      "constant": true,
      "inputs": [
        {
          "name": "",
          "type": "address"
        },
        {
          "name": "",
          "type": "address"
        }
      ],
      "name": "auctionStarts",
      "outputs": [
        {
          "name": "",
          "type": "uint256"
        }
      ],
      "payable": false,
      "stateMutability": "view",
      "type": "function"
    },
    {
      "constant": true,
      "inputs": [
        {
          "name": "token1",
          "type": "address"
        },
        {
          "name": "token2",
          "type": "address"
        }
      ],
      "name": "getAuctionIndex",
      "outputs": [
        {
          "name": "auctionIndex",
          "type": "uint256"
        }
      ],
      "payable": false,
      "stateMutability": "view",
      "type": "function"
    },
    {
      "constant": true,
      "inputs": [
        {
          "name": "token",
          "type": "address"
        }
      ],
      "name": "priceOracle",
      "outputs": [
        {
          "components": [
            {
              "name": "num",
              "type": "uint256"
            },
            {
              "name": "den",
              "type": "uint256"
            }
          ],
          "name": "price",
          "type": "tuple"
        }
      ],
      "payable": false,
      "stateMutability": "view",
      "type": "function"
    },
    {
      "constant": false,
      "inputs": [],
      "name": "updateMasterCopy",
      "outputs": [],
      "payable": false,
      "stateMutability": "nonpayable",
      "type": "function"
    },
    {
      "constant": true,
      "inputs": [
        {
          "name": "a",
          "type": "int256"
        }
      ],
      "name": "atleastZero",
      "outputs": [
        {
          "name": "",
          "type": "uint256"
        }
      ],
      "payable": false,
      "stateMutability": "pure",
      "type": "function"
    },
    {
      "constant": true,
      "inputs": [
        {
          "name": "",
          "type": "address"
        },
        {
          "name": "",
          "type": "address"
        },
        {
          "name": "",
          "type": "uint256"
        },
        {
          "name": "",
          "type": "address"
        }
      ],
      "name": "buyerBalances",
      "outputs": [
        {
          "name": "",
          "type": "uint256"
        }
      ],
      "payable": false,
      "stateMutability": "view",
      "type": "function"
    },
    {
      "constant": false,
      "inputs": [
        {
          "name": "token",
          "type": "address"
        },
        {
          "name": "approved",
          "type": "bool"
        }
      ],
      "name": "updateApprovalOfToken",
      "outputs": [],
      "payable": false,
      "stateMutability": "nonpayable",
      "type": "function"
    },
    {
      "constant": true,
      "inputs": [
        {
          "name": "token",
          "type": "address"
        },
        {
          "name": "auctionIndex",
          "type": "uint256"
        }
      ],
      "name": "historicalPriceOracleForJS",
      "outputs": [
        {
          "name": "",
          "type": "uint256"
        },
        {
          "name": "",
          "type": "uint256"
        }
      ],
      "payable": false,
      "stateMutability": "view",
      "type": "function"
    },
    {
      "constant": false,
      "inputs": [
        {
          "name": "tokenAddress",
          "type": "address"
        },
        {
          "name": "amount",
          "type": "uint256"
        }
      ],
      "name": "deposit",
      "outputs": [],
      "payable": false,
      "stateMutability": "nonpayable",
      "type": "function"
    },
    {
      "constant": false,
      "inputs": [
        {
          "name": "sellToken",
          "type": "address"
        },
        {
          "name": "buyToken",
          "type": "address"
        },
        {
          "name": "auctionIndex",
          "type": "uint256"
        },
        {
          "name": "amount",
          "type": "uint256"
        }
      ],
      "name": "postSellOrder",
      "outputs": [],
      "payable": false,
      "stateMutability": "nonpayable",
      "type": "function"
    },
    {
      "constant": false,
      "inputs": [
        {
          "name": "sellToken",
          "type": "address"
        },
        {
          "name": "buyToken",
          "type": "address"
        },
        {
          "name": "auctionIndex",
          "type": "uint256"
        },
        {
          "name": "amount",
          "type": "uint256"
        }
      ],
      "name": "postBuyOrder",
      "outputs": [],
      "payable": false,
      "stateMutability": "nonpayable",
      "type": "function"
    },
    {
      "constant": true,
      "inputs": [
        {
          "name": "token",
          "type": "address"
        }
      ],
      "name": "getPriceOracleForJS",
      "outputs": [
        {
          "name": "",
          "type": "uint256"
        },
        {
          "name": "",
          "type": "uint256"
        }
      ],
      "payable": false,
      "stateMutability": "view",
      "type": "function"
    },
    {
      "constant": true,
      "inputs": [],
      "name": "auctioneer",
      "outputs": [
        {
          "name": "",
          "type": "address"
        }
      ],
      "payable": false,
      "stateMutability": "view",
      "type": "function"
    },
    {
      "constant": false,
      "inputs": [
        {
          "name": "sellToken",
          "type": "address"
        },
        {
          "name": "buyToken",
          "type": "address"
        },
        {
          "name": "user",
          "type": "address"
        },
        {
          "name": "auctionIndex",
          "type": "uint256"
        }
      ],
      "name": "claimSellerFunds",
      "outputs": [
        {
          "name": "returned",
          "type": "uint256"
        },
        {
          "name": "tulipsIssued",
          "type": "uint256"
        }
      ],
      "payable": false,
      "stateMutability": "nonpayable",
      "type": "function"
    },
    {
      "constant": false,
      "inputs": [
        {
          "name": "sellToken",
          "type": "address"
        },
        {
          "name": "buyToken",
          "type": "address"
        },
        {
          "name": "amount",
          "type": "uint256"
        }
      ],
      "name": "depositAndSell",
      "outputs": [],
      "payable": false,
      "stateMutability": "nonpayable",
      "type": "function"
    },
    {
      "constant": true,
      "inputs": [
        {
          "name": "",
          "type": "address"
        }
      ],
      "name": "approvedTokens",
      "outputs": [
        {
          "name": "",
          "type": "bool"
        }
      ],
      "payable": false,
      "stateMutability": "view",
      "type": "function"
    },
    {
      "constant": true,
      "inputs": [],
      "name": "thresholdNewTokenPair",
      "outputs": [
        {
          "name": "",
          "type": "uint256"
        }
      ],
      "payable": false,
      "stateMutability": "view",
      "type": "function"
    },
    {
      "constant": true,
      "inputs": [
        {
          "name": "token",
          "type": "address"
        },
        {
          "name": "auctionIndex",
          "type": "uint256"
        }
      ],
      "name": "historicalPriceOracle",
      "outputs": [
        {
          "components": [
            {
              "name": "num",
              "type": "uint256"
            },
            {
              "name": "den",
              "type": "uint256"
            }
          ],
          "name": "price",
          "type": "tuple"
        }
      ],
      "payable": false,
      "stateMutability": "view",
      "type": "function"
    },
    {
      "constant": true,
      "inputs": [
        {
          "name": "a",
          "type": "uint256"
        },
        {
          "name": "b",
          "type": "uint256"
        }
      ],
      "name": "min",
      "outputs": [
        {
          "name": "",
          "type": "uint256"
        }
      ],
      "payable": false,
      "stateMutability": "pure",
      "type": "function"
    },
    {
      "constant": true,
      "inputs": [],
      "name": "ETH",
      "outputs": [
        {
          "name": "",
          "type": "address"
        }
      ],
      "payable": false,
      "stateMutability": "view",
      "type": "function"
    },
    {
      "constant": true,
      "inputs": [],
      "name": "ETHUSDOracle",
      "outputs": [
        {
          "name": "",
          "type": "address"
        }
      ],
      "payable": false,
      "stateMutability": "view",
      "type": "function"
    },
    {
      "constant": true,
      "inputs": [],
      "name": "isInitialised",
      "outputs": [
        {
          "name": "",
          "type": "bool"
        }
      ],
      "payable": false,
      "stateMutability": "view",
      "type": "function"
    },
    {
      "constant": true,
      "inputs": [
        {
          "name": "",
          "type": "address"
        },
        {
          "name": "",
          "type": "address"
        },
        {
          "name": "",
          "type": "uint256"
        },
        {
          "name": "",
          "type": "address"
        }
      ],
      "name": "claimedAmounts",
      "outputs": [
        {
          "name": "",
          "type": "uint256"
        }
      ],
      "payable": false,
      "stateMutability": "view",
      "type": "function"
    },
    {
      "constant": true,
      "inputs": [
        {
          "name": "sellToken",
          "type": "address"
        },
        {
          "name": "buyToken",
          "type": "address"
        },
        {
          "name": "auctionIndex",
          "type": "uint256"
        }
      ],
      "name": "getPrice",
      "outputs": [
        {
          "components": [
            {
              "name": "num",
              "type": "uint256"
            },
            {
              "name": "den",
              "type": "uint256"
            }
          ],
          "name": "price",
          "type": "tuple"
        }
      ],
      "payable": false,
      "stateMutability": "view",
      "type": "function"
    },
    {
      "constant": false,
      "inputs": [
        {
          "name": "_TUL",
          "type": "address"
        },
        {
          "name": "_OWL",
          "type": "address"
        },
        {
          "name": "_auctioneer",
          "type": "address"
        },
        {
          "name": "_ETH",
          "type": "address"
        },
        {
          "name": "_ETHUSDOracle",
          "type": "address"
        },
        {
          "name": "_thresholdNewTokenPair",
          "type": "uint256"
        },
        {
          "name": "_thresholdNewAuction",
          "type": "uint256"
        }
      ],
      "name": "setupDutchExchange",
      "outputs": [],
      "payable": false,
      "stateMutability": "nonpayable",
      "type": "function"
    },
    {
      "constant": true,
      "inputs": [
        {
          "name": "user",
          "type": "address"
        }
      ],
      "name": "calculateFeeRatio",
      "outputs": [
        {
          "components": [
            {
              "name": "num",
              "type": "uint256"
            },
            {
              "name": "den",
              "type": "uint256"
            }
          ],
          "name": "feeRatio",
          "type": "tuple"
        }
      ],
      "payable": false,
      "stateMutability": "view",
      "type": "function"
    },
    {
      "constant": false,
      "inputs": [
        {
          "name": "sellToken",
          "type": "address"
        },
        {
          "name": "buyToken",
          "type": "address"
        },
        {
          "name": "user",
          "type": "address"
        },
        {
          "name": "auctionIndex",
          "type": "uint256"
        }
      ],
      "name": "claimBuyerFunds",
      "outputs": [
        {
          "name": "returned",
          "type": "uint256"
        },
        {
          "name": "tulipsIssued",
          "type": "uint256"
        }
      ],
      "payable": false,
      "stateMutability": "nonpayable",
      "type": "function"
    },
    {
      "constant": true,
      "inputs": [
        {
          "name": "",
          "type": "address"
        },
        {
          "name": "",
          "type": "address"
        }
      ],
      "name": "sellVolumesNext",
      "outputs": [
        {
          "name": "",
          "type": "uint256"
        }
      ],
      "payable": false,
      "stateMutability": "view",
      "type": "function"
    },
    {
      "constant": true,
      "inputs": [
        {
          "name": "",
          "type": "address"
        },
        {
          "name": "",
          "type": "address"
        }
      ],
      "name": "sellVolumesCurrent",
      "outputs": [
        {
          "name": "",
          "type": "uint256"
        }
      ],
      "payable": false,
      "stateMutability": "view",
      "type": "function"
    },
    {
      "constant": true,
      "inputs": [
        {
          "name": "sellToken",
          "type": "address"
        },
        {
          "name": "buyToken",
          "type": "address"
        },
        {
          "name": "auctionIndex",
          "type": "uint256"
        }
      ],
      "name": "getPriceForJS",
      "outputs": [
        {
          "name": "",
          "type": "uint256"
        },
        {
          "name": "",
          "type": "uint256"
        }
      ],
      "payable": false,
      "stateMutability": "view",
      "type": "function"
    },
    {
      "constant": true,
      "inputs": [
        {
          "name": "",
          "type": "address"
        },
        {
          "name": "",
          "type": "address"
        }
      ],
      "name": "buyVolumes",
      "outputs": [
        {
          "name": "",
          "type": "uint256"
        }
      ],
      "payable": false,
      "stateMutability": "view",
      "type": "function"
    },
    {
      "constant": true,
      "inputs": [],
      "name": "OWL",
      "outputs": [
        {
          "name": "",
          "type": "address"
        }
      ],
      "payable": false,
      "stateMutability": "view",
      "type": "function"
    },
    {
      "constant": true,
      "inputs": [
        {
          "name": "",
          "type": "address"
        },
        {
          "name": "",
          "type": "address"
        },
        {
          "name": "",
          "type": "uint256"
        },
        {
          "name": "",
          "type": "address"
        }
      ],
      "name": "sellerBalances",
      "outputs": [
        {
          "name": "",
          "type": "uint256"
        }
      ],
      "payable": false,
      "stateMutability": "view",
      "type": "function"
    },
    {
      "constant": true,
      "inputs": [
        {
          "name": "",
          "type": "address"
        },
        {
          "name": "",
          "type": "address"
        }
      ],
      "name": "balances",
      "outputs": [
        {
          "name": "",
          "type": "uint256"
        }
      ],
      "payable": false,
      "stateMutability": "view",
      "type": "function"
    },
    {
      "constant": true,
      "inputs": [
        {
          "name": "sellToken",
          "type": "address"
        },
        {
          "name": "buyToken",
          "type": "address"
        },
        {
          "name": "auctionIndex",
          "type": "uint256"
        }
      ],
      "name": "computeRatioOfHistoricalPriceOracles",
      "outputs": [
        {
          "components": [
            {
              "name": "num",
              "type": "uint256"
            },
            {
              "name": "den",
              "type": "uint256"
            }
          ],
          "name": "price",
          "type": "tuple"
        }
      ],
      "payable": false,
      "stateMutability": "view",
      "type": "function"
    },
    {
      "constant": true,
      "inputs": [
        {
          "name": "token1",
          "type": "address"
        },
        {
          "name": "token2",
          "type": "address"
        }
      ],
      "name": "getAuctionStart",
      "outputs": [
        {
          "name": "auctionStart",
          "type": "uint256"
        }
      ],
      "payable": false,
      "stateMutability": "view",
      "type": "function"
    },
    {
      "constant": true,
      "inputs": [
        {
          "name": "sellToken",
          "type": "address"
        },
        {
          "name": "buyToken",
          "type": "address"
        },
        {
          "name": "user",
          "type": "address"
        },
        {
          "name": "auctionIndex",
          "type": "uint256"
        }
      ],
      "name": "getUnclaimedBuyerFunds",
      "outputs": [
        {
          "name": "unclaimedBuyerFunds",
          "type": "uint256"
        },
        {
          "components": [
            {
              "name": "num",
              "type": "uint256"
            },
            {
              "name": "den",
              "type": "uint256"
            }
          ],
          "name": "price",
          "type": "tuple"
        }
      ],
      "payable": false,
      "stateMutability": "view",
      "type": "function"
    },
    {
      "constant": false,
      "inputs": [
        {
          "name": "token1",
          "type": "address"
        },
        {
          "name": "token2",
          "type": "address"
        },
        {
          "name": "token1Funding",
          "type": "uint256"
        },
        {
          "name": "token2Funding",
          "type": "uint256"
        },
        {
          "name": "initialClosingPriceNum",
          "type": "uint256"
        },
        {
          "name": "initialClosingPriceDen",
          "type": "uint256"
        }
      ],
      "name": "addTokenPair",
      "outputs": [],
      "payable": false,
      "stateMutability": "nonpayable",
      "type": "function"
    },
    {
      "constant": true,
      "inputs": [
        {
          "name": "",
          "type": "address"
        },
        {
          "name": "",
          "type": "address"
        },
        {
          "name": "",
          "type": "uint256"
        }
      ],
      "name": "closingPrices",
      "outputs": [
        {
          "name": "num",
          "type": "uint256"
        },
        {
          "name": "den",
          "type": "uint256"
        }
      ],
      "payable": false,
      "stateMutability": "view",
      "type": "function"
    },
    {
      "constant": true,
      "inputs": [],
      "name": "thresholdNewAuction",
      "outputs": [
        {
          "name": "",
          "type": "uint256"
        }
      ],
      "payable": false,
      "stateMutability": "view",
      "type": "function"
    },
    {
      "constant": false,
      "inputs": [
        {
          "name": "tokenAddress",
          "type": "address"
        },
        {
          "name": "amount",
          "type": "uint256"
        }
      ],
      "name": "withdraw",
      "outputs": [],
      "payable": false,
      "stateMutability": "nonpayable",
      "type": "function"
    },
    {
      "constant": false,
      "inputs": [
        {
          "name": "_masterCopy",
          "type": "address"
        }
      ],
      "name": "startMasterCopyCountdown",
      "outputs": [],
      "payable": false,
      "stateMutability": "nonpayable",
      "type": "function"
    },
    {
      "constant": true,
      "inputs": [
        {
          "name": "",
          "type": "address"
        },
        {
          "name": "",
          "type": "address"
        },
        {
          "name": "",
          "type": "uint256"
        }
      ],
      "name": "extraTokens",
      "outputs": [
        {
          "name": "",
          "type": "uint256"
        }
      ],
      "payable": false,
      "stateMutability": "view",
      "type": "function"
    },
    {
      "constant": false,
      "inputs": [
        {
          "name": "_auctioneer",
          "type": "address"
        },
        {
          "name": "_ETHUSDOracle",
          "type": "address"
        },
        {
          "name": "_thresholdNewTokenPair",
          "type": "uint256"
        },
        {
          "name": "_thresholdNewAuction",
          "type": "uint256"
        }
      ],
      "name": "updateExchangeParams",
      "outputs": [],
      "payable": false,
      "stateMutability": "nonpayable",
      "type": "function"
    },
    {
      "constant": true,
      "inputs": [
        {
          "name": "",
          "type": "address"
        },
        {
          "name": "",
          "type": "address"
        }
      ],
      "name": "latestAuctionIndices",
      "outputs": [
        {
          "name": "",
          "type": "uint256"
        }
      ],
      "payable": false,
      "stateMutability": "view",
      "type": "function"
    },
    {
      "inputs": [
        {
          "name": "_TUL",
          "type": "address"
        },
        {
          "name": "_OWL",
          "type": "address"
        },
        {
          "name": "_owner",
          "type": "address"
        },
        {
          "name": "_ETH",
          "type": "address"
        },
        {
          "name": "_ETHUSDOracle",
          "type": "address"
        },
        {
          "name": "_thresholdNewTokenPair",
          "type": "uint256"
        },
        {
          "name": "_thresholdNewAuction",
          "type": "uint256"
        }
      ],
      "payable": false,
      "stateMutability": "nonpayable",
      "type": "constructor"
    },
    {
      "anonymous": false,
      "inputs": [
        {
          "indexed": false,
          "name": "token",
          "type": "address"
        },
        {
          "indexed": false,
          "name": "amount",
          "type": "uint256"
        }
      ],
      "name": "NewDeposit",
      "type": "event"
    },
    {
      "anonymous": false,
      "inputs": [
        {
          "indexed": false,
          "name": "token",
          "type": "address"
        },
        {
          "indexed": false,
          "name": "amount",
          "type": "uint256"
        }
      ],
      "name": "NewWithdrawal",
      "type": "event"
    },
    {
      "anonymous": false,
      "inputs": [
        {
          "indexed": false,
          "name": "sellToken",
          "type": "address"
        },
        {
          "indexed": false,
          "name": "buyToken",
          "type": "address"
        },
        {
          "indexed": false,
          "name": "user",
          "type": "address"
        },
        {
          "indexed": false,
          "name": "auctionIndex",
          "type": "uint256"
        },
        {
          "indexed": false,
          "name": "amount",
          "type": "uint256"
        }
      ],
      "name": "NewSellOrder",
      "type": "event"
    },
    {
      "anonymous": false,
      "inputs": [
        {
          "indexed": false,
          "name": "sellToken",
          "type": "address"
        },
        {
          "indexed": false,
          "name": "buyToken",
          "type": "address"
        },
        {
          "indexed": false,
          "name": "user",
          "type": "address"
        },
        {
          "indexed": false,
          "name": "auctionIndex",
          "type": "uint256"
        },
        {
          "indexed": false,
          "name": "amount",
          "type": "uint256"
        }
      ],
      "name": "NewBuyOrder",
      "type": "event"
    },
    {
      "anonymous": false,
      "inputs": [
        {
          "indexed": false,
          "name": "sellToken",
          "type": "address"
        },
        {
          "indexed": false,
          "name": "buyToken",
          "type": "address"
        },
        {
          "indexed": false,
          "name": "user",
          "type": "address"
        },
        {
          "indexed": false,
          "name": "auctionIndex",
          "type": "uint256"
        },
        {
          "indexed": false,
          "name": "amount",
          "type": "uint256"
        },
        {
          "indexed": false,
          "name": "tulipsIssued",
          "type": "uint256"
        }
      ],
      "name": "NewSellerFundsClaim",
      "type": "event"
    },
    {
      "anonymous": false,
      "inputs": [
        {
          "indexed": false,
          "name": "sellToken",
          "type": "address"
        },
        {
          "indexed": false,
          "name": "buyToken",
          "type": "address"
        },
        {
          "indexed": false,
          "name": "user",
          "type": "address"
        },
        {
          "indexed": false,
          "name": "auctionIndex",
          "type": "uint256"
        },
        {
          "indexed": false,
          "name": "amount",
          "type": "uint256"
        },
        {
          "indexed": false,
          "name": "tulipsIssued",
          "type": "uint256"
        }
      ],
      "name": "NewBuyerFundsClaim",
      "type": "event"
    },
    {
      "anonymous": false,
      "inputs": [
        {
          "indexed": false,
          "name": "sellToken",
          "type": "address"
        },
        {
          "indexed": false,
          "name": "buyToken",
          "type": "address"
        }
      ],
      "name": "NewTokenPair",
      "type": "event"
    },
    {
      "anonymous": false,
      "inputs": [
        {
          "indexed": false,
          "name": "sellToken",
          "type": "address"
        },
        {
          "indexed": false,
          "name": "buyToken",
          "type": "address"
        },
        {
          "indexed": false,
          "name": "sellVolume",
          "type": "uint256"
        },
        {
          "indexed": false,
          "name": "buyVolume",
          "type": "uint256"
        },
        {
          "indexed": false,
          "name": "auctionIndex",
          "type": "uint256"
        }
      ],
      "name": "AuctionCleared",
      "type": "event"
    },
    {
      "anonymous": false,
      "inputs": [
        {
          "indexed": false,
          "name": "l",
          "type": "string"
        }
      ],
      "name": "Log",
      "type": "event"
    },
    {
      "anonymous": false,
      "inputs": [
        {
          "indexed": false,
          "name": "l",
          "type": "string"
        },
        {
          "indexed": false,
          "name": "n",
          "type": "uint256"
        }
      ],
      "name": "LogNumber",
      "type": "event"
    },
    {
      "constant": false,
      "inputs": [
        {
          "name": "primaryToken",
          "type": "address"
        },
        {
          "name": "secondaryToken",
          "type": "address"
        },
        {
          "name": "auctionIndex",
          "type": "uint256"
        },
        {
          "name": "user",
          "type": "address"
        },
        {
          "name": "amount",
          "type": "uint256"
        }
      ],
      "name": "settleFeePub",
      "outputs": [
        {
          "name": "",
          "type": "uint256"
        }
      ],
      "payable": false,
      "stateMutability": "nonpayable",
      "type": "function"
    },
    {
      "constant": true,
      "inputs": [
        {
          "name": "user",
          "type": "address"
        }
      ],
      "name": "calculateFeeRatioForJS",
      "outputs": [
        {
          "name": "",
          "type": "uint256"
        },
        {
          "name": "",
          "type": "uint256"
        }
      ],
      "payable": false,
      "stateMutability": "view",
      "type": "function"
    },
    {
      "constant": true,
      "inputs": [],
      "name": "getMasterCopy",
      "outputs": [
        {
          "name": "",
          "type": "address"
        }
      ],
      "payable": false,
      "stateMutability": "view",
      "type": "function"
    }
  ],
  "bytecode": "0x606060405234156200001057600080fd5b60405160e080620034828339810160405280805191906020018051919060200180519190602001805191906020018051919060200180519190602001805191506200007190508787878787878764010000000062001a3a6200007e82021704565b5050505050505062000132565b60095474010000000000000000000000000000000000000000900460ff1615620000a757600080fd5b60088054600160a060020a0319908116600160a060020a03998a161790915560098054600380548416988b1698909817909755600480548316968a169690961790955560058054821694891694909417909355600691909155600755740100000000000000000000000000000000000000009216929093169190911760a060020a60ff021916179055565b61334080620001426000396000f3006060604052600436106102575763ffffffff60e060020a600035041662599e65811461025c57806304e80e90146102a557806306d58f2a146102d45780630dcc6e58146103075780630e5b6adf146103475780631006a41f1461035a578063128896391461039157806314584a9d146103c35780632951f1b2146103e85780632cef4dac14610407578063306904681461041a57806337775807146104305780633819920f1461045f57806344b453531461048357806347e7ef24146104a557806359f96ae5146104c75780635e7f22c2146104f25780635ead15271461051d5780635ec2c7bf1461053c57806365054e551461054f578063657a37ad1461057d5780636d1ea3fa146105a55780636e6260fa146105d8578063708dbed5146105eb5780637ae2b5c71461060d5780638322fff214610626578063883fb15d146106395780639ed3c90c1461064c5780639fec8e961461065f578063a9dd14d61461068e578063acb10351146106b6578063ae1ba50d146106f3578063b029385014610712578063b3c2083f14610740578063b64c490514610765578063b707f6d31461078a578063b8beafd6146107b2578063ba43fe28146107d7578063bb44e418146107ea578063c1a21bf314610809578063c23f001f14610838578063d0a89f711461085d578063dae595e514610885578063df6af7d1146108aa578063e9f8cd70146108d8578063ebcc0de114610909578063ee93114c14610931578063f3fef3a314610944578063f625ee2814610966578063f79710fd14610985578063f8180419146109ad578063fac7abe3146109d8575b600080fd5b341561026757600080fd5b610281600160a060020a03600435811690602435166109fd565b604051600160a060020a039283168152911660208201526040908101905180910390f35b34156102b057600080fd5b6102b8610a26565b604051600160a060020a03909116815260200160405180910390f35b34156102df57600080fd5b610305600160a060020a0360043581169060243581169060443516606435608435610a35565b005b341561031257600080fd5b61032f600160a060020a0360043581169060243516604435610a54565b60405191825260208201526040908101905180910390f35b341561035257600080fd5b6102b8610a80565b341561036557600080fd5b61037f600160a060020a0360043581169060243516610a8f565b60405190815260200160405180910390f35b341561039c57600080fd5b61037f600160a060020a036004358116906024358116906044359060643516608435610aac565b34156103ce57600080fd5b61037f600160a060020a0360043581169060243516610ac5565b34156103f357600080fd5b61037f600160a060020a0360043516610b00565b341561041257600080fd5b610305610b35565b341561042557600080fd5b61037f600435610ba7565b341561043b57600080fd5b61037f600160a060020a036004358116906024358116906044359060643516610bc1565b341561046a57600080fd5b610305600160a060020a03600435166024351515610bed565b341561048e57600080fd5b61032f600160a060020a0360043516602435610c33565b34156104b057600080fd5b610305600160a060020a0360043516602435610c5d565b34156104d257600080fd5b610305600160a060020a0360043581169060243516604435606435610d1f565b34156104fd57600080fd5b610305600160a060020a0360043581169060243516604435606435610fb7565b341561052857600080fd5b61032f600160a060020a0360043516611320565b341561054757600080fd5b6102b8611347565b341561055a57600080fd5b61032f600160a060020a0360043581169060243581169060443516606435611356565b341561058857600080fd5b610305600160a060020a036004358116906024351660443561163b565b34156105b057600080fd5b6105c4600160a060020a0360043516611657565b604051901515815260200160405180910390f35b34156105e357600080fd5b61037f61166c565b34156105f657600080fd5b61037f600160a060020a0360043516602435611672565b341561061857600080fd5b61037f600435602435611829565b341561063157600080fd5b6102b8611843565b341561064457600080fd5b6102b8611852565b341561065757600080fd5b6105c4611861565b341561066a57600080fd5b61037f600160a060020a036004358116906024358116906044359060643516611882565b341561069957600080fd5b61037f600160a060020a03600435811690602435166044356118ae565b34156106c157600080fd5b610305600160a060020a036004358116906024358116906044358116906064358116906084351660a43560c435611a3a565b34156106fe57600080fd5b61037f600160a060020a0360043516611b08565b341561071d57600080fd5b61032f600160a060020a0360043581169060243581169060443516606435611c2e565b341561074b57600080fd5b61037f600160a060020a0360043581169060243516612190565b341561077057600080fd5b61037f600160a060020a03600435811690602435166121ad565b341561079557600080fd5b61032f600160a060020a03600435811690602435166044356121ca565b34156107bd57600080fd5b61037f600160a060020a03600435811690602435166121e0565b34156107e257600080fd5b6102b86121fd565b34156107f557600080fd5b61032f600160a060020a036004351661220c565b341561081457600080fd5b61037f600160a060020a036004358116906024358116906044359060643516612220565b341561084357600080fd5b61037f600160a060020a036004358116906024351661224c565b341561086857600080fd5b61037f600160a060020a0360043581169060243516604435612269565b341561089057600080fd5b61037f600160a060020a0360043581169060243516612348565b34156108b557600080fd5b61032f600160a060020a0360043581169060243581169060443516606435612383565b34156108e357600080fd5b610305600160a060020a036004358116906024351660443560643560843560a435612449565b341561091457600080fd5b61032f600160a060020a0360043581169060243516604435612784565b341561093c57600080fd5b61037f6127ae565b341561094f57600080fd5b610305600160a060020a03600435166024356127b4565b341561097157600080fd5b610305600160a060020a03600435166128e6565b341561099057600080fd5b61037f600160a060020a036004358116906024351660443561294e565b34156109b857600080fd5b610305600160a060020a0360043581169060243516604435606435612971565b34156109e357600080fd5b61037f600160a060020a03600435811690602435166129d4565b60008083600160a060020a031683600160a060020a03161015610a1e579192915b509192909150565b600054600160a060020a031690565b610a4185858585611356565b5050610a4d84826127b4565b5050505050565b600080610a5f6132fd565b610a6a868686612269565b9050805181602001519250925050935093915050565b600854600160a060020a031681565b600c60209081526000928352604080842090915290825290205481565b6000610abb86868686866129f1565b9695505050505050565b6000610ad183836109fd565b600160a060020a039182166000908152600b602090815260408083209390941682529190915220549392505050565b610b086132fd565b600454600090610b22908490600160a060020a0316610ac5565b9050610b2e8382611672565b9392505050565b60035433600160a060020a03908116911614610b5057600080fd5b600154600160a060020a03161515610b6757600080fd5b600254421015610b7657600080fd5b6001546000805473ffffffffffffffffffffffffffffffffffffffff1916600160a060020a03909216919091179055565b600080821215610bb957506000610bbc565b50805b919050565b601460209081526000948552604080862082529385528385208152918452828420909152825290205481565b60035433600160a060020a03908116911614610c0857600080fd5b600160a060020a03919091166000908152600a60205260409020805460ff1916911515919091179055565b600080610c3e6132fd565b610c488585611672565b90508051816020015192509250509250929050565b81600160a060020a03166323b872dd33308460006040516020015260405160e060020a63ffffffff8616028152600160a060020a0393841660048201529190921660248201526044810191909152606401602060405180830381600087803b1515610cc757600080fd5b6102c65a03f11515610cd857600080fd5b505050604051805190501515610ced57600080fd5b600160a060020a0391821660009081526011602090815260408083203390951683529390529190912080549091019055565b600160a060020a0380851660009081526011602090815260408083203390941683529290529081205481908190610d57908590611829565b935060008411610d6657600080fd5b610d708787610ac5565b925060008311610d7f57600080fd5b610d898787612348565b91508160011480610d9957504282115b15610dff57841515610dad57829450610db9565b848314610db957600080fd5b600160a060020a038088166000908152600e60209081526040808320938a16835292905220546c0c9f2c9cd04674edea4000000090850110610dfa57600080fd5b610e61565b841515610e1157826001019450610e20565b600183018514610e2057600080fd5b600160a060020a038088166000908152600f60209081526040808320938a16835292905220546c0c9f2c9cd04674edea4000000090850110610e6157600080fd5b610e6e87878733886129f1565b600160a060020a03808916600081815260116020908152604080832033861680855290835281842080548c9003905593835260138252808320948c1683529381528382208a83528152838220928252919091522080548201905590506001821480610ed857504282115b15610f0d57600160a060020a038088166000908152600e60209081526040808320938a16835292905220805482019055610f39565b600160a060020a038088166000908152600f60209081526040808320938a168352929052208054820190555b8160011415610f4c57610f4c8787612c1a565b7f3681d6f6ad159bac260c32828859f6df545bbf841c6e70787bcf0acbc390512a8787338885604051600160a060020a0395861681529385166020850152919093166040808401919091526060830193909352608082015260a001905180910390a150505050505050565b6000806000610fc46132fd565b600080610fd18a8a612348565b600160a060020a03808c166000908152600d60209081526040808320938e1683529281528282208c8352905220600101549096501561100f57600080fd5b4261101a8b8b612348565b111561102557600080fd5b61102f8a8a610ac5565b881461103a57600080fd5b6001861161104757600080fd5b600160a060020a03808b166000908152600e60209081526040808320938d168352929052908120541161107957600080fd5b600160a060020a03808b1660009081526010602090815260408083208d8516845282528083205460118352818420339095168452939091529020549095506110c2908890611829565b96506c0c9f2c9cd04674edea40000000858801106110df57600080fd5b600160a060020a03808b166000908152600e60209081526040808320938d168352929052205493506111128a8a8a6118ae565b92506111318584602001518551870281151561112a57fe5b0403610ba7565b91508187101561115957600087111561115457611151898b8a338b6129f1565b90505b61115f565b50945084805b60008711156113015786601160008b600160a060020a0316600160a060020a03168152602001908152602001600020600033600160a060020a0316600160a060020a031681526020019081526020016000206000828254039250508190555080601460008c600160a060020a0316600160a060020a0316815260200190815260200160002060008b600160a060020a0316600160a060020a0316815260200190815260200160002060008a8152602001908152602001600020600033600160a060020a0316600160a060020a031681526020019081526020016000206000828254019250508190555080601060008c600160a060020a0316600160a060020a0316815260200190815260200160002060008b600160a060020a0316600160a060020a03168152602001908152602001600020600082825401925050819055507ff1751a362067564d5feb9ed26f1898bb14c17e1254e3724d454bc2ae80195c258a8a338b85604051600160a060020a0395861681529385166020850152919093166040808401919091526060830193909352608082015260a001905180910390a15b818710611314576113148a8a8a87612d60565b50505050505050505050565b60008061132b6132fd565b61133484610b00565b9050805181602001519250925050915091565b600354600160a060020a031681565b60008060006113636132fd565b60008060006113706132fd565b600160a060020a03808d1660009081526013602090815260408083208f8516845282528083208d84528252808320938e16835292905290812054965086116113b757600080fd5b600160a060020a03808d166000908152600d60209081526040808320938f1683529281528282208c83529052819020908051908101604052815481526001909101546020820152945084519350846020015192506000831161141857600080fd5b8284870281151561142557fe5b600160a060020a038e166000908152600a6020526040902054919004985060ff16151560011480156114745750600160a060020a038b166000908152600a602052604090205460ff1615156001145b1561155257600454600160a060020a0390811692508c1682141561149a578596506114de565b81600160a060020a03168b600160a060020a031614156114bc578796506114de565b6114c68c8a611672565b90508060200151815187028115156114da57fe5b0496505b600087111561155257600854600160a060020a031663f0dda65c8b8960405160e060020a63ffffffff8516028152600160a060020a0390921660048301526024820152604401600060405180830381600087803b151561153d57600080fd5b6102c65a03f1151561154e57600080fd5b5050505b600160a060020a03808d1660009081526013602090815260408083208f8516845282528083208d84528252808320938e1683529290529081208190558811156115c157600160a060020a03808c166000908152601160209081526040808320938e168352929052208054890190555b7fa3ac9b53d029621ef95693b5f9b1d0b0da75029fe8530389271be02715e24c138c8c8c8c8c8c604051600160a060020a0396871681529486166020860152929094166040808501919091526060840191909152608083019390935260a082015260c001905180910390a150505050505094509492505050565b6116458382610c5d565b6116528383600084610d1f565b505050565b600a6020526000908152604090205460ff1681565b60065481565b61167a6132fd565b60008060006116876132fd565b61168f6132fd565b600454600160a060020a03908116955088168514156116b7576001808752602087015261181e565b600087116116c457600080fd5b60009350600092505b8215156117b657600160a060020a038086166000908152600d60209081526040808320938c168352928152828220600019888c030183529052819020600190950194908051908101604090815282548252600190920154602080830191909152600160a060020a03808c166000908152600d8352848120918a168152908252838120888c03825290915282902090935090805190810160405281548152600190910154602082015290506000825111801561178c575060008260200151115b806117a75750600081511180156117a7575060008160200151115b156117b157600192505b6116cd565b815115806117c657508160200151155b156117de57805186526020810151602087015261181e565b805115806117ee57508060200151155b1561180657816020015186528151602087015261181e565b80518260200151018652602081015182510160208701525b505050505092915050565b60008183101561183a57508161183d565b50805b92915050565b600454600160a060020a031681565b600554600160a060020a031681565b60095474010000000000000000000000000000000000000000900460ff1681565b601560209081526000948552604080862082529385528385208152918452828420909152825290205481565b6118b66132fd565b6118be6132fd565b6118c66132fd565b600160a060020a038087166000908152600d6020908152604080832093891683529281528282208783529052818120909180519081016040528154815260019091015460208201908152909350511561192c578251836020015160208601528452611a30565b6119368787610ac5565b85111561194d576000602085018190528452611a30565b611958878787612269565b915061196e6119678888612348565b4203610ba7565b9050611981825182620151800302610ba7565b8452602082015161a8c08201026020808601918252600160a060020a03808a166000908152601083526040808220928b168252919092529020549051600160a060020a03808a166000908152600e60209081526040808320938c168352929052205491029085510211611a3057600160a060020a038088166000818152601060209081526040808320948b16808452948252808320548952928252600e81528282209382529283522054908501525b5050509392505050565b60095474010000000000000000000000000000000000000000900460ff1615611a6257600080fd5b6008805473ffffffffffffffffffffffffffffffffffffffff19908116600160a060020a03998a161790915560098054600380548416988b1698909817909755600480548316968a169690961790955560058054821694891694909417909355600691909155600755740100000000000000000000000000000000000000009216929093169190911774ff00000000000000000000000000000000000000001916179055565b611b106132fd565b6008546000908190600160a060020a03166318160ddd82604051602001526040518163ffffffff1660e060020a028152600401602060405180830381600087803b1515611b5c57600080fd5b6102c65a03f11515611b6d57600080fd5b50505060405180519250506000821115611c1b57600854600160a060020a03166381a1ac098560006040516020015260405160e060020a63ffffffff8416028152600160a060020a039091166004820152602401602060405180830381600087803b1515611bda57600080fd5b6102c65a03f11515611beb57600080fd5b505050604051805190509050611c0581600a028303610ba7565b8352613e80810260c88302016020840152611c27565b6001835260c860208401525b5050919050565b600080611c396132fd565b6000806000806000611c496132fd565b611c558d8d8d8d612383565b809850819a505050600d60008e600160a060020a0316600160a060020a0316815260200190815260200160002060008d600160a060020a0316600160a060020a0316815260200190815260200160002060008b81526020019081526020016000206001015495508560001415611d545788601560008f600160a060020a0316600160a060020a0316815260200190815260200160002060008e600160a060020a0316600160a060020a0316815260200190815260200160002060008c815260200190815260200160002060008d600160a060020a0316600160a060020a03168152602001908152602001600020600082825401925050819055506120e0565b601260008e600160a060020a0316600160a060020a0316815260200190815260200160002060008d600160a060020a0316600160a060020a0316815260200190815260200160002060008b8152602001908152602001600020549450601460008e600160a060020a0316600160a060020a0316815260200190815260200160002060008d600160a060020a0316600160a060020a0316815260200190815260200160002060008b815260200190815260200160002060008c600160a060020a0316600160a060020a03168152602001908152602001600020549350600d60008e600160a060020a0316600160a060020a0316815260200190815260200160002060008d600160a060020a0316600160a060020a0316815260200190815260200160002060008b815260200190815260200160002060000154858502811515611e9857fe5b600160a060020a038e166000908152600a6020526040902054919004998a0199935060ff1615156001148015611eeb5750600160a060020a038d166000908152600a602052604090205460ff1615156001145b15611fdb57600454600160a060020a0390811692508c16821415611f1157839750611f67565b81600160a060020a03168d600160a060020a03161415611f4557865187602001518502811515611f3d57fe5b049750611f67565b611f4f8c8b611672565b9050806020015181518502811515611f6357fe5b0497505b6000881115611fdb57600854600160a060020a031663f0dda65c8c8a60405160e060020a63ffffffff8516028152600160a060020a0390921660048301526024820152604401600060405180830381600087803b1515611fc657600080fd5b6102c65a03f11515611fd757600080fd5b5050505b6000601460008f600160a060020a0316600160a060020a0316815260200190815260200160002060008e600160a060020a0316600160a060020a0316815260200190815260200160002060008c815260200190815260200160002060008d600160a060020a0316600160a060020a03168152602001908152602001600020819055506000601560008f600160a060020a0316600160a060020a0316815260200190815260200160002060008e600160a060020a0316600160a060020a0316815260200190815260200160002060008c815260200190815260200160002060008d600160a060020a0316600160a060020a03168152602001908152602001600020819055505b600089111561211557600160a060020a03808e166000908152601160209081526040808320938f1683529290522080548a0190555b7f4d1c39fd1a9c74f88b9f90c7b439b7e5dc6f26b6ff280fd497fdec5c538aaf528d8d8d8d8d8d604051600160a060020a0396871681529486166020860152929094166040808501919091526060840191909152608083019390935260a082015260c001905180910390a15050505050505094509492505050565b600f60209081526000928352604080842090915290825290205481565b600e60209081526000928352604080842090915290825290205481565b6000806121d56132fd565b610a6a8686866118ae565b601060209081526000928352604080842090915290825290205481565b600954600160a060020a031681565b6000806122176132fd565b61133484611b08565b601360209081526000948552604080862082529385528385208152918452828420909152825290205481565b601160209081526000928352604080842090915290825290205481565b6122716132fd565b6122796132fd565b6122816132fd565b61228b8685611672565b91506122978585611672565b905080602001518251028352805182602001510260208401525b64e8d4a5100083511180156122ce575064e8d4a510008360200151115b1561230257620f424083518115156122e257fe5b048352620f424060208401518115156122f757fe5b0460208401526122b1565b6e13426172c74d822b878fe800000000835111158061233457506e13426172c74d822b878fe800000000836020015111155b151561233f57600080fd5b50509392505050565b600061235483836109fd565b600160a060020a039182166000908152600c602090815260408083209390941682529190915220549392505050565b600061238d6132fd565b60006123998787610ac5565b8411156123a557600080fd5b6123b08787866118ae565b9150815115156123c3576000925061243f565b50600160a060020a0380871660008181526014602090815260408083208a86168085529083528184208985528352818420958a16808552958352818420549484526015835281842090845282528083208884528252808320948352939052919091205461243c9083518460200151840281151561112a57fe5b92505b5094509492505050565b60008060006124566132fd565b61245e6132fd565b600160a060020a038b8116908b16141561247757600080fd5b86151561248357600080fd5b85151561248f57600080fd5b6124998b8b610ac5565b156124a357600080fd5b670de0b6b3a764000087106124b757600080fd5b670de0b6b3a764000086106124cb57600080fd5b6124d58b8b6130c3565b600160a060020a03808c1660009081526011602090815260408083203390941683529290522054612507908a90611829565b600160a060020a03808c166000908152601160209081526040808320339094168352929052205490995061253c908990611829565b97506c0c9f2c9cd04674edea40000000891061255757600080fd5b6c0c9f2c9cd04674edea40000000881061257057600080fd5b600554600160a060020a031663a3ca17b26000604051602001526040518163ffffffff1660e060020a028152600401602060405180830381600087803b15156125b857600080fd5b6102c65a03f115156125c957600080fd5b5050506040518051600454909550600160a060020a0390811694508c1684141590506125f957838902945061268b565b82600160a060020a03168a600160a060020a0316141561261d57838802945061268b565b60006126298c85610ac5565b1161263357600080fd5b600061263f8b85610ac5565b1161264957600080fd5b6126528b610b00565b915061265d8a610b00565b905083816020015182518a0281151561267257fe5b04836020015184518c0281151561268557fe5b04010294505b60065485101561269a57600080fd5b6040805190810160409081528882526020808301899052600160a060020a03808f166000908152600d8352838120918f1681529082528281208180529091522081518155602082015160019091015550604080519081016040528087815260200188815250600d60008c600160a060020a0316600160a060020a0316815260200190815260200160002060008d600160a060020a0316600160a060020a031681526020019081526020016000206000808152602001908152602001600020600082015181556020820151600190910155506127778b8b8b8b6130ff565b5050505050505050505050565b600d6020908152600093845260408085208252928452828420905282529020805460019091015482565b60075481565b600160a060020a03808316600090815260116020908152604080832033909416835292905220546127e6908290611829565b9050600081116127f557600080fd5b600160a060020a03808316600081815260116020908152604080832033958616845290915280822080548690039055919263a9059cbb9290918591516020015260405160e060020a63ffffffff8516028152600160a060020a0390921660048301526024820152604401602060405180830381600087803b151561287857600080fd5b6102c65a03f1151561288957600080fd5b50505060405180519050151561289e57600080fd5b7f6e2e05fb6a732995d6952d9158ca6b75f11cc6bf5a4af943aa1eb475a249440b8282604051600160a060020a03909216825260208201526040908101905180910390a15050565b60035433600160a060020a0390811691161461290157600080fd5b600160a060020a038116151561291657600080fd5b6001805473ffffffffffffffffffffffffffffffffffffffff1916600160a060020a03929092169190911790554262278d0001600255565b601260209081526000938452604080852082529284528284209052825290205481565b60035433600160a060020a0390811691161461298c57600080fd5b60038054600160a060020a0395861673ffffffffffffffffffffffffffffffffffffffff19918216179091556005805494909516931692909217909255600691909155600755565b600b60209081526000928352604080842090915290825290205481565b60006129fb6132fd565b600080612a066132fd565b6000806000612a148a611b08565b9650866020015187518a02811515612a2857fe5b0495506000861115612c0757600554600160a060020a031663a3ca17b26000604051602001526040518163ffffffff1660e060020a028152600401602060405180830381600087803b1515612a7c57600080fd5b6102c65a03f11515612a8d57600080fd5b505050604051805190509450612aa28d610b00565b9350836020015184518702811515612ab657fe5b600954600160a060020a039081166000908152601160209081526040808320339094168352929052205491900493508584029250612af79060028404611829565b90506000811115612b9c5760098054600160a060020a0390811660009081526011602090815260408083203385168452909152908190208054859003905591541690634346c5ac9083905160e060020a63ffffffff84160281526004810191909152602401600060405180830381600087803b1515612b7557600080fd5b6102c65a03f11515612b8657600080fd5b50505081868202811515612b9657fe5b04860395505b85601260008f600160a060020a0316600160a060020a0316815260200190815260200160002060008e600160a060020a0316600160a060020a0316815260200190815260200160002060008d6001018152602001908152602001600020600082825401925050819055505b5050509190940398975050505050505050565b6000612c246132fd565b612c2c6132fd565b6005546000908190600160a060020a031663a3ca17b282604051602001526040518163ffffffff1660e060020a028152600401602060405180830381600087803b1515612c7857600080fd5b6102c65a03f11515612c8957600080fd5b505050604051805190509450612c9e87610b00565b9350612ca986610b00565b92508360200151858551600160a060020a03808b166000908152600e60209081526040808320938d16835292905220540202811515612ce457fe5b0491508260200151858451600160a060020a03808a166000908152600e60209081526040808320938e16835292905220540202811515612d2057fe5b04905060075482101580612d3657506007548110155b15612d4d57612d488787610258613257565b612d57565b612d578787613293565b50505050505050565b600160a060020a03808516600081815260106020908152604080832094881680845294825280832054600e8352818420858552835281842054958452600d835281842094845293825280832087845290915281206001015491929190808080612dc98b8b612348565b93506000881115612e255760408051908101604090815288825260208083018b9052600160a060020a03808f166000908152600d8352838120918f1681529082528281208d825290915220815181556020820151600190910155505b851580612e3757508362015180014210155b80612e425750600085115b1561305757600160a060020a03808b166000908152601060209081526040808320938f1683529290522054925084158015612e7d5750600086115b15612f0457604080519081016040528084815260200187815250600d60008c600160a060020a0316600160a060020a0316815260200190815260200160002060008d600160a060020a0316600160a060020a0316815260200190815260200160002060008b8152602001908152602001600020600082015181556020820151600190910155505b5050600160a060020a03808a166000818152600f60208181526040808420958e168085529582528084205492825280842094845293815283832054600e8252848420958452949052918120829055909190821115612f8557600160a060020a03808c166000908152600f60209081526040808320938e168352929052908120555b6000871115612fb757600160a060020a03808c166000908152601060209081526040808320938e168352929052908120555b600160a060020a03808b166000908152600e60209081526040808320938f16835292905290812082905581111561301157600160a060020a03808b166000908152600f60209081526040808320938f168352929052908120555b600083111561304357600160a060020a03808b166000908152601060209081526040808320938f168352929052908120555b61304d8b8b6130c3565b6130578b8b612c1a565b7fb5806f8610464e96807c2b147620cc721c65309647f16cfccdf9fb7bd95152ac8b8b8a8a8d604051600160a060020a0395861681529390941660208401526040808401929092526060830152608082019290925260a001905180910390a15050505050505050505050565b6130cd82826109fd565b600160a060020a039182166000908152600b602090815260408083209390941682529190915220805460010190555050565b600160a060020a0380851660009081526011602081815260408084203380871680875291845282862080548a90039055958916855292825280842092845291905281208054849003905590819061315d9087908790600190886129f1565b915061316d8587600133876129f1565b600160a060020a038088166000818152600e602081815260408084208c87168086529083528185208a90559282528084208585528252808420879055601380835281852084865283528185206001808752908452828620339098168087529784528286208b9055938552825280842094845293815283832091835290815282822093825292909252902081905590506132098686615460613257565b7f6f4b2adffa0c3e90e47fdcd9d2c36f48b57eb3271dce519997271073dac17be98686604051600160a060020a039283168152911660208201526040908101905180910390a1505050505050565b61326183836109fd565b600160a060020a039182166000908152600c602090815260408083209490931682529290925290204290910190555050565b61329d82826109fd565b600160a060020a038083166000908152600c602090815260408083209385168352929052205491935091506001146132f957600160a060020a038083166000908152600c60209081526040808320938516835292905220600190555b5050565b6040805190810160405260008082526020820152905600a165627a7a723058203a5586f483be0945160a12f65331212f6d203e684f314e8b7968fcb4089e3c7f0029",
  "source": "pragma solidity ^0.4.19;\n\nimport \"../DutchExchange.sol\";\n\ncontract InternalTests is DutchExchange {\n  function settleFeePub(\n    address primaryToken,\n    address secondaryToken,\n    uint auctionIndex,\n    address user,\n    uint amount\n  )\n    public\n    returns (uint)\n  {\n    return super.settleFee(primaryToken, secondaryToken, auctionIndex, user, amount);\n  }\n  \n  function InternalTests(\n        address _TUL,\n        address _OWL,\n        address _owner, \n        address _ETH,\n        address _ETHUSDOracle,\n        uint _thresholdNewTokenPair,\n        uint _thresholdNewAuction\n    )\n    {\n    setupDutchExchange( \n          _TUL,\n          _OWL,\n          _owner,\n          _ETH,\n          _ETHUSDOracle,\n          _thresholdNewTokenPair,\n          _thresholdNewAuction);\n    }\n\n  function calculateFeeRatioForJS(\n    address user\n  ) public view returns (uint, uint)\n  {\n    fraction memory feeRatio = calculateFeeRatio(user);\n    return (feeRatio.num, feeRatio.den);\n  }\n\n  function getMasterCopy() public view returns (address) {\n    return address(masterCopy);\n  }\n}",
  "sourcePath": "/home/josojo/gnosis/dutch-exchange/contracts/ForTestingOnly/InternalTests.sol",
  "compiler": {
    "name": "solc",
    "version": "0.4.19+commit.c4cbbb05.Emscripten.clang"
  },
  "schemaVersion": "1.0.1",
  "updatedAt": "2018-02-07T10:35:21.217Z"
}