{
  "contractName": "Math",
  "abi": [
    {
      "constant": true,
      "inputs": [],
      "name": "LN2",
      "outputs": [
        {
          "name": "",
          "type": "uint256"
        }
      ],
      "payable": false,
      "stateMutability": "view",
      "type": "function"
    },
    {
      "constant": true,
      "inputs": [],
      "name": "LOG2_E",
      "outputs": [
        {
          "name": "",
          "type": "uint256"
        }
      ],
      "payable": false,
      "stateMutability": "view",
      "type": "function"
    },
    {
      "constant": true,
      "inputs": [],
      "name": "ONE",
      "outputs": [
        {
          "name": "",
          "type": "uint256"
        }
      ],
      "payable": false,
      "stateMutability": "view",
      "type": "function"
    },
    {
      "constant": true,
      "inputs": [
        {
          "name": "x",
          "type": "int256"
        }
      ],
      "name": "exp",
      "outputs": [
        {
          "name": "",
          "type": "uint256"
        }
      ],
      "payable": false,
      "stateMutability": "view",
      "type": "function"
    },
    {
      "constant": true,
      "inputs": [
        {
          "name": "x",
          "type": "uint256"
        }
      ],
      "name": "ln",
      "outputs": [
        {
          "name": "",
          "type": "int256"
        }
      ],
      "payable": false,
      "stateMutability": "view",
      "type": "function"
    },
    {
      "constant": true,
      "inputs": [
        {
          "name": "x",
          "type": "uint256"
        }
      ],
      "name": "floorLog2",
      "outputs": [
        {
          "name": "lo",
          "type": "int256"
        }
      ],
      "payable": false,
      "stateMutability": "view",
      "type": "function"
    },
    {
      "constant": true,
      "inputs": [
        {
          "name": "nums",
          "type": "int256[]"
        }
      ],
      "name": "max",
      "outputs": [
        {
          "name": "max",
          "type": "int256"
        }
      ],
      "payable": false,
      "stateMutability": "view",
      "type": "function"
    },
    {
      "constant": true,
      "inputs": [
        {
          "name": "a",
          "type": "uint256"
        },
        {
          "name": "b",
          "type": "uint256"
        }
      ],
      "name": "safeToAdd",
      "outputs": [
        {
          "name": "",
          "type": "bool"
        }
      ],
      "payable": false,
      "stateMutability": "view",
      "type": "function"
    },
    {
      "constant": true,
      "inputs": [
        {
          "name": "a",
          "type": "int256"
        },
        {
          "name": "b",
          "type": "int256"
        }
      ],
      "name": "safeToAdd",
      "outputs": [
        {
          "name": "",
          "type": "bool"
        }
      ],
      "payable": false,
      "stateMutability": "view",
      "type": "function"
    },
    {
      "constant": true,
      "inputs": [
        {
          "name": "a",
          "type": "uint256"
        },
        {
          "name": "b",
          "type": "uint256"
        }
      ],
      "name": "safeToSub",
      "outputs": [
        {
          "name": "",
          "type": "bool"
        }
      ],
      "payable": false,
      "stateMutability": "view",
      "type": "function"
    },
    {
      "constant": true,
      "inputs": [
        {
          "name": "a",
          "type": "int256"
        },
        {
          "name": "b",
          "type": "int256"
        }
      ],
      "name": "safeToSub",
      "outputs": [
        {
          "name": "",
          "type": "bool"
        }
      ],
      "payable": false,
      "stateMutability": "view",
      "type": "function"
    },
    {
      "constant": true,
      "inputs": [
        {
          "name": "a",
          "type": "int256"
        },
        {
          "name": "b",
          "type": "int256"
        }
      ],
      "name": "safeToMul",
      "outputs": [
        {
          "name": "",
          "type": "bool"
        }
      ],
      "payable": false,
      "stateMutability": "view",
      "type": "function"
    },
    {
      "constant": true,
      "inputs": [
        {
          "name": "a",
          "type": "uint256"
        },
        {
          "name": "b",
          "type": "uint256"
        }
      ],
      "name": "safeToMul",
      "outputs": [
        {
          "name": "",
          "type": "bool"
        }
      ],
      "payable": false,
      "stateMutability": "view",
      "type": "function"
    },
    {
      "constant": true,
      "inputs": [
        {
          "name": "a",
          "type": "int256"
        },
        {
          "name": "b",
          "type": "int256"
        }
      ],
      "name": "add",
      "outputs": [
        {
          "name": "",
          "type": "int256"
        }
      ],
      "payable": false,
      "stateMutability": "view",
      "type": "function"
    },
    {
      "constant": true,
      "inputs": [
        {
          "name": "a",
          "type": "uint256"
        },
        {
          "name": "b",
          "type": "uint256"
        }
      ],
      "name": "add",
      "outputs": [
        {
          "name": "",
          "type": "uint256"
        }
      ],
      "payable": false,
      "stateMutability": "view",
      "type": "function"
    },
    {
      "constant": true,
      "inputs": [
        {
          "name": "a",
          "type": "int256"
        },
        {
          "name": "b",
          "type": "int256"
        }
      ],
      "name": "sub",
      "outputs": [
        {
          "name": "",
          "type": "int256"
        }
      ],
      "payable": false,
      "stateMutability": "view",
      "type": "function"
    },
    {
      "constant": true,
      "inputs": [
        {
          "name": "a",
          "type": "uint256"
        },
        {
          "name": "b",
          "type": "uint256"
        }
      ],
      "name": "sub",
      "outputs": [
        {
          "name": "",
          "type": "uint256"
        }
      ],
      "payable": false,
      "stateMutability": "view",
      "type": "function"
    },
    {
      "constant": true,
      "inputs": [
        {
          "name": "a",
          "type": "uint256"
        },
        {
          "name": "b",
          "type": "uint256"
        }
      ],
      "name": "mul",
      "outputs": [
        {
          "name": "",
          "type": "uint256"
        }
      ],
      "payable": false,
      "stateMutability": "view",
      "type": "function"
    },
    {
      "constant": true,
      "inputs": [
        {
          "name": "a",
          "type": "int256"
        },
        {
          "name": "b",
          "type": "int256"
        }
      ],
      "name": "mul",
      "outputs": [
        {
          "name": "",
          "type": "int256"
        }
      ],
      "payable": false,
      "stateMutability": "view",
      "type": "function"
    }
  ],
  "bytecode": "0x6060604052341561000f57600080fd5b6109368061001e6000396000f3006060604052600436106101065763ffffffff7c010000000000000000000000000000000000000000000000000000000060003504166302780677811461010b5780631f47ba291461012557806324902e241461014757806324d4e90a1461014f57806345b8bafc1461015a5780634e30a66c14610165578063771602f7146101735780639030434114610181578063a5f3c23b1461018f578063adefc37b1461019d578063b67d77c5146101ab578063bbe93d91146101b9578063c2ee3a08146101c7578063c8a4ac9c146101cf578063cb10fa76146101dd578063ccc13814146101eb578063dc08a80b1461022f578063e31c71c41461023d578063e46751e31461024b575b600080fd5b610113610256565b60405190815260200160405180910390f35b610133600435602435610262565b604051901515815260200160405180910390f35b610113610284565b610113600435610291565b610113600435610477565b6101336004356024356104ea565b6101136004356024356104f1565b61013360043560243561050d565b610113600435602435610539565b610113600435602435610545565b610113600435602435610562565b61011360043560243561056e565b61011361058a565b610113600435602435610592565b61013360043560243561059a565b61011360046024813581810190830135806020818102016040519081016040528093929190818152602001838360200280828437509496506105bb95505050505050565b610133600435602435610640565b61013360043560243561066c565b610113600435610672565b67b17217f7d1cf79ac81565b600081158061027d5750828283850281151561027a57fe5b05145b9392505050565b680171547652b82fe17781565b600080808080808087116102a457600080fd5b6102ad87610477565b945060008512156102c95784600003879060020a0293506102d3565b600285900a870493505b604060020a8401604060020a808603028115156102ec57fe5b05925050506007604060020a828002819005830281900580840282900584028290058085028390058502839005938405600390920585016005909105010191908184028190058402059050600981059190910190604060020a8381838202050281151561035557fe5b059050600b81059190910190604060020a8381838202050281151561037657fe5b059050600d81059190910190604060020a8381838202050281151561039757fe5b059050600f81059190910190604060020a838183820205028115156103b857fe5b059050601181059190910190604060020a838183820205028115156103d957fe5b059050601381059190910190604060020a838183820205028115156103fa57fe5b059050601581059190910190604060020a8381838202050281151561041b57fe5b059050601781059190910190604060020a8381838202050281151561043c57fe5b05905060198105919091019060028202680171547652b82fe17770010000000000000000000000000000000087020501979650505050505050565b603f1960c160405b818360010112156104e3576000811280156104a65750604060020a81600003859060020a02105b806104c65750600081121580156104c65750604060020a600282900a8504105b156104d3578091506104d7565b8092505b5060028183010561047f565b5050919050565b8101101590565b60006104fd83836104ea565b151561050857600080fd5b500190565b600080821215801561052157508282840313155b8061027d575060008212801561027d57505081031390565b60006104fd8383610640565b6000610551838361050d565b151561055c57600080fd5b50900390565b6000610551838361066c565b600061057a8383610262565b151561058557600080fd5b500290565b604060020a81565b600061057a83835b600081158061027d575082828385028115156105b257fe5b04149392505050565b60008060008351116105cc57600080fd5b507f8000000000000000000000000000000000000000000000000000000000000000905060005b825181101561063a578183828151811061060957fe5b9060200190602002015113156106325782818151811061062557fe5b9060200190602002015191505b6001016105f3565b50919050565b600080821215801561065457508282840112155b8061027d575060008212801561027d57505081011290565b90101590565b60008080808068851591f9dd5b9b40d786131561068e57600080fd5b682c5c85fdf473de6af2198612156106a95760009450610901565b67b17217f7d1cf79ac604060020a8702059550600086126106db57604060020a86059350604060020a860792506106fb565b6001604060020a8705039350604060020a600087900307604060020a0392505b50819050604060020a8067b17217f7d1cf79ab83020401604060020a828402049150604060020a673d7f7bff058b1d5083020401604060020a828402049150604060020a670e35846b82505fc583020401604060020a828402049150604060020a670276556df749cee583020401604060020a828402049150604060020a665761ff9e299cc483020401604060020a828402049150604060020a660a184897c363c383020401604060020a828402049150604060020a65ffe5fe2c458683020401604060020a828402049150604060020a65162c0223a5c883020401604060020a828402049150604060020a6501b5253d395e83020401604060020a828402049150604060020a641e4cf5158b83020401604060020a828402049150604060020a6401e8cac73583020401604060020a828402049150604060020a631c3bd65083020401604060020a828402049150604060020a630181619383020401604060020a828402049150604060020a6213149683020401604060020a828402049150604060020a61e1b783020401604060020a828402049150604060020a6109c783020401600084126108e857600084610100038260008212156108b957fe5b9060020a900411156108cf576000199450610901565b838160008212156108dc57fe5b9060020a029450610901565b836000038160008212156108f857fe5b9060020a900494505b505050509190505600a165627a7a7230582083ae429d4316e816af83637774ea8b23d69cf3b767b40622b1906c8ae91b6bd40029",
  "source": "pragma solidity ^0.4.15;\n\n\n/// @title Math library - Allows calculation of logarithmic and exponential functions\n/// @author Alan Lu - <alan.lu@gnosis.pm>\n/// @author Stefan George - <stefan@gnosis.pm>\nlibrary Math {\n\n    /*\n     *  Constants\n     */\n    // This is equal to 1 in our calculations\n    uint public constant ONE =  0x10000000000000000;\n    uint public constant LN2 = 0xb17217f7d1cf79ac;\n    uint public constant LOG2_E = 0x171547652b82fe177;\n\n    /*\n     *  Public functions\n     */\n    /// @dev Returns natural exponential function value of given x\n    /// @param x x\n    /// @return e**x\n    function exp(int x)\n        public\n        constant\n        returns (uint)\n    {\n        // revert if x is > MAX_POWER, where\n        // MAX_POWER = int(mp.floor(mp.log(mpf(2**256 - 1) / ONE) * ONE))\n        require(x <= 2454971259878909886679);\n        // return 0 if exp(x) is tiny, using\n        // MIN_POWER = int(mp.floor(mp.log(mpf(1) / ONE) * ONE))\n        if (x < -818323753292969962227)\n            return 0;\n        // Transform so that e^x -> 2^x\n        x = x * int(ONE) / int(LN2);\n        // 2^x = 2^whole(x) * 2^frac(x)\n        //       ^^^^^^^^^^ is a bit shift\n        // so Taylor expand on z = frac(x)\n        int shift;\n        uint z;\n        if (x >= 0) {\n            shift = x / int(ONE);\n            z = uint(x % int(ONE));\n        }\n        else {\n            shift = x / int(ONE) - 1;\n            z = ONE - uint(-x % int(ONE));\n        }\n        // 2^x = 1 + (ln 2) x + (ln 2)^2/2! x^2 + ...\n        //\n        // Can generate the z coefficients using mpmath and the following lines\n        // >>> from mpmath import mp\n        // >>> mp.dps = 100\n        // >>> ONE =  0x10000000000000000\n        // >>> print('\\n'.join(hex(int(mp.log(2)**i / mp.factorial(i) * ONE)) for i in range(1, 7)))\n        // 0xb17217f7d1cf79ab\n        // 0x3d7f7bff058b1d50\n        // 0xe35846b82505fc5\n        // 0x276556df749cee5\n        // 0x5761ff9e299cc4\n        // 0xa184897c363c3\n        uint zpow = z;\n        uint result = ONE;\n        result += 0xb17217f7d1cf79ab * zpow / ONE;\n        zpow = zpow * z / ONE;\n        result += 0x3d7f7bff058b1d50 * zpow / ONE;\n        zpow = zpow * z / ONE;\n        result += 0xe35846b82505fc5 * zpow / ONE;\n        zpow = zpow * z / ONE;\n        result += 0x276556df749cee5 * zpow / ONE;\n        zpow = zpow * z / ONE;\n        result += 0x5761ff9e299cc4 * zpow / ONE;\n        zpow = zpow * z / ONE;\n        result += 0xa184897c363c3 * zpow / ONE;\n        zpow = zpow * z / ONE;\n        result += 0xffe5fe2c4586 * zpow / ONE;\n        zpow = zpow * z / ONE;\n        result += 0x162c0223a5c8 * zpow / ONE;\n        zpow = zpow * z / ONE;\n        result += 0x1b5253d395e * zpow / ONE;\n        zpow = zpow * z / ONE;\n        result += 0x1e4cf5158b * zpow / ONE;\n        zpow = zpow * z / ONE;\n        result += 0x1e8cac735 * zpow / ONE;\n        zpow = zpow * z / ONE;\n        result += 0x1c3bd650 * zpow / ONE;\n        zpow = zpow * z / ONE;\n        result += 0x1816193 * zpow / ONE;\n        zpow = zpow * z / ONE;\n        result += 0x131496 * zpow / ONE;\n        zpow = zpow * z / ONE;\n        result += 0xe1b7 * zpow / ONE;\n        zpow = zpow * z / ONE;\n        result += 0x9c7 * zpow / ONE;\n        if (shift >= 0) {\n            if (result >> (256-shift) > 0)\n                return (2**256-1);\n            return result << shift;\n        }\n        else\n            return result >> (-shift);\n    }\n\n    /// @dev Returns natural logarithm value of given x\n    /// @param x x\n    /// @return ln(x)\n    function ln(uint x)\n        public\n        constant\n        returns (int)\n    {\n        require(x > 0);\n        // binary search for floor(log2(x))\n        int ilog2 = floorLog2(x);\n        int z;\n        if (ilog2 < 0)\n            z = int(x << uint(-ilog2));\n        else\n            z = int(x >> uint(ilog2));\n        // z = x * 2^-⌊log₂x⌋\n        // so 1 <= z < 2\n        // and ln z = ln x - ⌊log₂x⌋/log₂e\n        // so just compute ln z using artanh series\n        // and calculate ln x from that\n        int term = (z - int(ONE)) * int(ONE) / (z + int(ONE));\n        int halflnz = term;\n        int termpow = term * term / int(ONE) * term / int(ONE);\n        halflnz += termpow / 3;\n        termpow = termpow * term / int(ONE) * term / int(ONE);\n        halflnz += termpow / 5;\n        termpow = termpow * term / int(ONE) * term / int(ONE);\n        halflnz += termpow / 7;\n        termpow = termpow * term / int(ONE) * term / int(ONE);\n        halflnz += termpow / 9;\n        termpow = termpow * term / int(ONE) * term / int(ONE);\n        halflnz += termpow / 11;\n        termpow = termpow * term / int(ONE) * term / int(ONE);\n        halflnz += termpow / 13;\n        termpow = termpow * term / int(ONE) * term / int(ONE);\n        halflnz += termpow / 15;\n        termpow = termpow * term / int(ONE) * term / int(ONE);\n        halflnz += termpow / 17;\n        termpow = termpow * term / int(ONE) * term / int(ONE);\n        halflnz += termpow / 19;\n        termpow = termpow * term / int(ONE) * term / int(ONE);\n        halflnz += termpow / 21;\n        termpow = termpow * term / int(ONE) * term / int(ONE);\n        halflnz += termpow / 23;\n        termpow = termpow * term / int(ONE) * term / int(ONE);\n        halflnz += termpow / 25;\n        return (ilog2 * int(ONE)) * int(ONE) / int(LOG2_E) + 2 * halflnz;\n    }\n\n    /// @dev Returns base 2 logarithm value of given x\n    /// @param x x\n    /// @return logarithmic value\n    function floorLog2(uint x)\n        public\n        constant\n        returns (int lo)\n    {\n        lo = -64;\n        int hi = 193;\n        // I use a shift here instead of / 2 because it floors instead of rounding towards 0\n        int mid = (hi + lo) >> 1;\n        while((lo + 1) < hi) {\n            if (mid < 0 && x << uint(-mid) < ONE || mid >= 0 && x >> uint(mid) < ONE)\n                hi = mid;\n            else\n                lo = mid;\n            mid = (hi + lo) >> 1;\n        }\n    }\n\n    /// @dev Returns maximum of an array\n    /// @param nums Numbers to look through\n    /// @return Maximum number\n    function max(int[] nums)\n        public\n        constant\n        returns (int max)\n    {\n        require(nums.length > 0);\n        max = -2**255;\n        for (uint i = 0; i < nums.length; i++)\n            if (nums[i] > max)\n                max = nums[i];\n    }\n\n    /// @dev Returns whether an add operation causes an overflow\n    /// @param a First addend\n    /// @param b Second addend\n    /// @return Did no overflow occur?\n    function safeToAdd(uint a, uint b)\n        public\n        constant\n        returns (bool)\n    {\n        return a + b >= a;\n    }\n\n    /// @dev Returns whether a subtraction operation causes an underflow\n    /// @param a Minuend\n    /// @param b Subtrahend\n    /// @return Did no underflow occur?\n    function safeToSub(uint a, uint b)\n        public\n        constant\n        returns (bool)\n    {\n        return a >= b;\n    }\n\n    /// @dev Returns whether a multiply operation causes an overflow\n    /// @param a First factor\n    /// @param b Second factor\n    /// @return Did no overflow occur?\n    function safeToMul(uint a, uint b)\n        public\n        constant\n        returns (bool)\n    {\n        return b == 0 || a * b / b == a;\n    }\n\n    /// @dev Returns sum if no overflow occurred\n    /// @param a First addend\n    /// @param b Second addend\n    /// @return Sum\n    function add(uint a, uint b)\n        public\n        constant\n        returns (uint)\n    {\n        require(safeToAdd(a, b));\n        return a + b;\n    }\n\n    /// @dev Returns difference if no overflow occurred\n    /// @param a Minuend\n    /// @param b Subtrahend\n    /// @return Difference\n    function sub(uint a, uint b)\n        public\n        constant\n        returns (uint)\n    {\n        require(safeToSub(a, b));\n        return a - b;\n    }\n\n    /// @dev Returns product if no overflow occurred\n    /// @param a First factor\n    /// @param b Second factor\n    /// @return Product\n    function mul(uint a, uint b)\n        public\n        constant\n        returns (uint)\n    {\n        require(safeToMul(a, b));\n        return a * b;\n    }\n\n    /// @dev Returns whether an add operation causes an overflow\n    /// @param a First addend\n    /// @param b Second addend\n    /// @return Did no overflow occur?\n    function safeToAdd(int a, int b)\n        public\n        constant\n        returns (bool)\n    {\n        return (b >= 0 && a + b >= a) || (b < 0 && a + b < a);\n    }\n\n    /// @dev Returns whether a subtraction operation causes an underflow\n    /// @param a Minuend\n    /// @param b Subtrahend\n    /// @return Did no underflow occur?\n    function safeToSub(int a, int b)\n        public\n        constant\n        returns (bool)\n    {\n        return (b >= 0 && a - b <= a) || (b < 0 && a - b > a);\n    }\n\n    /// @dev Returns whether a multiply operation causes an overflow\n    /// @param a First factor\n    /// @param b Second factor\n    /// @return Did no overflow occur?\n    function safeToMul(int a, int b)\n        public\n        constant\n        returns (bool)\n    {\n        return (b == 0) || (a * b / b == a);\n    }\n\n    /// @dev Returns sum if no overflow occurred\n    /// @param a First addend\n    /// @param b Second addend\n    /// @return Sum\n    function add(int a, int b)\n        public\n        constant\n        returns (int)\n    {\n        require(safeToAdd(a, b));\n        return a + b;\n    }\n\n    /// @dev Returns difference if no overflow occurred\n    /// @param a Minuend\n    /// @param b Subtrahend\n    /// @return Difference\n    function sub(int a, int b)\n        public\n        constant\n        returns (int)\n    {\n        require(safeToSub(a, b));\n        return a - b;\n    }\n\n    /// @dev Returns product if no overflow occurred\n    /// @param a First factor\n    /// @param b Second factor\n    /// @return Product\n    function mul(int a, int b)\n        public\n        constant\n        returns (int)\n    {\n        require(safeToMul(a, b));\n        return a * b;\n    }\n}\n",
  "sourcePath": "@gnosis.pm/gnosis-core-contracts/contracts/Utils/Math.sol",
  "compiler": {
    "name": "solc",
    "version": "0.4.19+commit.c4cbbb05.Emscripten.clang"
  },
  "schemaVersion": "1.0.1",
  "updatedAt": "2018-02-07T10:34:24.864Z"
}