{
  "contractName": "Medianizer",
  "abi": [
    {
      "constant": false,
      "inputs": [
        {
          "name": "owner_",
          "type": "address"
        }
      ],
      "name": "setOwner",
      "outputs": [],
      "payable": false,
      "stateMutability": "nonpayable",
      "type": "function"
    },
    {
      "constant": true,
      "inputs": [
        {
          "name": "",
          "type": "address"
        }
      ],
      "name": "indexes",
      "outputs": [
        {
          "name": "",
          "type": "bytes12"
        }
      ],
      "payable": false,
      "stateMutability": "view",
      "type": "function"
    },
    {
      "constant": true,
      "inputs": [],
      "name": "next",
      "outputs": [
        {
          "name": "",
          "type": "bytes12"
        }
      ],
      "payable": false,
      "stateMutability": "view",
      "type": "function"
    },
    {
      "constant": true,
      "inputs": [],
      "name": "read",
      "outputs": [
        {
          "name": "",
          "type": "bytes32"
        }
      ],
      "payable": false,
      "stateMutability": "view",
      "type": "function"
    },
    {
      "constant": true,
      "inputs": [],
      "name": "peek",
      "outputs": [
        {
          "name": "",
          "type": "bytes32"
        },
        {
          "name": "",
          "type": "bool"
        }
      ],
      "payable": false,
      "stateMutability": "view",
      "type": "function"
    },
    {
      "constant": true,
      "inputs": [
        {
          "name": "",
          "type": "bytes12"
        }
      ],
      "name": "values",
      "outputs": [
        {
          "name": "",
          "type": "address"
        }
      ],
      "payable": false,
      "stateMutability": "view",
      "type": "function"
    },
    {
      "constant": false,
      "inputs": [
        {
          "name": "authority_",
          "type": "address"
        }
      ],
      "name": "setAuthority",
      "outputs": [],
      "payable": false,
      "stateMutability": "nonpayable",
      "type": "function"
    },
    {
      "constant": true,
      "inputs": [],
      "name": "owner",
      "outputs": [
        {
          "name": "",
          "type": "address"
        }
      ],
      "payable": false,
      "stateMutability": "view",
      "type": "function"
    },
    {
      "constant": false,
      "inputs": [],
      "name": "void",
      "outputs": [],
      "payable": false,
      "stateMutability": "nonpayable",
      "type": "function"
    },
    {
      "constant": true,
      "inputs": [],
      "name": "authority",
      "outputs": [
        {
          "name": "",
          "type": "address"
        }
      ],
      "payable": false,
      "stateMutability": "view",
      "type": "function"
    },
    {
      "constant": true,
      "inputs": [],
      "name": "min",
      "outputs": [
        {
          "name": "",
          "type": "uint96"
        }
      ],
      "payable": false,
      "stateMutability": "view",
      "type": "function"
    },
    {
      "anonymous": true,
      "inputs": [
        {
          "indexed": true,
          "name": "sig",
          "type": "bytes4"
        },
        {
          "indexed": true,
          "name": "guy",
          "type": "address"
        },
        {
          "indexed": true,
          "name": "foo",
          "type": "bytes32"
        },
        {
          "indexed": true,
          "name": "bar",
          "type": "bytes32"
        },
        {
          "indexed": false,
          "name": "wad",
          "type": "uint256"
        },
        {
          "indexed": false,
          "name": "fax",
          "type": "bytes"
        }
      ],
      "name": "LogNote",
      "type": "event"
    },
    {
      "anonymous": false,
      "inputs": [
        {
          "indexed": true,
          "name": "authority",
          "type": "address"
        }
      ],
      "name": "LogSetAuthority",
      "type": "event"
    },
    {
      "anonymous": false,
      "inputs": [
        {
          "indexed": true,
          "name": "owner",
          "type": "address"
        }
      ],
      "name": "LogSetOwner",
      "type": "event"
    },
    {
      "constant": false,
      "inputs": [
        {
          "name": "wat",
          "type": "address"
        }
      ],
      "name": "set",
      "outputs": [],
      "payable": false,
      "stateMutability": "nonpayable",
      "type": "function"
    },
    {
      "constant": false,
      "inputs": [
        {
          "name": "pos",
          "type": "bytes12"
        },
        {
          "name": "wat",
          "type": "address"
        }
      ],
      "name": "set",
      "outputs": [],
      "payable": false,
      "stateMutability": "nonpayable",
      "type": "function"
    },
    {
      "constant": false,
      "inputs": [
        {
          "name": "min_",
          "type": "uint96"
        }
      ],
      "name": "setMin",
      "outputs": [],
      "payable": false,
      "stateMutability": "nonpayable",
      "type": "function"
    },
    {
      "constant": false,
      "inputs": [
        {
          "name": "next_",
          "type": "bytes12"
        }
      ],
      "name": "setNext",
      "outputs": [],
      "payable": false,
      "stateMutability": "nonpayable",
      "type": "function"
    },
    {
      "constant": false,
      "inputs": [
        {
          "name": "wat",
          "type": "address"
        }
      ],
      "name": "unset",
      "outputs": [],
      "payable": false,
      "stateMutability": "nonpayable",
      "type": "function"
    },
    {
      "constant": false,
      "inputs": [
        {
          "name": "pos",
          "type": "bytes12"
        }
      ],
      "name": "unset",
      "outputs": [],
      "payable": false,
      "stateMutability": "nonpayable",
      "type": "function"
    },
    {
      "constant": false,
      "inputs": [
        {
          "name": "",
          "type": "bytes32"
        }
      ],
      "name": "poke",
      "outputs": [],
      "payable": false,
      "stateMutability": "nonpayable",
      "type": "function"
    },
    {
      "constant": false,
      "inputs": [],
      "name": "poke",
      "outputs": [],
      "payable": false,
      "stateMutability": "nonpayable",
      "type": "function"
    },
    {
      "constant": true,
      "inputs": [],
      "name": "compute",
      "outputs": [
        {
          "name": "",
          "type": "bytes32"
        },
        {
          "name": "",
          "type": "bool"
        }
      ],
      "payable": false,
      "stateMutability": "view",
      "type": "function"
    }
  ],
  "bytecode": "0x60606040908152600580546c0100000000000000000000000060016001606060020a03199092168217606060020a60c060020a031916179091558054600160a060020a03191633600160a060020a0316908117909155907fce241d7ca1f669fee44b6fc00b8eba2df3bb514eed0f6f668f8f89096e81ed94905160405180910390a2610faa806100906000396000f3006060604052600436106100f85763ffffffff60e060020a60003504166313af403581146100fd5780631504460f1461011e57806318178358146101345780631a43c338146101475780632801617e146101745780632966d1b9146101935780632db78d93146101b25780634c8fe526146101ee57806357de26a41461020157806359e02dd714610226578063651dd0de146102395780636ba5ef0d146102755780637a9e5e4b146102945780638da5cb5b146102b3578063ac4c25b2146102c6578063beb38b43146102d9578063bf7e214f14610305578063e0a1fdad14610318578063f2c5925d14610338578063f889794514610358575b600080fd5b341561010857600080fd5b61011c600160a060020a0360043516610387565b005b341561012957600080fd5b61011c6004356103f9565b341561013f57600080fd5b61011c61048c565b341561015257600080fd5b61015a610498565b604051918252151560208201526040908101905180910390f35b341561017f57600080fd5b61011c600160a060020a036004351661083d565b341561019e57600080fd5b61011c600160a060020a03600435166108bd565b34156101bd57600080fd5b6101d1600160a060020a03600435166108eb565b604051600160a060020a0319909116815260200160405180910390f35b34156101f957600080fd5b6101d1610903565b341561020c57600080fd5b61021461090f565b60405190815260200160405180910390f35b341561023157600080fd5b61015a61092f565b341561024457600080fd5b610259600160a060020a031960043516610944565b604051600160a060020a03909116815260200160405180910390f35b341561028057600080fd5b61011c6001606060020a036004351661095f565b341561029f57600080fd5b61011c600160a060020a0360043516610a30565b34156102be57600080fd5b610259610aa2565b34156102d157600080fd5b61011c610ab1565b34156102e457600080fd5b61011c600160a060020a031960043516602435600160a060020a0316610b4a565b341561031057600080fd5b610259610cd2565b341561032357600080fd5b61011c600160a060020a031960043516610ce1565b341561034357600080fd5b61011c600160a060020a031960043516610cec565b341561036357600080fd5b61036b610d9e565b6040516001606060020a03909116815260200160405180910390f35b61039d33600035600160e060020a031916610dbd565b15156103a857600080fd5b60018054600160a060020a031916600160a060020a038381169190911791829055167fce241d7ca1f669fee44b6fc00b8eba2df3bb514eed0f6f668f8f89096e81ed9460405160405180910390a250565b600435602435808233600160a060020a031660008035600160e060020a0319169034903660405183815260406020820181815290820183905260608201848480828437820191505094505050505060405180910390a4610457610498565b6001805491151560a060020a0274ff000000000000000000000000000000000000000019909216919091179055600255505050565b61049660006103f9565b565b6000806104a3610f6c565b60008060008060008060008060006001600560009054906101000a900460a060020a0260a060020a9004036001606060020a03166040518059106104e45750595b9080825280602002602001820160405250995060009850600197505b60055460a060020a908102046001606060020a03908116908916101561071157600160a060020a031960a060020a890216600090815260036020526040902054600160a060020a03161561070657600160a060020a031960a060020a89021660009081526003602052604080822054600160a060020a0316916359e02dd79151604001526040518163ffffffff1660e060020a0281526004016040805180830381600087803b15156105b157600080fd5b6102c65a03f115156105c257600080fd5b50505060405180519060200180519050965096508515610706576001606060020a038916158061061357508960018a036001606060020a03168151811061060557fe5b906020019060200201518710155b1561063d57868a8a6001606060020a03168151811061062e57fe5b602090810290910101526106ff565b600094505b89856001606060020a03168151811061065757fe5b90602001906020020151871061067257600190940193610642565b8893505b846001606060020a0316846001606060020a031611156106de5789600185036001606060020a0316815181106106a857fe5b906020019060200201518a856001606060020a0316815181106106c757fe5b602090810290910101526000199390930192610676565b868a866001606060020a0316815181106106f457fe5b602090810290910101525b6001909801975b600190970196610500565b6005546001606060020a036c010000000000000000000000009091048116908a1610156107465760025460009b509b5061082f565b60026001606060020a038a16066001606060020a0316600014156107f55789600160026001606060020a038c1604036001606060020a03168151811061078857fe5b9060200190602002015191508960026001606060020a038b16046001606060020a0316815181106107b557fe5b9060200190602002015190506107dc6107ce8383610eb5565b671bc16d674ec80000610ed7565b6fffffffffffffffffffffffffffffffff169250610827565b8960026001606060020a036000198c0116046001606060020a03168151811061081a57fe5b9060200190602002015192505b8260019b509b505b505050505050505050509091565b600061085533600035600160e060020a031916610dbd565b151561086057600080fd5b5060055460a060020a90810281900460010102600160a060020a03198116151561088657fe5b6005546108999060a060020a0283610b4a565b600580546bffffffffffffffffffffffff191660a060020a90920491909117905550565b600160a060020a0381166000908152600460205260408120546108e89160a060020a90910290610b4a565b50565b60046020526000908152604090205460a060020a0281565b60055460a060020a0281565b600080600061091c61092f565b9150915080151561092957fe5b50919050565b60025460015460ff60a060020a909104169091565b600360205260009081526040902054600160a060020a031681565b600435602435808233600160a060020a031660008035600160e060020a0319169034903660405183815260406020820181815290820183905260608201848480828437820191505094505050505060405180910390a46109cb33600035600160e060020a031916610dbd565b15156109d657600080fd5b6001606060020a03831615156109eb57600080fd5b5050600580546001606060020a039092166c010000000000000000000000000277ffffffffffffffffffffffff00000000000000000000000019909216919091179055565b610a4633600035600160e060020a031916610dbd565b1515610a5157600080fd5b60008054600160a060020a031916600160a060020a038381169190911791829055167f1abebea81bfa2637f28358c371278fb15ede7ea8dd28d2e03b112ff6d936ada460405160405180910390a250565b600154600160a060020a031681565b600435602435808233600160a060020a031660008035600160e060020a0319169034903660405183815260406020820181815290820183905260608201848480828437820191505094505050505060405180910390a4610b1d33600035600160e060020a031916610dbd565b1515610b2857600080fd5b50506001805474ff000000000000000000000000000000000000000019169055565b600435602435808233600160a060020a031660008035600160e060020a0319169034903660405183815260406020820181815290820183905260608201848480828437820191505094505050505060405180910390a4610bb633600035600160e060020a031916610dbd565b1515610bc157600080fd5b600160a060020a031984161515610bd757600080fd5b600160a060020a03831615801590610c165750600160a060020a03831660009081526004602052604090205460a060020a02600160a060020a03191615155b15610c2057600080fd5b600160a060020a03198416600090815260036020908152604080832054600160a060020a039081168452600490925290912080546bffffffffffffffffffffffff19169055831615610ca057600160a060020a038316600090815260046020526040902080546bffffffffffffffffffffffff191660a060020a86041790555b5050600160a060020a031991821660009081526003602052604090208054600160a060020a0390921691909216179055565b600054600160a060020a031681565b6108e8816000610b4a565b600435602435808233600160a060020a031660008035600160e060020a0319169034903660405183815260406020820181815290820183905260608201848480828437820191505094505050505060405180910390a4610d5833600035600160e060020a031916610dbd565b1515610d6357600080fd5b600160a060020a031983161515610d7957600080fd5b5050600580546bffffffffffffffffffffffff191660a060020a909204919091179055565b6005546c0100000000000000000000000090046001606060020a031681565b600030600160a060020a031683600160a060020a03161415610de157506001610eaf565b600154600160a060020a0384811691161415610dff57506001610eaf565b600054600160a060020a03161515610e1957506000610eaf565b60008054600160a060020a03169063b7009613908590309086906040516020015260405160e060020a63ffffffff8616028152600160a060020a039384166004820152919092166024820152600160e060020a03199091166044820152606401602060405180830381600087803b1515610e9257600080fd5b6102c65a03f11515610ea357600080fd5b50505060405180519150505b92915050565b8082016fffffffffffffffffffffffffffffffff8084169082161015610eaf57fe5b6000610f446fffffffffffffffffffffffffffffffff8316600281046fffffffffffffffffffffffffffffffff16670de0b6b3a76400006fffffffffffffffffffffffffffffffff16866fffffffffffffffffffffffffffffffff160201811515610f3e57fe5b04610f4b565b9392505050565b806fffffffffffffffffffffffffffffffff81168114610f6757fe5b919050565b602060405190810160405260008152905600a165627a7a72305820715db23cd52fdf4052447a5140264b0661f08a1547647b4c5acc8b4e76c3fa6e0029",
  "source": "pragma solidity ^0.4.19;\n\nimport \"../Oracle/DSValue.sol\";\n\ncontract Medianizer is DSValue {\n    mapping (bytes12 => address) public values;\n    mapping (address => bytes12) public indexes;\n    bytes12 public next = 0x1;\n\n    uint96 public min = 0x1;\n\n    function set(address wat) auth {\n        bytes12 nextId = bytes12(uint96(next) + 1);\n        assert(nextId != 0x0);\n        set(next, wat);\n        next = nextId;\n    }\n\n    function set(bytes12 pos, address wat) note auth {\n        if (pos == 0x0) throw;\n\n        if (wat != 0 && indexes[wat] != 0) throw;\n\n        indexes[values[pos]] = 0; // Making sure to remove a possible existing address in that position\n\n        if (wat != 0) {\n            indexes[wat] = pos;\n        }\n\n        values[pos] = wat;\n    }\n\n    function setMin(uint96 min_) note auth {\n        if (min_ == 0x0) throw;\n        min = min_;\n    }\n\n    function setNext(bytes12 next_) note auth {\n        if (next_ == 0x0) throw;\n        next = next_;\n    }\n\n    function unset(bytes12 pos) {\n        set(pos, 0);\n    }\n\n    function unset(address wat) {\n        set(indexes[wat], 0);\n    }\n\n    function poke() {\n        poke(0);\n    }\n\n    function poke(bytes32) note {\n        (val, has) = compute();\n    }\n\n    function compute() constant returns (bytes32, bool) {\n        bytes32[] memory wuts = new bytes32[](uint96(next) - 1);\n        uint96 ctr = 0;\n        for (uint96 i = 1; i < uint96(next); i++) {\n            if (values[bytes12(i)] != 0) {\n                var (wut, wuz) = DSValue(values[bytes12(i)]).peek();\n                if (wuz) {\n                    if (ctr == 0 || wut >= wuts[ctr - 1]) {\n                        wuts[ctr] = wut;\n                    } else {\n                        uint96 j = 0;\n                        while (wut >= wuts[j]) {\n                            j++;\n                        }\n                        for (uint96 k = ctr; k > j; k--) {\n                            wuts[k] = wuts[k - 1];\n                        }\n                        wuts[j] = wut;\n                    }\n                    ctr++;\n                }\n            }\n        }\n\n        if (ctr < min) return (val, false);\n\n        bytes32 value;\n        if (ctr % 2 == 0) {\n            uint128 val1 = uint128(wuts[(ctr / 2) - 1]);\n            uint128 val2 = uint128(wuts[ctr / 2]);\n            value = bytes32(wdiv(hadd(val1, val2), 2 ether));\n        } else {\n            value = wuts[(ctr - 1) / 2];\n        }\n\n        return (value, true);\n    }\n}\n",
  "sourcePath": "/home/josojo/gnosis/dutch-exchange/contracts/Oracle/Medianizer.sol",
  "compiler": {
    "name": "solc",
    "version": "0.4.19+commit.c4cbbb05.Emscripten.clang"
  },
  "schemaVersion": "1.0.1",
  "updatedAt": "2018-02-08T13:12:48.009Z"
}