{
  "contractName": "Migrations",
  "abi": [
    {
      "constant": true,
      "inputs": [],
      "name": "last_completed_migration",
      "outputs": [
        {
          "name": "",
          "type": "uint256"
        }
      ],
      "payable": false,
      "stateMutability": "view",
      "type": "function"
    },
    {
      "constant": true,
      "inputs": [],
      "name": "owner",
      "outputs": [
        {
          "name": "",
          "type": "address"
        }
      ],
      "payable": false,
      "stateMutability": "view",
      "type": "function"
    },
    {
      "inputs": [],
      "payable": false,
      "stateMutability": "nonpayable",
      "type": "constructor"
    },
    {
      "constant": false,
      "inputs": [
        {
          "name": "completed",
          "type": "uint256"
        }
      ],
      "name": "setCompleted",
      "outputs": [],
      "payable": false,
      "stateMutability": "nonpayable",
      "type": "function"
    },
    {
      "constant": false,
      "inputs": [
        {
          "name": "new_address",
          "type": "address"
        }
      ],
      "name": "upgrade",
      "outputs": [],
      "payable": false,
      "stateMutability": "nonpayable",
      "type": "function"
    }
  ],
  "bytecode": "0x6060604052341561000f57600080fd5b60008054600160a060020a033316600160a060020a03199091161790556101e78061003b6000396000f3006060604052600436106100615763ffffffff7c01000000000000000000000000000000000000000000000000000000006000350416630900f0108114610066578063445df0ac146100875780638da5cb5b146100ac578063fdacd576146100db575b600080fd5b341561007157600080fd5b610085600160a060020a03600435166100f1565b005b341561009257600080fd5b61009a610186565b60405190815260200160405180910390f35b34156100b757600080fd5b6100bf61018c565b604051600160a060020a03909116815260200160405180910390f35b34156100e657600080fd5b61008560043561019b565b6000805433600160a060020a03908116911614156101825781905080600160a060020a031663fdacd5766001546040517c010000000000000000000000000000000000000000000000000000000063ffffffff84160281526004810191909152602401600060405180830381600087803b151561016d57600080fd5b6102c65a03f1151561017e57600080fd5b5050505b5050565b60015481565b600054600160a060020a031681565b60005433600160a060020a03908116911614156101b85760018190555b505600a165627a7a72305820d4ee616b38e4ce74ddcd2ac384c9031d0f1bb31f3dfa5fc31ddc0ffa724b45970029",
  "source": "pragma solidity ^0.4.19;\n\n\n\nimport \"@gnosis.pm/owl-token/contracts/OWLAirdrop.sol\";\nimport \"@gnosis.pm/owl-token/contracts/TokenOWLProxy.sol\";\nimport \"@gnosis.pm/gnosis-core-contracts/contracts/Tokens/EtherToken.sol\";\n\ncontract Migrations {\n    address public owner;\n    uint public last_completed_migration;\n\n    modifier restricted() {\n        if (msg.sender == owner) _;\n    }\n\n    function Migrations()\n        public\n    {\n        owner = msg.sender;\n    }\n\n    function setCompleted(uint completed)\n        public\n        restricted\n    {\n        last_completed_migration = completed;\n    }\n\n    function upgrade(address new_address)\n        public\n        restricted\n    {\n        Migrations upgraded = Migrations(new_address);\n        upgraded.setCompleted(last_completed_migration);\n    }\n}",
  "sourcePath": "/home/josojo/gnosis/dutch-exchange/contracts/Migrations.sol",
  "compiler": {
    "name": "solc",
    "version": "0.4.19+commit.c4cbbb05.Emscripten.clang"
  },
  "schemaVersion": "1.0.1",
  "updatedAt": "2018-02-08T13:12:48.183Z"
}