{
  "contractName": "OWLAirdrop",
  "abi": [
    {
      "constant": true,
      "inputs": [],
      "name": "endTime",
      "outputs": [
        {
          "name": "",
          "type": "uint256"
        }
      ],
      "payable": false,
      "stateMutability": "view",
      "type": "function"
    },
    {
      "constant": true,
      "inputs": [],
      "name": "tokenOWL",
      "outputs": [
        {
          "name": "",
          "type": "address"
        }
      ],
      "payable": false,
      "stateMutability": "view",
      "type": "function"
    },
    {
      "constant": true,
      "inputs": [
        {
          "name": "",
          "type": "address"
        }
      ],
      "name": "lockedGNO",
      "outputs": [
        {
          "name": "",
          "type": "uint256"
        }
      ],
      "payable": false,
      "stateMutability": "view",
      "type": "function"
    },
    {
      "constant": true,
      "inputs": [],
      "name": "tokenGNO",
      "outputs": [
        {
          "name": "",
          "type": "address"
        }
      ],
      "payable": false,
      "stateMutability": "view",
      "type": "function"
    },
    {
      "inputs": [
        {
          "name": "_tokenOWL",
          "type": "address"
        },
        {
          "name": "_tokenGNO",
          "type": "address"
        },
        {
          "name": "_endTime",
          "type": "uint256"
        }
      ],
      "payable": false,
      "stateMutability": "nonpayable",
      "type": "constructor"
    },
    {
      "constant": false,
      "inputs": [
        {
          "name": "amount",
          "type": "uint256"
        }
      ],
      "name": "lockGNO",
      "outputs": [],
      "payable": false,
      "stateMutability": "nonpayable",
      "type": "function"
    },
    {
      "constant": false,
      "inputs": [],
      "name": "withdrawGNO",
      "outputs": [],
      "payable": false,
      "stateMutability": "nonpayable",
      "type": "function"
    }
  ],
  "bytecode": "0x6060604052341561000f57600080fd5b6040516060806104eb833981016040528080519190602001805191906020018051915050428190111561004157600080fd5b60008054600160a060020a03948516600160a060020a0319918216179091556001805493909416921691909117909155600355610468806100836000396000f30060606040526004361061005e5763ffffffff60e060020a600035041663162d563d81146100635780633197cbb6146100785780633540e96c1461009d57806364748294146100cc578063b6ba600a146100eb578063f0cafe0e14610101575b600080fd5b341561006e57600080fd5b610076610114565b005b341561008357600080fd5b61008b6101d6565b60405190815260200160405180910390f35b34156100a857600080fd5b6100b06101dc565b604051600160a060020a03909116815260200160405180910390f35b34156100d757600080fd5b61008b600160a060020a03600435166101eb565b34156100f657600080fd5b6100766004356101fd565b341561010c57600080fd5b6100b061042d565b600354421180156101b05750600154600160a060020a033381811660009081526002602052604080822054939094169363a9059cbb939190516020015260405160e060020a63ffffffff8516028152600160a060020a0390921660048301526024820152604401602060405180830381600087803b151561019457600080fd5b6102c65a03f115156101a557600080fd5b505050604051805190505b15156101bb57600080fd5b600160a060020a033316600090815260026020526040812055565b60035481565b600054600160a060020a031681565b60026020526000908152604090205481565b60035442111580156102925750600154600160a060020a03166323b872dd33308460006040516020015260405160e060020a63ffffffff8616028152600160a060020a0393841660048201529190921660248201526044810191909152606401602060405180830381600087803b151561027657600080fd5b6102c65a03f1151561028757600080fd5b505050604051805190505b151561029d57600080fd5b600160a060020a0333166000908152600260205260408082205473__Math__________________________________9263771602f792859190516020015260405160e060020a63ffffffff85160281526004810192909252602482015260440160206040518083038186803b151561031457600080fd5b6102c65a03f4151561032557600080fd5b505050604051805133600160a060020a03818116600090815260026020526040808220949094558054909116935063f52a41f39273__Math__________________________________9163c8a4ac9c918791600a91516020015260405160e060020a63ffffffff85160281526004810192909252602482015260440160206040518083038186803b15156103b857600080fd5b6102c65a03f415156103c957600080fd5b5050506040518051905060405160e060020a63ffffffff8516028152600160a060020a0390921660048301526024820152604401600060405180830381600087803b151561041657600080fd5b6102c65a03f1151561042757600080fd5b50505050565b600154600160a060020a0316815600a165627a7a7230582054b9fe6fae2f4da570da594dac95cee68707a7a4c113ec3c692f712ba68f236b0029",
  "source": "pragma solidity ^0.4.18;\n\nimport \"@gnosis.pm/gnosis-core-contracts/contracts/Utils/Math.sol\";\nimport \"./TokenOWL.sol\";\n\ncontract OWLAirdrop {\n    using Math for *;\n\n    TokenOWL public tokenOWL;\n    Token public tokenGNO;\n    mapping(address => uint) public lockedGNO;\n    uint public endTime;\n\n    /// @dev Creates and starts the airdrop\n    /// @param _tokenOWL The OWL token contract\n    /// @param _tokenGNO The GNO token contract\n    /// @param _endTime The unix epoch timestamp in seconds of the time airdrop ends\n    function OWLAirdrop(TokenOWL _tokenOWL, Token _tokenGNO, uint _endTime)\n        public\n    {\n        require(now <= _endTime);\n        tokenOWL = _tokenOWL;\n        tokenGNO = _tokenGNO;\n        endTime = _endTime;\n    }\n\n    /// @dev Locks GNO inside this contract and mints OWL for GNO if endTime is not past\n    /// @param amount Amount of GNO to lock\n    function lockGNO(uint amount)\n        public\n    {\n        require(now <= endTime && tokenGNO.transferFrom(msg.sender, this, amount));\n        lockedGNO[msg.sender] = lockedGNO[msg.sender].add(amount);\n        tokenOWL.mintOWL(msg.sender, amount.mul(10));\n    }\n\n    /// @dev Withdraws locked GNO if endTime is past\n    function withdrawGNO()\n        public\n    {\n        require(now > endTime && tokenGNO.transfer(msg.sender, lockedGNO[msg.sender]));\n        lockedGNO[msg.sender] = 0;\n    }\n}",
  "sourcePath": "@gnosis.pm/owl-token/contracts/OWLAirdrop.sol",
  "compiler": {
    "name": "solc",
    "version": "0.4.19+commit.c4cbbb05.Emscripten.clang"
  },
  "schemaVersion": "1.0.1",
  "updatedAt": "2018-02-08T13:12:47.986Z"
}