{
  "contractName": "PriceOracleInterface",
  "abi": [
    {
      "constant": true,
      "inputs": [],
      "name": "owner",
      "outputs": [
        {
          "name": "",
          "type": "address"
        }
      ],
      "payable": false,
      "stateMutability": "view",
      "type": "function"
    },
    {
      "constant": true,
      "inputs": [],
      "name": "priceFeedSource",
      "outputs": [
        {
          "name": "",
          "type": "address"
        }
      ],
      "payable": false,
      "stateMutability": "view",
      "type": "function"
    },
    {
      "inputs": [
        {
          "name": "_owner",
          "type": "address"
        },
        {
          "name": "_priceFeedSource",
          "type": "address"
        }
      ],
      "payable": false,
      "stateMutability": "nonpayable",
      "type": "constructor"
    },
    {
      "anonymous": false,
      "inputs": [
        {
          "indexed": false,
          "name": "priceFeedSource",
          "type": "address"
        }
      ],
      "name": "NonValidPriceFeed",
      "type": "event"
    },
    {
      "constant": false,
      "inputs": [
        {
          "name": "_priceFeedSource",
          "type": "address"
        }
      ],
      "name": "updatePriceFeedSource",
      "outputs": [],
      "payable": false,
      "stateMutability": "nonpayable",
      "type": "function"
    },
    {
      "constant": false,
      "inputs": [
        {
          "name": "_owner",
          "type": "address"
        }
      ],
      "name": "updateCurator",
      "outputs": [],
      "payable": false,
      "stateMutability": "nonpayable",
      "type": "function"
    },
    {
      "constant": true,
      "inputs": [],
      "name": "getUSDETHPrice",
      "outputs": [
        {
          "name": "",
          "type": "uint256"
        }
      ],
      "payable": false,
      "stateMutability": "view",
      "type": "function"
    }
  ],
  "bytecode": "0x6060604052341561000f57600080fd5b60405160408061034a833981016040528080519190602001805160018054600160a060020a03958616600160a060020a03199182161790915560008054929095169116178355506102e39182915061006790396000f30060606040526004361061006c5763ffffffff7c01000000000000000000000000000000000000000000000000000000006000350416630c6a62dd81146100715780638da5cb5b14610092578063a3ca17b2146100c1578063aee30dcd146100e6578063c5ace44314610105575b600080fd5b341561007c57600080fd5b610090600160a060020a0360043516610118565b005b341561009d57600080fd5b6100a5610162565b604051600160a060020a03909116815260200160405180910390f35b34156100cc57600080fd5b6100d4610171565b60405190815260200160405180910390f35b34156100f157600080fd5b610090600160a060020a036004351661025e565b341561011057600080fd5b6100a56102a8565b60015433600160a060020a0390811691161461013357600080fd5b6001805473ffffffffffffffffffffffffffffffffffffffff1916600160a060020a0392909216919091179055565b600154600160a060020a031681565b600080548190600190600160a060020a03166359e02dd783604051604001526040518163ffffffff167c01000000000000000000000000000000000000000000000000000000000281526004016040805180830381600087803b15156101d657600080fd5b6102c65a03f115156101e757600080fd5b50505060405180519060200180519193509091505080151561024d576000547f364c0d3d8c056dff125868f781751ed53d48fb1b927b60ab972436741b61e3c990600160a060020a0316604051600160a060020a03909116815260200160405180910390a15b50670de0b6b3a76400009004919050565b60015433600160a060020a0390811691161461027957600080fd5b6000805473ffffffffffffffffffffffffffffffffffffffff1916600160a060020a0392909216919091179055565b600054600160a060020a0316815600a165627a7a723058200d43b2fea009c157751b88dbd8b7644659b0a0012bfc311479145d5ec94627230029",
  "source": "pragma solidity ^0.4.19;\n\n/*\nThis contract is the interface between the MakerDAO priceFeed and our DX platform.\n*/\n\nimport \"../Oracle/PriceFeed.sol\";\nimport \"../Oracle/Medianizer.sol\";\n\ncontract PriceOracleInterface {\n\n    address public priceFeedSource;\n    address public owner;\n    \n    event NonValidPriceFeed(address priceFeedSource);\n\n    // Modifiers\n    modifier onlyOwner() {\n        require(msg.sender == owner);\n        _;\n    }\n\n    /// @dev constructor of the contract\n    /// @param _owner address of owner\n    /// @param _priceFeedSource address of price Feed Source -> should be maker feeds\n    function PriceOracleInterface(\n        address _owner,\n        address _priceFeedSource\n    )\n        public\n    {\n        owner = _owner;\n        priceFeedSource = _priceFeedSource;\n    }\n   \n    /// @dev updates the priceFeedSource\n    /// @param _priceFeedSource address of price Feed Source -> should be maker feeds\n    function updatePriceFeedSource(\n        address _priceFeedSource\n    )\n        public\n        onlyOwner()\n    {\n        priceFeedSource = _priceFeedSource;\n    }\n\n    /// @dev updates the priceFeedSource\n    /// @param _owner address of owner\n    function updateCurator(\n        address _owner\n    )\n        public\n        onlyOwner()\n    {\n        owner = _owner;\n    }\n\n    /// @dev returns the USDETH price, ie gets the USD price from Maker feed with 18 digits, but last 18 digits are cut off\n    function getUSDETHPrice() \n        public\n        view\n        returns (uint256)\n    {\n        bytes32 price;\n        bool valid=true;\n        (price, valid) = Medianizer(priceFeedSource).peek();\n        if (!valid) {\n            NonValidPriceFeed(priceFeedSource);\n        }\n        return uint256(price)/(1 ether);\n    }  \n}\n",
  "sourcePath": "/home/josojo/gnosis/dutch-exchange/contracts/Oracle/PriceOracleInterface.sol",
  "compiler": {
    "name": "solc",
    "version": "0.4.19+commit.c4cbbb05.Emscripten.clang"
  },
  "schemaVersion": "1.0.1",
  "updatedAt": "2018-02-08T10:41:43.482Z"
}