{
  "contractName": "TokenOWL",
  "abi": [
    {
      "constant": true,
      "inputs": [],
      "name": "creator",
      "outputs": [
        {
          "name": "",
          "type": "address"
        }
      ],
      "payable": false,
      "stateMutability": "view",
      "type": "function"
    },
    {
      "constant": true,
      "inputs": [],
      "name": "name",
      "outputs": [
        {
          "name": "",
          "type": "string"
        }
      ],
      "payable": false,
      "stateMutability": "view",
      "type": "function"
    },
    {
      "constant": true,
      "inputs": [],
      "name": "minter",
      "outputs": [
        {
          "name": "",
          "type": "address"
        }
      ],
      "payable": false,
      "stateMutability": "view",
      "type": "function"
    },
    {
      "constant": false,
      "inputs": [
        {
          "name": "spender",
          "type": "address"
        },
        {
          "name": "value",
          "type": "uint256"
        }
      ],
      "name": "approve",
      "outputs": [
        {
          "name": "",
          "type": "bool"
        }
      ],
      "payable": false,
      "stateMutability": "nonpayable",
      "type": "function"
    },
    {
      "constant": true,
      "inputs": [],
      "name": "totalSupply",
      "outputs": [
        {
          "name": "",
          "type": "uint256"
        }
      ],
      "payable": false,
      "stateMutability": "view",
      "type": "function"
    },
    {
      "constant": false,
      "inputs": [
        {
          "name": "from",
          "type": "address"
        },
        {
          "name": "to",
          "type": "address"
        },
        {
          "name": "value",
          "type": "uint256"
        }
      ],
      "name": "transferFrom",
      "outputs": [
        {
          "name": "",
          "type": "bool"
        }
      ],
      "payable": false,
      "stateMutability": "nonpayable",
      "type": "function"
    },
    {
      "constant": true,
      "inputs": [],
      "name": "decimals",
      "outputs": [
        {
          "name": "",
          "type": "uint8"
        }
      ],
      "payable": false,
      "stateMutability": "view",
      "type": "function"
    },
    {
      "constant": true,
      "inputs": [
        {
          "name": "owner",
          "type": "address"
        }
      ],
      "name": "balanceOf",
      "outputs": [
        {
          "name": "",
          "type": "uint256"
        }
      ],
      "payable": false,
      "stateMutability": "view",
      "type": "function"
    },
    {
      "constant": true,
      "inputs": [],
      "name": "symbol",
      "outputs": [
        {
          "name": "",
          "type": "string"
        }
      ],
      "payable": false,
      "stateMutability": "view",
      "type": "function"
    },
    {
      "constant": false,
      "inputs": [
        {
          "name": "to",
          "type": "address"
        },
        {
          "name": "value",
          "type": "uint256"
        }
      ],
      "name": "transfer",
      "outputs": [
        {
          "name": "",
          "type": "bool"
        }
      ],
      "payable": false,
      "stateMutability": "nonpayable",
      "type": "function"
    },
    {
      "constant": true,
      "inputs": [
        {
          "name": "owner",
          "type": "address"
        },
        {
          "name": "spender",
          "type": "address"
        }
      ],
      "name": "allowance",
      "outputs": [
        {
          "name": "",
          "type": "uint256"
        }
      ],
      "payable": false,
      "stateMutability": "view",
      "type": "function"
    },
    {
      "anonymous": false,
      "inputs": [
        {
          "indexed": true,
          "name": "to",
          "type": "address"
        },
        {
          "indexed": false,
          "name": "amount",
          "type": "uint256"
        }
      ],
      "name": "Minted",
      "type": "event"
    },
    {
      "anonymous": false,
      "inputs": [
        {
          "indexed": true,
          "name": "from",
          "type": "address"
        },
        {
          "indexed": false,
          "name": "amount",
          "type": "uint256"
        }
      ],
      "name": "Burnt",
      "type": "event"
    },
    {
      "anonymous": false,
      "inputs": [
        {
          "indexed": true,
          "name": "from",
          "type": "address"
        },
        {
          "indexed": true,
          "name": "to",
          "type": "address"
        },
        {
          "indexed": false,
          "name": "value",
          "type": "uint256"
        }
      ],
      "name": "Transfer",
      "type": "event"
    },
    {
      "anonymous": false,
      "inputs": [
        {
          "indexed": true,
          "name": "owner",
          "type": "address"
        },
        {
          "indexed": true,
          "name": "spender",
          "type": "address"
        },
        {
          "indexed": false,
          "name": "value",
          "type": "uint256"
        }
      ],
      "name": "Approval",
      "type": "event"
    },
    {
      "constant": false,
      "inputs": [
        {
          "name": "_masterCopy",
          "type": "address"
        }
      ],
      "name": "startMasterCopyCountdown",
      "outputs": [],
      "payable": false,
      "stateMutability": "nonpayable",
      "type": "function"
    },
    {
      "constant": false,
      "inputs": [],
      "name": "updateMasterCopy",
      "outputs": [],
      "payable": false,
      "stateMutability": "nonpayable",
      "type": "function"
    },
    {
      "constant": false,
      "inputs": [
        {
          "name": "newMinter",
          "type": "address"
        }
      ],
      "name": "setMinter",
      "outputs": [],
      "payable": false,
      "stateMutability": "nonpayable",
      "type": "function"
    },
    {
      "constant": false,
      "inputs": [
        {
          "name": "to",
          "type": "address"
        },
        {
          "name": "amount",
          "type": "uint256"
        }
      ],
      "name": "mintOWL",
      "outputs": [],
      "payable": false,
      "stateMutability": "nonpayable",
      "type": "function"
    },
    {
      "constant": false,
      "inputs": [
        {
          "name": "amount",
          "type": "uint256"
        }
      ],
      "name": "burnOWL",
      "outputs": [],
      "payable": false,
      "stateMutability": "nonpayable",
      "type": "function"
    },
    {
      "constant": false,
      "inputs": [],
      "name": "getMasterCopy",
      "outputs": [
        {
          "name": "",
          "type": "address"
        }
      ],
      "payable": false,
      "stateMutability": "nonpayable",
      "type": "function"
    }
  ],
  "bytecode": "0x6060604052341561000f57600080fd5b610d3b8061001e6000396000f3006060604052600436106100d75763ffffffff60e060020a60003504166302d05d3f81146100dc57806304e80e901461010b57806306fdde031461011e57806307546172146101a8578063095ea7b3146101bb57806318160ddd146101f157806323b872dd146102165780632cef4dac1461023e578063313ce567146102535780634346c5ac1461027c57806370a082311461029257806395d89b41146102b1578063a9059cbb146102c4578063dd62ed3e146102e6578063f52a41f31461030b578063f625ee281461032d578063fca3b5aa1461034c575b600080fd5b34156100e757600080fd5b6100ef61036b565b604051600160a060020a03909116815260200160405180910390f35b341561011657600080fd5b6100ef61037a565b341561012957600080fd5b610131610389565b60405160208082528190810183818151815260200191508051906020019080838360005b8381101561016d578082015183820152602001610155565b50505050905090810190601f16801561019a5780820380516001836020036101000a031916815260200191505b509250505060405180910390f35b34156101b357600080fd5b6100ef6103c0565b34156101c657600080fd5b6101dd600160a060020a03600435166024356103cf565b604051901515815260200160405180910390f35b34156101fc57600080fd5b61020461043c565b60405190815260200160405180910390f35b341561022157600080fd5b6101dd600160a060020a0360043581169060243516604435610442565b341561024957600080fd5b6102516106b3565b005b341561025e57600080fd5b610266610725565b60405160ff909116815260200160405180910390f35b341561028757600080fd5b61025160043561072a565b341561029d57600080fd5b610204600160a060020a0360043516610896565b34156102bc57600080fd5b6101316108b1565b34156102cf57600080fd5b6101dd600160a060020a03600435166024356108e8565b34156102f157600080fd5b610204600160a060020a0360043581169060243516610a92565b341561031657600080fd5b610251600160a060020a0360043516602435610abd565b341561033857600080fd5b610251600160a060020a0360043516610c5d565b341561035757600080fd5b610251600160a060020a0360043516610cc5565b600654600160a060020a031681565b600054600160a060020a031690565b60408051908101604052600981527f4f574c20546f6b656e0000000000000000000000000000000000000000000000602082015281565b600754600160a060020a031681565b600160a060020a03338116600081815260026020908152604080832094871680845294909152808220859055909291907f8c5be1e5ebec7d5bd14f71427d1e84f3dd0314c0f7b2291e5b200ac8c7c3b9259085905190815260200160405180910390a35060015b92915050565b60035490565b600160a060020a0383166000908152600160205260408082205473__Math__________________________________9163e31c71c4919085908590516020015260405160e060020a63ffffffff85160281526004810192909252602482015260440160206040518083038186803b15156104bb57600080fd5b6102c65a03f415156104cc57600080fd5b50505060405180519050158061057f5750600160a060020a0380851660009081526002602090815260408083203390941683529290528181205473__Math__________________________________9263e31c71c4928691516020015260405160e060020a63ffffffff85160281526004810192909252602482015260440160206040518083038186803b151561056257600080fd5b6102c65a03f4151561057357600080fd5b50505060405180519050155b806106195750600160a060020a0383166000908152600160205260408082205473__Math__________________________________92634e30a66c92869190516020015260405160e060020a63ffffffff85160281526004810192909252602482015260440160206040518083038186803b15156105fc57600080fd5b6102c65a03f4151561060d57600080fd5b50505060405180519050155b15610626575060006106ac565b600160a060020a0380851660008181526001602081815260408084208054899003905560028252808420338716855282528084208054899003905594881680845291905290839020805486019055917fddf252ad1be2c89b69c2b068fc378daa952ba7f163c4a11628f55a4df523b3ef9085905190815260200160405180910390a35060015b9392505050565b60065433600160a060020a039081169116146106ce57600080fd5b600454600160a060020a031615156106e557600080fd5b6005544210156106f457600080fd5b6004546000805473ffffffffffffffffffffffffffffffffffffffff1916600160a060020a03909216919091179055565b601281565b600160a060020a0333166000908152600160205260408082205473__Math__________________________________9263b67d77c592859190516020015260405160e060020a63ffffffff85160281526004810192909252602482015260440160206040518083038186803b15156107a157600080fd5b6102c65a03f415156107b257600080fd5b5050506040518051600160a060020a0333166000908152600160205260408082209290925560035473__Math__________________________________935063b67d77c59290918591516020015260405160e060020a63ffffffff85160281526004810192909252602482015260440160206040518083038186803b151561083957600080fd5b6102c65a03f4151561084a57600080fd5b505050604051805160035550600160a060020a0333167f919f7e2092ffcc9d09f599be18d8152860b0c054df788a33bc549cdd9d0f15b18260405190815260200160405180910390a250565b600160a060020a031660009081526001602052604090205490565b60408051908101604052600381527f4f574c0000000000000000000000000000000000000000000000000000000000602082015281565b600160a060020a0333166000908152600160205260408082205473__Math__________________________________9163e31c71c4919085908590516020015260405160e060020a63ffffffff85160281526004810192909252602482015260440160206040518083038186803b151561096157600080fd5b6102c65a03f4151561097257600080fd5b505050604051805190501580610a175750600160a060020a0383166000908152600160205260408082205473__Math__________________________________92634e30a66c92869190516020015260405160e060020a63ffffffff85160281526004810192909252602482015260440160206040518083038186803b15156109fa57600080fd5b6102c65a03f41515610a0b57600080fd5b50505060405180519050155b15610a2457506000610436565b600160a060020a033381166000818152600160205260408082208054879003905592861680825290839020805486019055917fddf252ad1be2c89b69c2b068fc378daa952ba7f163c4a11628f55a4df523b3ef9085905190815260200160405180910390a350600192915050565b600160a060020a03918216600090815260026020908152604080832093909416825291909152205490565b600754600160a060020a031615801590610ae5575060075433600160a060020a039081169116145b1515610af057600080fd5b600160a060020a0382166000908152600160205260408082205473__Math__________________________________9263771602f792859190516020015260405160e060020a63ffffffff85160281526004810192909252602482015260440160206040518083038186803b1515610b6757600080fd5b6102c65a03f41515610b7857600080fd5b5050506040518051600160a060020a0384166000908152600160205260408082209290925560035473__Math__________________________________935063771602f79290918591516020015260405160e060020a63ffffffff85160281526004810192909252602482015260440160206040518083038186803b1515610bff57600080fd5b6102c65a03f41515610c1057600080fd5b505050604051805160035550600160a060020a0382167f30385c845b448a36257a6a1716e6ad2e1bc2cbe333cde1e69fe849ad6511adfe8260405190815260200160405180910390a25050565b60065433600160a060020a03908116911614610c7857600080fd5b600160a060020a0381161515610c8d57600080fd5b6004805473ffffffffffffffffffffffffffffffffffffffff1916600160a060020a03929092169190911790554262278d0001600555565b60065433600160a060020a03908116911614610ce057600080fd5b6007805473ffffffffffffffffffffffffffffffffffffffff1916600160a060020a03929092169190911790555600a165627a7a723058206e33b6f8078f845042db0efc2c03e09b6200b92d11ff4591346af986c71609790029",
  "source": "pragma solidity ^0.4.18;\n\nimport \"@gnosis.pm/gnosis-core-contracts/contracts/Utils/Math.sol\";\nimport \"@gnosis.pm/gnosis-core-contracts/contracts/Tokens/StandardToken.sol\";\nimport \"./ProxyMaster.sol\";\n\n\ncontract TokenOWL is ProxiedMaster, StandardToken {\n    using Math for *;\n\n    string public constant name = \"OWL Token\";\n    string public constant symbol = \"OWL\";\n    uint8 public constant decimals = 18;\n\n    struct masterCopyCountdownType {\n        address masterCopy;\n        uint timeWhenAvailable;\n    }\n\n    masterCopyCountdownType masterCopyCountdown;\n\n    address public creator;\n    address public minter;\n\n\n    event Minted(address indexed to, uint256 amount);\n    event Burnt(address indexed from, uint256 amount);\n\n    modifier onlyCreator() {\n        // R1\n        require(msg.sender == creator);\n        // if (msg.sender != auctioneer) {\n        //     Log('onlyAuctioneer R1');\n        //     return;\n        // }\n        _;\n    }\n    /// @dev trickers the update process via the proxyMaster for a new address _masterCopy \n    /// updating is only possible after 30 days\n    function startMasterCopyCountdown (\n        address _masterCopy\n     )\n        public\n        onlyCreator()\n    {\n        require(address(_masterCopy) != 0);\n\n        // Update masterCopyCountdown\n        masterCopyCountdown.masterCopy = _masterCopy;\n        masterCopyCountdown.timeWhenAvailable = now + 30 days;\n    }\n\n     /// @dev executes the update process via the proxyMaster for a new address _masterCopy\n    function updateMasterCopy()\n        public\n        onlyCreator()\n    {   \n        require(address(masterCopyCountdown.masterCopy) != 0);\n        require(now >= masterCopyCountdown.timeWhenAvailable);\n\n        // Update masterCopy\n        masterCopy = masterCopyCountdown.masterCopy;\n    }\n\n    /// @dev Set minter. Only the creator of this contract can call this.\n    /// @param newMinter The new address authorized to mint this token\n    function setMinter(address newMinter)\n        public\n        onlyCreator()\n    {\n        minter = newMinter;\n    }\n\n    /// @dev Mints OWL.\n    /// @param to Address to which the minted token will be given\n    /// @param amount Amount of OWL to be minted\n    function mintOWL(address to, uint amount)\n        public\n    {\n        require(minter != 0 && msg.sender == minter);\n        balances[to] = balances[to].add(amount);\n        totalTokens = totalTokens.add(amount);\n        Minted(to, amount);\n    }\n\n    /// @dev Burns OWL.\n    /// @param amount Amount of OWL to be burnt\n    function burnOWL(uint amount)\n        public\n    {\n        balances[msg.sender] = balances[msg.sender].sub(amount);\n        totalTokens = totalTokens.sub(amount);\n        Burnt(msg.sender, amount);\n    }\n    \n    function getMasterCopy()\n        public\n        returns(address)\n    {\n        return masterCopy;\n    }\n\n}\n",
  "sourcePath": "@gnosis.pm/owl-token/contracts/TokenOWL.sol",
  "compiler": {
    "name": "solc",
    "version": "0.4.19+commit.c4cbbb05.Emscripten.clang"
  },
  "schemaVersion": "1.0.1",
  "updatedAt": "2018-02-07T10:35:21.082Z"
}