{
  "contractName": "TokenOWLProxy",
  "abi": [
    {
      "constant": true,
      "inputs": [],
      "name": "creator",
      "outputs": [
        {
          "name": "",
          "type": "address"
        }
      ],
      "payable": false,
      "stateMutability": "view",
      "type": "function"
    },
    {
      "constant": true,
      "inputs": [],
      "name": "name",
      "outputs": [
        {
          "name": "",
          "type": "string"
        }
      ],
      "payable": false,
      "stateMutability": "view",
      "type": "function"
    },
    {
      "constant": true,
      "inputs": [],
      "name": "minter",
      "outputs": [
        {
          "name": "",
          "type": "address"
        }
      ],
      "payable": false,
      "stateMutability": "view",
      "type": "function"
    },
    {
      "constant": false,
      "inputs": [
        {
          "name": "spender",
          "type": "address"
        },
        {
          "name": "value",
          "type": "uint256"
        }
      ],
      "name": "approve",
      "outputs": [
        {
          "name": "",
          "type": "bool"
        }
      ],
      "payable": false,
      "stateMutability": "nonpayable",
      "type": "function"
    },
    {
      "constant": true,
      "inputs": [],
      "name": "totalSupply",
      "outputs": [
        {
          "name": "",
          "type": "uint256"
        }
      ],
      "payable": false,
      "stateMutability": "view",
      "type": "function"
    },
    {
      "constant": false,
      "inputs": [
        {
          "name": "from",
          "type": "address"
        },
        {
          "name": "to",
          "type": "address"
        },
        {
          "name": "value",
          "type": "uint256"
        }
      ],
      "name": "transferFrom",
      "outputs": [
        {
          "name": "",
          "type": "bool"
        }
      ],
      "payable": false,
      "stateMutability": "nonpayable",
      "type": "function"
    },
    {
      "constant": true,
      "inputs": [],
      "name": "decimals",
      "outputs": [
        {
          "name": "",
          "type": "uint8"
        }
      ],
      "payable": false,
      "stateMutability": "view",
      "type": "function"
    },
    {
      "constant": true,
      "inputs": [
        {
          "name": "owner",
          "type": "address"
        }
      ],
      "name": "balanceOf",
      "outputs": [
        {
          "name": "",
          "type": "uint256"
        }
      ],
      "payable": false,
      "stateMutability": "view",
      "type": "function"
    },
    {
      "constant": true,
      "inputs": [],
      "name": "symbol",
      "outputs": [
        {
          "name": "",
          "type": "string"
        }
      ],
      "payable": false,
      "stateMutability": "view",
      "type": "function"
    },
    {
      "constant": false,
      "inputs": [
        {
          "name": "to",
          "type": "address"
        },
        {
          "name": "value",
          "type": "uint256"
        }
      ],
      "name": "transfer",
      "outputs": [
        {
          "name": "",
          "type": "bool"
        }
      ],
      "payable": false,
      "stateMutability": "nonpayable",
      "type": "function"
    },
    {
      "constant": true,
      "inputs": [
        {
          "name": "owner",
          "type": "address"
        },
        {
          "name": "spender",
          "type": "address"
        }
      ],
      "name": "allowance",
      "outputs": [
        {
          "name": "",
          "type": "uint256"
        }
      ],
      "payable": false,
      "stateMutability": "view",
      "type": "function"
    },
    {
      "inputs": [
        {
          "name": "proxied",
          "type": "address"
        }
      ],
      "payable": false,
      "stateMutability": "nonpayable",
      "type": "constructor"
    },
    {
      "payable": true,
      "stateMutability": "payable",
      "type": "fallback"
    },
    {
      "anonymous": false,
      "inputs": [
        {
          "indexed": true,
          "name": "from",
          "type": "address"
        },
        {
          "indexed": true,
          "name": "to",
          "type": "address"
        },
        {
          "indexed": false,
          "name": "value",
          "type": "uint256"
        }
      ],
      "name": "Transfer",
      "type": "event"
    },
    {
      "anonymous": false,
      "inputs": [
        {
          "indexed": true,
          "name": "owner",
          "type": "address"
        },
        {
          "indexed": true,
          "name": "spender",
          "type": "address"
        },
        {
          "indexed": false,
          "name": "value",
          "type": "uint256"
        }
      ],
      "name": "Approval",
      "type": "event"
    }
  ],
  "bytecode": "0x6060604052341561000f57600080fd5b6040516020806108c6833981016040528080519150819050600160a060020a038116151561003c57600080fd5b60008054600160a060020a03928316600160a060020a031991821617909155600680543390931692909116919091179055506108498061007d6000396000f3006060604052600436106100955763ffffffff60e060020a60003504166302d05d3f81146100c757806306fdde03146100f65780630754617214610180578063095ea7b31461019357806318160ddd146101c957806323b872dd146101ee578063313ce5671461021657806370a082311461023f57806395d89b411461025e578063a9059cbb14610271578063dd62ed3e14610293575b60008054600160a060020a03169036908037600080368184600019f43d6000803e8080156100c2573d6000f35b3d6000fd5b34156100d257600080fd5b6100da6102b8565b604051600160a060020a03909116815260200160405180910390f35b341561010157600080fd5b6101096102c7565b60405160208082528190810183818151815260200191508051906020019080838360005b8381101561014557808201518382015260200161012d565b50505050905090810190601f1680156101725780820380516001836020036101000a031916815260200191505b509250505060405180910390f35b341561018b57600080fd5b6100da6102fe565b341561019e57600080fd5b6101b5600160a060020a036004351660243561030d565b604051901515815260200160405180910390f35b34156101d457600080fd5b6101dc61037a565b60405190815260200160405180910390f35b34156101f957600080fd5b6101b5600160a060020a0360043581169060243516604435610380565b341561022157600080fd5b6102296105f1565b60405160ff909116815260200160405180910390f35b341561024a57600080fd5b6101dc600160a060020a03600435166105f6565b341561026957600080fd5b610109610611565b341561027c57600080fd5b6101b5600160a060020a0360043516602435610648565b341561029e57600080fd5b6101dc600160a060020a03600435811690602435166107f2565b600654600160a060020a031681565b60408051908101604052600981527f4f574c20546f6b656e0000000000000000000000000000000000000000000000602082015281565b600754600160a060020a031681565b600160a060020a03338116600081815260026020908152604080832094871680845294909152808220859055909291907f8c5be1e5ebec7d5bd14f71427d1e84f3dd0314c0f7b2291e5b200ac8c7c3b9259085905190815260200160405180910390a35060015b92915050565b60035490565b600160a060020a0383166000908152600160205260408082205473__Math__________________________________9163e31c71c4919085908590516020015260405160e060020a63ffffffff85160281526004810192909252602482015260440160206040518083038186803b15156103f957600080fd5b6102c65a03f4151561040a57600080fd5b5050506040518051905015806104bd5750600160a060020a0380851660009081526002602090815260408083203390941683529290528181205473__Math__________________________________9263e31c71c4928691516020015260405160e060020a63ffffffff85160281526004810192909252602482015260440160206040518083038186803b15156104a057600080fd5b6102c65a03f415156104b157600080fd5b50505060405180519050155b806105575750600160a060020a0383166000908152600160205260408082205473__Math__________________________________92634e30a66c92869190516020015260405160e060020a63ffffffff85160281526004810192909252602482015260440160206040518083038186803b151561053a57600080fd5b6102c65a03f4151561054b57600080fd5b50505060405180519050155b15610564575060006105ea565b600160a060020a0380851660008181526001602081815260408084208054899003905560028252808420338716855282528084208054899003905594881680845291905290839020805486019055917fddf252ad1be2c89b69c2b068fc378daa952ba7f163c4a11628f55a4df523b3ef9085905190815260200160405180910390a35060015b9392505050565b601281565b600160a060020a031660009081526001602052604090205490565b60408051908101604052600381527f4f574c0000000000000000000000000000000000000000000000000000000000602082015281565b600160a060020a0333166000908152600160205260408082205473__Math__________________________________9163e31c71c4919085908590516020015260405160e060020a63ffffffff85160281526004810192909252602482015260440160206040518083038186803b15156106c157600080fd5b6102c65a03f415156106d257600080fd5b5050506040518051905015806107775750600160a060020a0383166000908152600160205260408082205473__Math__________________________________92634e30a66c92869190516020015260405160e060020a63ffffffff85160281526004810192909252602482015260440160206040518083038186803b151561075a57600080fd5b6102c65a03f4151561076b57600080fd5b50505060405180519050155b1561078457506000610374565b600160a060020a033381166000818152600160205260408082208054879003905592861680825290839020805486019055917fddf252ad1be2c89b69c2b068fc378daa952ba7f163c4a11628f55a4df523b3ef9085905190815260200160405180910390a350600192915050565b600160a060020a039182166000908152600260209081526040808320939094168252919091522054905600a165627a7a72305820f96646a192484256efac19f6bc8e94d129fd6011ebd07ab8e5156635a04a7b9d0029",
  "source": "import \"@gnosis.pm/gnosis-core-contracts/contracts/Tokens/StandardToken.sol\";\nimport \"./ProxyMaster.sol\";\n\ncontract TokenOWLProxy is ProxyMaster, StandardToken {\n    using Math for *;\n\n    string public constant name = \"OWL Token\";\n    string public constant symbol = \"OWL\";\n    uint8 public constant decimals = 18;\n\n    struct masterCopyCountdownType {\n        address masterCopy;\n        uint timeWhenAvailable;\n    }\n\n    masterCopyCountdownType masterCopyCountdown;\n\n    address public creator;\n    address public minter;\n\n    /// @dev Constructor of the contract OWL, which distributes tokens\n    function TokenOWLProxy(address proxied)\n        ProxyMaster(proxied)\n        public\n    {\n        creator = msg.sender;\n    }\n}",
  "sourcePath": "@gnosis.pm/owl-token/contracts/TokenOWLProxy.sol",
  "compiler": {
    "name": "solc",
    "version": "0.4.19+commit.c4cbbb05.Emscripten.clang"
  },
  "schemaVersion": "1.0.1",
  "updatedAt": "2018-02-07T10:35:21.079Z"
}