{
  "contractName": "TokenTUL",
  "abi": [
    {
      "constant": true,
      "inputs": [],
      "name": "minter",
      "outputs": [
        {
          "name": "",
          "type": "address"
        }
      ],
      "payable": false,
      "stateMutability": "view",
      "type": "function"
    },
    {
      "constant": false,
      "inputs": [
        {
          "name": "spender",
          "type": "address"
        },
        {
          "name": "value",
          "type": "uint256"
        }
      ],
      "name": "approve",
      "outputs": [
        {
          "name": "",
          "type": "bool"
        }
      ],
      "payable": false,
      "stateMutability": "nonpayable",
      "type": "function"
    },
    {
      "constant": true,
      "inputs": [],
      "name": "totalSupply",
      "outputs": [
        {
          "name": "",
          "type": "uint256"
        }
      ],
      "payable": false,
      "stateMutability": "view",
      "type": "function"
    },
    {
      "constant": false,
      "inputs": [
        {
          "name": "from",
          "type": "address"
        },
        {
          "name": "to",
          "type": "address"
        },
        {
          "name": "value",
          "type": "uint256"
        }
      ],
      "name": "transferFrom",
      "outputs": [
        {
          "name": "",
          "type": "bool"
        }
      ],
      "payable": false,
      "stateMutability": "nonpayable",
      "type": "function"
    },
    {
      "constant": true,
      "inputs": [
        {
          "name": "owner",
          "type": "address"
        }
      ],
      "name": "balanceOf",
      "outputs": [
        {
          "name": "",
          "type": "uint256"
        }
      ],
      "payable": false,
      "stateMutability": "view",
      "type": "function"
    },
    {
      "constant": true,
      "inputs": [
        {
          "name": "",
          "type": "address"
        }
      ],
      "name": "lockedTULBalances",
      "outputs": [
        {
          "name": "",
          "type": "uint256"
        }
      ],
      "payable": false,
      "stateMutability": "view",
      "type": "function"
    },
    {
      "constant": true,
      "inputs": [],
      "name": "owner",
      "outputs": [
        {
          "name": "",
          "type": "address"
        }
      ],
      "payable": false,
      "stateMutability": "view",
      "type": "function"
    },
    {
      "constant": true,
      "inputs": [
        {
          "name": "",
          "type": "address"
        }
      ],
      "name": "unlockedTULs",
      "outputs": [
        {
          "name": "amountUnlocked",
          "type": "uint256"
        },
        {
          "name": "withdrawalTime",
          "type": "uint256"
        }
      ],
      "payable": false,
      "stateMutability": "view",
      "type": "function"
    },
    {
      "constant": false,
      "inputs": [
        {
          "name": "to",
          "type": "address"
        },
        {
          "name": "value",
          "type": "uint256"
        }
      ],
      "name": "transfer",
      "outputs": [
        {
          "name": "",
          "type": "bool"
        }
      ],
      "payable": false,
      "stateMutability": "nonpayable",
      "type": "function"
    },
    {
      "constant": true,
      "inputs": [
        {
          "name": "owner",
          "type": "address"
        },
        {
          "name": "spender",
          "type": "address"
        }
      ],
      "name": "allowance",
      "outputs": [
        {
          "name": "",
          "type": "uint256"
        }
      ],
      "payable": false,
      "stateMutability": "view",
      "type": "function"
    },
    {
      "inputs": [
        {
          "name": "_owner",
          "type": "address"
        },
        {
          "name": "_minter",
          "type": "address"
        }
      ],
      "payable": false,
      "stateMutability": "nonpayable",
      "type": "constructor"
    },
    {
      "anonymous": false,
      "inputs": [
        {
          "indexed": true,
          "name": "from",
          "type": "address"
        },
        {
          "indexed": true,
          "name": "to",
          "type": "address"
        },
        {
          "indexed": false,
          "name": "value",
          "type": "uint256"
        }
      ],
      "name": "Transfer",
      "type": "event"
    },
    {
      "anonymous": false,
      "inputs": [
        {
          "indexed": true,
          "name": "owner",
          "type": "address"
        },
        {
          "indexed": true,
          "name": "spender",
          "type": "address"
        },
        {
          "indexed": false,
          "name": "value",
          "type": "uint256"
        }
      ],
      "name": "Approval",
      "type": "event"
    },
    {
      "constant": false,
      "inputs": [
        {
          "name": "_owner",
          "type": "address"
        }
      ],
      "name": "updateOwner",
      "outputs": [],
      "payable": false,
      "stateMutability": "nonpayable",
      "type": "function"
    },
    {
      "constant": false,
      "inputs": [
        {
          "name": "_minter",
          "type": "address"
        }
      ],
      "name": "updateMinter",
      "outputs": [],
      "payable": false,
      "stateMutability": "nonpayable",
      "type": "function"
    },
    {
      "constant": false,
      "inputs": [
        {
          "name": "user",
          "type": "address"
        },
        {
          "name": "amount",
          "type": "uint256"
        }
      ],
      "name": "mintTokens",
      "outputs": [],
      "payable": false,
      "stateMutability": "nonpayable",
      "type": "function"
    },
    {
      "constant": false,
      "inputs": [
        {
          "name": "amount",
          "type": "uint256"
        }
      ],
      "name": "lockTokens",
      "outputs": [
        {
          "name": "totalAmountLocked",
          "type": "uint256"
        }
      ],
      "payable": false,
      "stateMutability": "nonpayable",
      "type": "function"
    },
    {
      "constant": false,
      "inputs": [
        {
          "name": "amount",
          "type": "uint256"
        }
      ],
      "name": "unlockTokens",
      "outputs": [
        {
          "name": "totalAmountUnlocked",
          "type": "uint256"
        },
        {
          "name": "withdrawalTime",
          "type": "uint256"
        }
      ],
      "payable": false,
      "stateMutability": "nonpayable",
      "type": "function"
    },
    {
      "constant": false,
      "inputs": [],
      "name": "withdrawUnlockedTokens",
      "outputs": [],
      "payable": false,
      "stateMutability": "nonpayable",
      "type": "function"
    },
    {
      "constant": true,
      "inputs": [
        {
          "name": "a",
          "type": "uint256"
        },
        {
          "name": "b",
          "type": "uint256"
        }
      ],
      "name": "min",
      "outputs": [
        {
          "name": "",
          "type": "uint256"
        }
      ],
      "payable": false,
      "stateMutability": "pure",
      "type": "function"
    }
  ],
  "bytecode": "0x6060604052341561000f57600080fd5b604051604080610b00833981016040528080519190602001805160038054600160a060020a03958616600160a060020a031991821617909155600480549290951691161790925550610a989050806100686000396000f3006060604052600436106100d75763ffffffff60e060020a6000350416630754617281146100dc578063095ea7b31461010b57806318160ddd1461014157806323b872dd146101665780634eb03f6e1461018e5780636e27d889146101af57806370a08231146101c55780637ae2b5c7146101e45780637c405325146101fd57806381a1ac091461022b578063880cdc311461024a5780638da5cb5b14610269578063a38216d01461027c578063a9059cbb1461029b578063c17ccc6c146102bd578063dd62ed3e146102d0578063f0dda65c146102f5575b600080fd5b34156100e757600080fd5b6100ef610317565b604051600160a060020a03909116815260200160405180910390f35b341561011657600080fd5b61012d600160a060020a0360043516602435610326565b604051901515815260200160405180910390f35b341561014c57600080fd5b610154610393565b60405190815260200160405180910390f35b341561017157600080fd5b61012d600160a060020a0360043581169060243516604435610399565b341561019957600080fd5b6101ad600160a060020a0360043516610609565b005b34156101ba57600080fd5b610154600435610653565b34156101d057600080fd5b610154600160a060020a03600435166106ad565b34156101ef57600080fd5b6101546004356024356106c8565b341561020857600080fd5b6102136004356106e0565b60405191825260208201526040908101905180910390f35b341561023657600080fd5b610154600160a060020a0360043516610775565b341561025557600080fd5b6101ad600160a060020a0360043516610787565b341561027457600080fd5b6100ef6107d1565b341561028757600080fd5b610213600160a060020a03600435166107e0565b34156102a657600080fd5b61012d600160a060020a03600435166024356107f9565b34156102c857600080fd5b6101ad6109a3565b34156102db57600080fd5b610154600160a060020a03600435811690602435166109fc565b341561030057600080fd5b6101ad600160a060020a0360043516602435610a27565b600454600160a060020a031681565b600160a060020a03338116600081815260016020908152604080832094871680845294909152808220859055909291907f8c5be1e5ebec7d5bd14f71427d1e84f3dd0314c0f7b2291e5b200ac8c7c3b9259085905190815260200160405180910390a35060015b92915050565b60025490565b600160a060020a0383166000908152602081905260408082205473__Math__________________________________9163e31c71c4919085908590516020015260405160e060020a63ffffffff85160281526004810192909252602482015260440160206040518083038186803b151561041257600080fd5b6102c65a03f4151561042357600080fd5b5050506040518051905015806104d65750600160a060020a0380851660009081526001602090815260408083203390941683529290528181205473__Math__________________________________9263e31c71c4928691516020015260405160e060020a63ffffffff85160281526004810192909252602482015260440160206040518083038186803b15156104b957600080fd5b6102c65a03f415156104ca57600080fd5b50505060405180519050155b806105705750600160a060020a0383166000908152602081905260408082205473__Math__________________________________92634e30a66c92869190516020015260405160e060020a63ffffffff85160281526004810192909252602482015260440160206040518083038186803b151561055357600080fd5b6102c65a03f4151561056457600080fd5b50505060405180519050155b1561057d57506000610602565b600160a060020a03808516600081815260208181526040808320805488900390556001825280832033861684528252808320805488900390559387168083529082905290839020805486019055917fddf252ad1be2c89b69c2b068fc378daa952ba7f163c4a11628f55a4df523b3ef9085905190815260200160405180910390a35060015b9392505050565b60035433600160a060020a0390811691161461062457600080fd5b6004805473ffffffffffffffffffffffffffffffffffffffff1916600160a060020a0392909216919091179055565b600160a060020a0333166000908152602081905260408120546106779083906106c8565b600160a060020a033316600090815260208181526040808320805485900390556006909152902080549091019081905592915050565b600160a060020a031660009081526020819052604090205490565b6000818310156106d957508161038d565b508061038d565b600160a060020a03331660009081526006602052604081205481906107069084906106c8565b9250600083111561074e57600160a060020a03331660009081526006602090815260408083208054879003905560059091529020805484018155620151804201600191909101555b505050600160a060020a033316600090815260056020526040902080546001909101549091565b60066020526000908152604090205481565b60035433600160a060020a039081169116146107a257600080fd5b6003805473ffffffffffffffffffffffffffffffffffffffff1916600160a060020a0392909216919091179055565b600354600160a060020a031681565b6005602052600090815260409020805460019091015482565b600160a060020a0333166000908152602081905260408082205473__Math__________________________________9163e31c71c4919085908590516020015260405160e060020a63ffffffff85160281526004810192909252602482015260440160206040518083038186803b151561087257600080fd5b6102c65a03f4151561088357600080fd5b5050506040518051905015806109285750600160a060020a0383166000908152602081905260408082205473__Math__________________________________92634e30a66c92869190516020015260405160e060020a63ffffffff85160281526004810192909252602482015260440160206040518083038186803b151561090b57600080fd5b6102c65a03f4151561091c57600080fd5b50505060405180519050155b156109355750600061038d565b600160a060020a033381166000818152602081905260408082208054879003905592861680825290839020805486019055917fddf252ad1be2c89b69c2b068fc378daa952ba7f163c4a11628f55a4df523b3ef9085905190815260200160405180910390a350600192915050565b600160a060020a0333166000908152600560205260409020600101544290106109cb57600080fd5b600160a060020a03331660009081526005602081815260408084208054858452918520805490920190915591905255565b600160a060020a03918216600090815260016020908152604080832093909416825291909152205490565b60045433600160a060020a03908116911614610a4257600080fd5b600160a060020a0390911660009081526006602052604090208054820190556002805490910190555600a165627a7a72305820c8f0dd11725f120413614791b5e4f724517fbf8397d21124abbcfc4b521de6b90029",
  "source": "pragma solidity ^0.4.19;\nimport \"@gnosis.pm/gnosis-core-contracts/contracts/Tokens/StandardToken.sol\";\n\n\n/// @title Standard token contract with overflow protection\ncontract TokenTUL is StandardToken {\n\n    struct unlockedTUL {\n        uint amountUnlocked;\n        uint withdrawalTime;\n    }\n\n    /*\n     *  Storage\n     */\n\n    address public owner;\n    address public minter;\n\n    // user => unlockedTUL\n    mapping (address => unlockedTUL) public unlockedTULs;\n\n    // user => amount\n    mapping (address => uint) public lockedTULBalances;\n\n    /*\n     *  Public functions\n     */\n\n    function TokenTUL(\n        address _owner,\n        address _minter\n    )\n        public\n    {\n        owner = _owner;\n        minter = _minter;\n    }\n\n    function updateOwner(\n        address _owner\n    )\n        public\n    {\n        require(msg.sender == owner);\n        owner = _owner;\n    }\n\n    function updateMinter(\n        address _minter\n    )\n        public\n    {\n        require(msg.sender == owner);\n        minter = _minter;\n    }\n\n    function mintTokens(\n        address user,\n        uint amount\n    )\n        public\n    {\n        require(msg.sender == minter);\n\n        lockedTULBalances[user] += amount;\n        totalTokens += amount;\n    }\n\n    /// @dev Lock TUL\n    function lockTokens(\n        uint amount\n    )\n        public\n        returns (uint totalAmountLocked)\n    {\n        // Adjust amount by balance\n        amount = min(amount, balances[msg.sender]);\n        \n        // Update state variables\n        balances[msg.sender] -= amount;\n        lockedTULBalances[msg.sender] += amount;\n\n        // Get return variable\n        totalAmountLocked = lockedTULBalances[msg.sender];\n    }\n\n    function unlockTokens(\n        uint amount\n    )\n        public\n        returns (uint totalAmountUnlocked, uint withdrawalTime)\n    {\n        // Adjust amount by locked balances\n        amount = min(amount, lockedTULBalances[msg.sender]);\n\n        if (amount > 0) {\n            // Update state variables\n            lockedTULBalances[msg.sender] -= amount;\n            unlockedTULs[msg.sender].amountUnlocked += amount;\n            unlockedTULs[msg.sender].withdrawalTime = now + 24 hours;\n        }\n\n        // Get return variables\n        totalAmountUnlocked = unlockedTULs[msg.sender].amountUnlocked;\n        withdrawalTime = unlockedTULs[msg.sender].withdrawalTime;\n    }\n\n    function withdrawUnlockedTokens()\n    public\n    {\n        require(unlockedTULs[msg.sender].withdrawalTime < now);\n        balances[msg.sender] += unlockedTULs[msg.sender].amountUnlocked;\n        unlockedTULs[msg.sender].amountUnlocked = 0;\n    }\n\n    function min(uint a, uint b) \n        public\n        pure\n        returns (uint)\n    {\n        if (a < b) {\n            return a;\n        } else {\n            return b;\n        }\n    }\n}\n",
  "sourcePath": "/home/josojo/gnosis/dutch-exchange/contracts/Tokens/TokenTUL.sol",
  "compiler": {
    "name": "solc",
    "version": "0.4.19+commit.c4cbbb05.Emscripten.clang"
  },
  "schemaVersion": "1.0.1",
  "updatedAt": "2018-02-08T13:12:47.985Z"
}